{
	"contracts/Competitors.sol": {
		"Competitors": {
			"abi": [
				{
					"inputs": [],
					"stateMutability": "nonpayable",
					"type": "constructor"
				},
				{
					"inputs": [],
					"name": "deposit",
					"outputs": [],
					"stateMutability": "payable",
					"type": "function"
				},
				{
					"inputs": [],
					"name": "destroy",
					"outputs": [],
					"stateMutability": "nonpayable",
					"type": "function"
				},
				{
					"inputs": [],
					"name": "withdraw",
					"outputs": [],
					"stateMutability": "nonpayable",
					"type": "function"
				}
			],
			"devdoc": {
				"kind": "dev",
				"methods": {},
				"version": 1
			},
			"evm": {
				"assembly": "    /* \"contracts/Competitors.sol\":36:1847  contract Competitors {... */\n  mstore(0x40, 0x80)\n    /* \"contracts/Competitors.sol\":245:294  constructor() {... */\n  callvalue\n  dup1\n  iszero\n  tag_1\n  jumpi\n  0x00\n  dup1\n  revert\ntag_1:\n  pop\n    /* \"contracts/Competitors.sol\":277:287  msg.sender */\n  caller\n    /* \"contracts/Competitors.sol\":269:274  owner */\n  0x00\n  dup1\n    /* \"contracts/Competitors.sol\":269:287  owner = msg.sender */\n  0x0100\n  exp\n  dup2\n  sload\n  dup2\n  0xffffffffffffffffffffffffffffffffffffffff\n  mul\n  not\n  and\n  swap1\n  dup4\n  0xffffffffffffffffffffffffffffffffffffffff\n  and\n  mul\n  or\n  swap1\n  sstore\n  pop\n    /* \"contracts/Competitors.sol\":36:1847  contract Competitors {... */\n  dataSize(sub_0)\n  dup1\n  dataOffset(sub_0)\n  0x00\n  codecopy\n  0x00\n  return\nstop\n\nsub_0: assembly {\n        /* \"contracts/Competitors.sol\":36:1847  contract Competitors {... */\n      mstore(0x40, 0x80)\n      jumpi(tag_1, lt(calldatasize, 0x04))\n      shr(0xe0, calldataload(0x00))\n      dup1\n      0x3ccfd60b\n      eq\n      tag_2\n      jumpi\n      dup1\n      0x83197ef0\n      eq\n      tag_3\n      jumpi\n      dup1\n      0xd0e30db0\n      eq\n      tag_4\n      jumpi\n    tag_1:\n      0x00\n      dup1\n      revert\n        /* \"contracts/Competitors.sol\":1309:1617  function withdraw() external {... */\n    tag_2:\n      callvalue\n      dup1\n      iszero\n      tag_5\n      jumpi\n      0x00\n      dup1\n      revert\n    tag_5:\n      pop\n      tag_6\n      tag_7\n      jump\t// in\n    tag_6:\n      stop\n        /* \"contracts/Competitors.sol\":1623:1844  function destroy() external {... */\n    tag_3:\n      callvalue\n      dup1\n      iszero\n      tag_8\n      jumpi\n      0x00\n      dup1\n      revert\n    tag_8:\n      pop\n      tag_9\n      tag_10\n      jump\t// in\n    tag_9:\n      stop\n        /* \"contracts/Competitors.sol\":300:1303  function deposit() external payable {... */\n    tag_4:\n      tag_11\n      tag_12\n      jump\t// in\n    tag_11:\n      stop\n        /* \"contracts/Competitors.sol\":1309:1617  function withdraw() external {... */\n    tag_7:\n        /* \"contracts/Competitors.sol\":1401:1408  3 ether */\n      0x29a2241af62c0000\n        /* \"contracts/Competitors.sol\":1378:1397  depositor2Deposited */\n      sload(0x05)\n        /* \"contracts/Competitors.sol\":1356:1375  depositor1Deposited */\n      sload(0x04)\n        /* \"contracts/Competitors.sol\":1356:1397  depositor1Deposited + depositor2Deposited */\n      tag_14\n      swap2\n      swap1\n      tag_15\n      jump\t// in\n    tag_14:\n        /* \"contracts/Competitors.sol\":1356:1408  depositor1Deposited + depositor2Deposited >= 3 ether */\n      lt\n      iszero\n        /* \"contracts/Competitors.sol\":1348:1446  require(depositor1Deposited + depositor2Deposited >= 3 ether, \"3 ether has not yet been received\") */\n      tag_16\n      jumpi\n      mload(0x40)\n      0x08c379a000000000000000000000000000000000000000000000000000000000\n      dup2\n      mstore\n      0x04\n      add\n      tag_17\n      swap1\n      tag_18\n      jump\t// in\n    tag_17:\n      mload(0x40)\n      dup1\n      swap2\n      sub\n      swap1\n      revert\n    tag_16:\n        /* \"contracts/Competitors.sol\":1478:1490  maxDepositor */\n      0x03\n      0x00\n      swap1\n      sload\n      swap1\n      0x0100\n      exp\n      swap1\n      div\n      0xffffffffffffffffffffffffffffffffffffffff\n      and\n        /* \"contracts/Competitors.sol\":1464:1490  msg.sender == maxDepositor */\n      0xffffffffffffffffffffffffffffffffffffffff\n      and\n        /* \"contracts/Competitors.sol\":1464:1474  msg.sender */\n      caller\n        /* \"contracts/Competitors.sol\":1464:1490  msg.sender == maxDepositor */\n      0xffffffffffffffffffffffffffffffffffffffff\n      and\n      eq\n        /* \"contracts/Competitors.sol\":1456:1529  require(msg.sender == maxDepositor, \"you did not deposit the most ether\") */\n      tag_19\n      jumpi\n      mload(0x40)\n      0x08c379a000000000000000000000000000000000000000000000000000000000\n      dup2\n      mstore\n      0x04\n      add\n      tag_20\n      swap1\n      tag_21\n      jump\t// in\n    tag_20:\n      mload(0x40)\n      dup1\n      swap2\n      sub\n      swap1\n      revert\n    tag_19:\n        /* \"contracts/Competitors.sol\":1547:1559  maxDepositor */\n      0x03\n      0x00\n      swap1\n      sload\n      swap1\n      0x0100\n      exp\n      swap1\n      div\n      0xffffffffffffffffffffffffffffffffffffffff\n      and\n        /* \"contracts/Competitors.sol\":1539:1565  payable(maxDepositor).call */\n      0xffffffffffffffffffffffffffffffffffffffff\n      and\n        /* \"contracts/Competitors.sol\":1573:1580  3 ether */\n      0x29a2241af62c0000\n        /* \"contracts/Competitors.sol\":1539:1585  payable(maxDepositor).call{value: 3 ether}(\"\") */\n      mload(0x40)\n      tag_22\n      swap1\n      tag_23\n      jump\t// in\n    tag_22:\n      0x00\n      mload(0x40)\n      dup1\n      dup4\n      sub\n      dup2\n      dup6\n      dup8\n      gas\n      call\n      swap3\n      pop\n      pop\n      pop\n      returndatasize\n      dup1\n      0x00\n      dup2\n      eq\n      tag_26\n      jumpi\n      mload(0x40)\n      swap2\n      pop\n      and(add(returndatasize, 0x3f), not(0x1f))\n      dup3\n      add\n      0x40\n      mstore\n      returndatasize\n      dup3\n      mstore\n      returndatasize\n      0x00\n      0x20\n      dup5\n      add\n      returndatacopy\n      jump(tag_25)\n    tag_26:\n      0x60\n      swap2\n      pop\n    tag_25:\n      pop\n      pop\n      pop\n        /* \"contracts/Competitors.sol\":1606:1610  true */\n      0x01\n        /* \"contracts/Competitors.sol\":1595:1603  withdrew */\n      0x06\n      0x00\n        /* \"contracts/Competitors.sol\":1595:1610  withdrew = true */\n      0x0100\n      exp\n      dup2\n      sload\n      dup2\n      0xff\n      mul\n      not\n      and\n      swap1\n      dup4\n      iszero\n      iszero\n      mul\n      or\n      swap1\n      sstore\n      pop\n        /* \"contracts/Competitors.sol\":1309:1617  function withdraw() external {... */\n      jump\t// out\n        /* \"contracts/Competitors.sol\":1623:1844  function destroy() external {... */\n    tag_10:\n        /* \"contracts/Competitors.sol\":1683:1688  owner */\n      0x00\n      dup1\n      sload\n      swap1\n      0x0100\n      exp\n      swap1\n      div\n      0xffffffffffffffffffffffffffffffffffffffff\n      and\n        /* \"contracts/Competitors.sol\":1669:1688  msg.sender == owner */\n      0xffffffffffffffffffffffffffffffffffffffff\n      and\n        /* \"contracts/Competitors.sol\":1669:1679  msg.sender */\n      caller\n        /* \"contracts/Competitors.sol\":1669:1688  msg.sender == owner */\n      0xffffffffffffffffffffffffffffffffffffffff\n      and\n      eq\n        /* \"contracts/Competitors.sol\":1661:1714  require(msg.sender == owner, \"you are not the owner\") */\n      tag_28\n      jumpi\n      mload(0x40)\n      0x08c379a000000000000000000000000000000000000000000000000000000000\n      dup2\n      mstore\n      0x04\n      add\n      tag_29\n      swap1\n      tag_30\n      jump\t// in\n    tag_29:\n      mload(0x40)\n      dup1\n      swap2\n      sub\n      swap1\n      revert\n    tag_28:\n        /* \"contracts/Competitors.sol\":1744:1748  true */\n      0x01\n        /* \"contracts/Competitors.sol\":1732:1748  withdrew == true */\n      iszero\n      iszero\n        /* \"contracts/Competitors.sol\":1732:1740  withdrew */\n      0x06\n      0x00\n      swap1\n      sload\n      swap1\n      0x0100\n      exp\n      swap1\n      div\n      0xff\n      and\n        /* \"contracts/Competitors.sol\":1732:1748  withdrew == true */\n      iszero\n      iszero\n      eq\n        /* \"contracts/Competitors.sol\":1724:1799  require(withdrew == true, \"max depositor has not yet withdrew their funds\") */\n      tag_31\n      jumpi\n      mload(0x40)\n      0x08c379a000000000000000000000000000000000000000000000000000000000\n      dup2\n      mstore\n      0x04\n      add\n      tag_32\n      swap1\n      tag_33\n      jump\t// in\n    tag_32:\n      mload(0x40)\n      dup1\n      swap2\n      sub\n      swap1\n      revert\n    tag_31:\n        /* \"contracts/Competitors.sol\":1830:1835  owner */\n      0x00\n      dup1\n      sload\n      swap1\n      0x0100\n      exp\n      swap1\n      div\n      0xffffffffffffffffffffffffffffffffffffffff\n      and\n        /* \"contracts/Competitors.sol\":1809:1837  selfdestruct(payable(owner)) */\n      0xffffffffffffffffffffffffffffffffffffffff\n      and\n      selfdestruct\n        /* \"contracts/Competitors.sol\":300:1303  function deposit() external payable {... */\n    tag_12:\n        /* \"contracts/Competitors.sol\":367:374  1 ether */\n      0x0de0b6b3a7640000\n        /* \"contracts/Competitors.sol\":354:363  msg.value */\n      callvalue\n        /* \"contracts/Competitors.sol\":354:374  msg.value == 1 ether */\n      eq\n        /* \"contracts/Competitors.sol\":346:412  require(msg.value == 1 ether, \"you can only send exactly 1 ether\") */\n      tag_35\n      jumpi\n      mload(0x40)\n      0x08c379a000000000000000000000000000000000000000000000000000000000\n      dup2\n      mstore\n      0x04\n      add\n      tag_36\n      swap1\n      tag_37\n      jump\t// in\n    tag_36:\n      mload(0x40)\n      dup1\n      swap2\n      sub\n      swap1\n      revert\n    tag_35:\n        /* \"contracts/Competitors.sol\":474:481  3 ether */\n      0x29a2241af62c0000\n        /* \"contracts/Competitors.sol\":452:471  depositor2Deposited */\n      sload(0x05)\n        /* \"contracts/Competitors.sol\":430:449  depositor1Deposited */\n      sload(0x04)\n        /* \"contracts/Competitors.sol\":430:471  depositor1Deposited + depositor2Deposited */\n      tag_38\n      swap2\n      swap1\n      tag_15\n      jump\t// in\n    tag_38:\n        /* \"contracts/Competitors.sol\":430:481  depositor1Deposited + depositor2Deposited < 3 ether */\n      lt\n        /* \"contracts/Competitors.sol\":422:545  require(depositor1Deposited + depositor2Deposited < 3 ether, \"3 Ethereum has been received, no more deposits are accepted\") */\n      tag_39\n      jumpi\n      mload(0x40)\n      0x08c379a000000000000000000000000000000000000000000000000000000000\n      dup2\n      mstore\n      0x04\n      add\n      tag_40\n      swap1\n      tag_41\n      jump\t// in\n    tag_40:\n      mload(0x40)\n      dup1\n      swap2\n      sub\n      swap1\n      revert\n    tag_39:\n        /* \"contracts/Competitors.sol\":582:583  0 */\n      0x00\n        /* \"contracts/Competitors.sol\":560:584  depositor1 == address(0) */\n      0xffffffffffffffffffffffffffffffffffffffff\n      and\n        /* \"contracts/Competitors.sol\":560:570  depositor1 */\n      0x01\n      0x00\n      swap1\n      sload\n      swap1\n      0x0100\n      exp\n      swap1\n      div\n      0xffffffffffffffffffffffffffffffffffffffff\n      and\n        /* \"contracts/Competitors.sol\":560:584  depositor1 == address(0) */\n      0xffffffffffffffffffffffffffffffffffffffff\n      and\n      sub\n        /* \"contracts/Competitors.sol\":556:718  if (depositor1 == address(0)) {... */\n      tag_42\n      jumpi\n        /* \"contracts/Competitors.sol\":613:623  msg.sender */\n      caller\n        /* \"contracts/Competitors.sol\":600:610  depositor1 */\n      0x01\n      0x00\n        /* \"contracts/Competitors.sol\":600:623  depositor1 = msg.sender */\n      0x0100\n      exp\n      dup2\n      sload\n      dup2\n      0xffffffffffffffffffffffffffffffffffffffff\n      mul\n      not\n      and\n      swap1\n      dup4\n      0xffffffffffffffffffffffffffffffffffffffff\n      and\n      mul\n      or\n      swap1\n      sstore\n      pop\n        /* \"contracts/Competitors.sol\":556:718  if (depositor1 == address(0)) {... */\n      jump(tag_43)\n    tag_42:\n        /* \"contracts/Competitors.sol\":666:667  0 */\n      0x00\n        /* \"contracts/Competitors.sol\":644:668  depositor2 == address(0) */\n      0xffffffffffffffffffffffffffffffffffffffff\n      and\n        /* \"contracts/Competitors.sol\":644:654  depositor2 */\n      0x02\n      0x00\n      swap1\n      sload\n      swap1\n      0x0100\n      exp\n      swap1\n      div\n      0xffffffffffffffffffffffffffffffffffffffff\n      and\n        /* \"contracts/Competitors.sol\":644:668  depositor2 == address(0) */\n      0xffffffffffffffffffffffffffffffffffffffff\n      and\n      sub\n        /* \"contracts/Competitors.sol\":640:718  if (depositor2 == address(0)) {... */\n      tag_44\n      jumpi\n        /* \"contracts/Competitors.sol\":697:707  msg.sender */\n      caller\n        /* \"contracts/Competitors.sol\":684:694  depositor2 */\n      0x02\n      0x00\n        /* \"contracts/Competitors.sol\":684:707  depositor2 = msg.sender */\n      0x0100\n      exp\n      dup2\n      sload\n      dup2\n      0xffffffffffffffffffffffffffffffffffffffff\n      mul\n      not\n      and\n      swap1\n      dup4\n      0xffffffffffffffffffffffffffffffffffffffff\n      and\n      mul\n      or\n      swap1\n      sstore\n      pop\n        /* \"contracts/Competitors.sol\":640:718  if (depositor2 == address(0)) {... */\n    tag_44:\n        /* \"contracts/Competitors.sol\":556:718  if (depositor1 == address(0)) {... */\n    tag_43:\n        /* \"contracts/Competitors.sol\":746:756  depositor1 */\n      0x01\n      0x00\n      swap1\n      sload\n      swap1\n      0x0100\n      exp\n      swap1\n      div\n      0xffffffffffffffffffffffffffffffffffffffff\n      and\n        /* \"contracts/Competitors.sol\":732:756  msg.sender == depositor1 */\n      0xffffffffffffffffffffffffffffffffffffffff\n      and\n        /* \"contracts/Competitors.sol\":732:742  msg.sender */\n      caller\n        /* \"contracts/Competitors.sol\":732:756  msg.sender == depositor1 */\n      0xffffffffffffffffffffffffffffffffffffffff\n      and\n      sub\n        /* \"contracts/Competitors.sol\":728:989  if (msg.sender == depositor1) {... */\n      tag_45\n      jumpi\n        /* \"contracts/Competitors.sol\":795:804  msg.value */\n      callvalue\n        /* \"contracts/Competitors.sol\":772:791  depositor1Deposited */\n      0x04\n      0x00\n        /* \"contracts/Competitors.sol\":772:804  depositor1Deposited += msg.value */\n      dup3\n      dup3\n      sload\n      tag_46\n      swap2\n      swap1\n      tag_15\n      jump\t// in\n    tag_46:\n      swap3\n      pop\n      pop\n      dup2\n      swap1\n      sstore\n      pop\n        /* \"contracts/Competitors.sol\":728:989  if (msg.sender == depositor1) {... */\n      jump(tag_47)\n    tag_45:\n        /* \"contracts/Competitors.sol\":839:849  depositor2 */\n      0x02\n      0x00\n      swap1\n      sload\n      swap1\n      0x0100\n      exp\n      swap1\n      div\n      0xffffffffffffffffffffffffffffffffffffffff\n      and\n        /* \"contracts/Competitors.sol\":825:849  msg.sender == depositor2 */\n      0xffffffffffffffffffffffffffffffffffffffff\n      and\n        /* \"contracts/Competitors.sol\":825:835  msg.sender */\n      caller\n        /* \"contracts/Competitors.sol\":825:849  msg.sender == depositor2 */\n      0xffffffffffffffffffffffffffffffffffffffff\n      and\n      sub\n        /* \"contracts/Competitors.sol\":821:989  if (msg.sender == depositor2) {... */\n      tag_48\n      jumpi\n        /* \"contracts/Competitors.sol\":888:897  msg.value */\n      callvalue\n        /* \"contracts/Competitors.sol\":865:884  depositor2Deposited */\n      0x05\n      0x00\n        /* \"contracts/Competitors.sol\":865:897  depositor2Deposited += msg.value */\n      dup3\n      dup3\n      sload\n      tag_49\n      swap2\n      swap1\n      tag_15\n      jump\t// in\n    tag_49:\n      swap3\n      pop\n      pop\n      dup2\n      swap1\n      sstore\n      pop\n        /* \"contracts/Competitors.sol\":821:989  if (msg.sender == depositor2) {... */\n      jump(tag_50)\n    tag_48:\n        /* \"contracts/Competitors.sol\":928:978  revert(\"You are not one of the valid depositors.\") */\n      mload(0x40)\n      0x08c379a000000000000000000000000000000000000000000000000000000000\n      dup2\n      mstore\n      0x04\n      add\n      tag_51\n      swap1\n      tag_52\n      jump\t// in\n    tag_51:\n      mload(0x40)\n      dup1\n      swap2\n      sub\n      swap1\n      revert\n        /* \"contracts/Competitors.sol\":821:989  if (msg.sender == depositor2) {... */\n    tag_50:\n        /* \"contracts/Competitors.sol\":728:989  if (msg.sender == depositor1) {... */\n    tag_47:\n        /* \"contracts/Competitors.sol\":1048:1055  3 ether */\n      0x29a2241af62c0000\n        /* \"contracts/Competitors.sol\":1025:1044  depositor2Deposited */\n      sload(0x05)\n        /* \"contracts/Competitors.sol\":1003:1022  depositor1Deposited */\n      sload(0x04)\n        /* \"contracts/Competitors.sol\":1003:1044  depositor1Deposited + depositor2Deposited */\n      tag_53\n      swap2\n      swap1\n      tag_15\n      jump\t// in\n    tag_53:\n        /* \"contracts/Competitors.sol\":1003:1055  depositor1Deposited + depositor2Deposited >= 3 ether */\n      lt\n        /* \"contracts/Competitors.sol\":999:1297  if (depositor1Deposited + depositor2Deposited >= 3 ether) {... */\n      tag_54\n      jumpi\n        /* \"contracts/Competitors.sol\":1097:1116  depositor2Deposited */\n      sload(0x05)\n        /* \"contracts/Competitors.sol\":1075:1094  depositor1Deposited */\n      sload(0x04)\n        /* \"contracts/Competitors.sol\":1075:1116  depositor1Deposited > depositor2Deposited */\n      gt\n        /* \"contracts/Competitors.sol\":1071:1287  if (depositor1Deposited > depositor2Deposited) {... */\n      iszero\n      tag_55\n      jumpi\n        /* \"contracts/Competitors.sol\":1151:1161  depositor1 */\n      0x01\n      0x00\n      swap1\n      sload\n      swap1\n      0x0100\n      exp\n      swap1\n      div\n      0xffffffffffffffffffffffffffffffffffffffff\n      and\n        /* \"contracts/Competitors.sol\":1136:1148  maxDepositor */\n      0x03\n      0x00\n        /* \"contracts/Competitors.sol\":1136:1161  maxDepositor = depositor1 */\n      0x0100\n      exp\n      dup2\n      sload\n      dup2\n      0xffffffffffffffffffffffffffffffffffffffff\n      mul\n      not\n      and\n      swap1\n      dup4\n      0xffffffffffffffffffffffffffffffffffffffff\n      and\n      mul\n      or\n      swap1\n      sstore\n      pop\n        /* \"contracts/Competitors.sol\":1071:1287  if (depositor1Deposited > depositor2Deposited) {... */\n      jump(tag_56)\n    tag_55:\n        /* \"contracts/Competitors.sol\":1208:1227  depositor1Deposited */\n      sload(0x04)\n        /* \"contracts/Competitors.sol\":1186:1205  depositor2Deposited */\n      sload(0x05)\n        /* \"contracts/Competitors.sol\":1186:1227  depositor2Deposited > depositor1Deposited */\n      gt\n        /* \"contracts/Competitors.sol\":1182:1287  if (depositor2Deposited > depositor1Deposited) {... */\n      iszero\n      tag_57\n      jumpi\n        /* \"contracts/Competitors.sol\":1262:1272  depositor2 */\n      0x02\n      0x00\n      swap1\n      sload\n      swap1\n      0x0100\n      exp\n      swap1\n      div\n      0xffffffffffffffffffffffffffffffffffffffff\n      and\n        /* \"contracts/Competitors.sol\":1247:1259  maxDepositor */\n      0x03\n      0x00\n        /* \"contracts/Competitors.sol\":1247:1272  maxDepositor = depositor2 */\n      0x0100\n      exp\n      dup2\n      sload\n      dup2\n      0xffffffffffffffffffffffffffffffffffffffff\n      mul\n      not\n      and\n      swap1\n      dup4\n      0xffffffffffffffffffffffffffffffffffffffff\n      and\n      mul\n      or\n      swap1\n      sstore\n      pop\n        /* \"contracts/Competitors.sol\":1182:1287  if (depositor2Deposited > depositor1Deposited) {... */\n    tag_57:\n        /* \"contracts/Competitors.sol\":1071:1287  if (depositor1Deposited > depositor2Deposited) {... */\n    tag_56:\n        /* \"contracts/Competitors.sol\":999:1297  if (depositor1Deposited + depositor2Deposited >= 3 ether) {... */\n    tag_54:\n        /* \"contracts/Competitors.sol\":300:1303  function deposit() external payable {... */\n      jump\t// out\n        /* \"#utility.yul\":7:84   */\n    tag_58:\n        /* \"#utility.yul\":44:51   */\n      0x00\n        /* \"#utility.yul\":73:78   */\n      dup2\n        /* \"#utility.yul\":62:78   */\n      swap1\n      pop\n        /* \"#utility.yul\":7:84   */\n      swap2\n      swap1\n      pop\n      jump\t// out\n        /* \"#utility.yul\":90:270   */\n    tag_59:\n        /* \"#utility.yul\":138:215   */\n      0x4e487b7100000000000000000000000000000000000000000000000000000000\n        /* \"#utility.yul\":135:136   */\n      0x00\n        /* \"#utility.yul\":128:216   */\n      mstore\n        /* \"#utility.yul\":235:239   */\n      0x11\n        /* \"#utility.yul\":232:233   */\n      0x04\n        /* \"#utility.yul\":225:240   */\n      mstore\n        /* \"#utility.yul\":259:263   */\n      0x24\n        /* \"#utility.yul\":256:257   */\n      0x00\n        /* \"#utility.yul\":249:264   */\n      revert\n        /* \"#utility.yul\":276:467   */\n    tag_15:\n        /* \"#utility.yul\":316:319   */\n      0x00\n        /* \"#utility.yul\":335:355   */\n      tag_82\n        /* \"#utility.yul\":353:354   */\n      dup3\n        /* \"#utility.yul\":335:355   */\n      tag_58\n      jump\t// in\n    tag_82:\n        /* \"#utility.yul\":330:355   */\n      swap2\n      pop\n        /* \"#utility.yul\":369:389   */\n      tag_83\n        /* \"#utility.yul\":387:388   */\n      dup4\n        /* \"#utility.yul\":369:389   */\n      tag_58\n      jump\t// in\n    tag_83:\n        /* \"#utility.yul\":364:389   */\n      swap3\n      pop\n        /* \"#utility.yul\":412:413   */\n      dup3\n        /* \"#utility.yul\":409:410   */\n      dup3\n        /* \"#utility.yul\":405:414   */\n      add\n        /* \"#utility.yul\":398:414   */\n      swap1\n      pop\n        /* \"#utility.yul\":433:436   */\n      dup1\n        /* \"#utility.yul\":430:431   */\n      dup3\n        /* \"#utility.yul\":427:437   */\n      gt\n        /* \"#utility.yul\":424:460   */\n      iszero\n      tag_84\n      jumpi\n        /* \"#utility.yul\":440:458   */\n      tag_85\n      tag_59\n      jump\t// in\n    tag_85:\n        /* \"#utility.yul\":424:460   */\n    tag_84:\n        /* \"#utility.yul\":276:467   */\n      swap3\n      swap2\n      pop\n      pop\n      jump\t// out\n        /* \"#utility.yul\":473:642   */\n    tag_60:\n        /* \"#utility.yul\":557:568   */\n      0x00\n        /* \"#utility.yul\":591:597   */\n      dup3\n        /* \"#utility.yul\":586:589   */\n      dup3\n        /* \"#utility.yul\":579:598   */\n      mstore\n        /* \"#utility.yul\":631:635   */\n      0x20\n        /* \"#utility.yul\":626:629   */\n      dup3\n        /* \"#utility.yul\":622:636   */\n      add\n        /* \"#utility.yul\":607:636   */\n      swap1\n      pop\n        /* \"#utility.yul\":473:642   */\n      swap3\n      swap2\n      pop\n      pop\n      jump\t// out\n        /* \"#utility.yul\":648:868   */\n    tag_61:\n        /* \"#utility.yul\":788:822   */\n      0x3320657468657220686173206e6f7420796574206265656e2072656365697665\n        /* \"#utility.yul\":784:785   */\n      0x00\n        /* \"#utility.yul\":776:782   */\n      dup3\n        /* \"#utility.yul\":772:786   */\n      add\n        /* \"#utility.yul\":765:823   */\n      mstore\n        /* \"#utility.yul\":857:860   */\n      0x6400000000000000000000000000000000000000000000000000000000000000\n        /* \"#utility.yul\":852:854   */\n      0x20\n        /* \"#utility.yul\":844:850   */\n      dup3\n        /* \"#utility.yul\":840:855   */\n      add\n        /* \"#utility.yul\":833:861   */\n      mstore\n        /* \"#utility.yul\":648:868   */\n      pop\n      jump\t// out\n        /* \"#utility.yul\":874:1240   */\n    tag_62:\n        /* \"#utility.yul\":1016:1019   */\n      0x00\n        /* \"#utility.yul\":1037:1104   */\n      tag_89\n        /* \"#utility.yul\":1101:1103   */\n      0x21\n        /* \"#utility.yul\":1096:1099   */\n      dup4\n        /* \"#utility.yul\":1037:1104   */\n      tag_60\n      jump\t// in\n    tag_89:\n        /* \"#utility.yul\":1030:1104   */\n      swap2\n      pop\n        /* \"#utility.yul\":1113:1206   */\n      tag_90\n        /* \"#utility.yul\":1202:1205   */\n      dup3\n        /* \"#utility.yul\":1113:1206   */\n      tag_61\n      jump\t// in\n    tag_90:\n        /* \"#utility.yul\":1231:1233   */\n      0x40\n        /* \"#utility.yul\":1226:1229   */\n      dup3\n        /* \"#utility.yul\":1222:1234   */\n      add\n        /* \"#utility.yul\":1215:1234   */\n      swap1\n      pop\n        /* \"#utility.yul\":874:1240   */\n      swap2\n      swap1\n      pop\n      jump\t// out\n        /* \"#utility.yul\":1246:1665   */\n    tag_18:\n        /* \"#utility.yul\":1412:1416   */\n      0x00\n        /* \"#utility.yul\":1450:1452   */\n      0x20\n        /* \"#utility.yul\":1439:1448   */\n      dup3\n        /* \"#utility.yul\":1435:1453   */\n      add\n        /* \"#utility.yul\":1427:1453   */\n      swap1\n      pop\n        /* \"#utility.yul\":1499:1508   */\n      dup2\n        /* \"#utility.yul\":1493:1497   */\n      dup2\n        /* \"#utility.yul\":1489:1509   */\n      sub\n        /* \"#utility.yul\":1485:1486   */\n      0x00\n        /* \"#utility.yul\":1474:1483   */\n      dup4\n        /* \"#utility.yul\":1470:1487   */\n      add\n        /* \"#utility.yul\":1463:1510   */\n      mstore\n        /* \"#utility.yul\":1527:1658   */\n      tag_92\n        /* \"#utility.yul\":1653:1657   */\n      dup2\n        /* \"#utility.yul\":1527:1658   */\n      tag_62\n      jump\t// in\n    tag_92:\n        /* \"#utility.yul\":1519:1658   */\n      swap1\n      pop\n        /* \"#utility.yul\":1246:1665   */\n      swap2\n      swap1\n      pop\n      jump\t// out\n        /* \"#utility.yul\":1671:1892   */\n    tag_63:\n        /* \"#utility.yul\":1811:1845   */\n      0x796f7520646964206e6f74206465706f73697420746865206d6f737420657468\n        /* \"#utility.yul\":1807:1808   */\n      0x00\n        /* \"#utility.yul\":1799:1805   */\n      dup3\n        /* \"#utility.yul\":1795:1809   */\n      add\n        /* \"#utility.yul\":1788:1846   */\n      mstore\n        /* \"#utility.yul\":1880:1884   */\n      0x6572000000000000000000000000000000000000000000000000000000000000\n        /* \"#utility.yul\":1875:1877   */\n      0x20\n        /* \"#utility.yul\":1867:1873   */\n      dup3\n        /* \"#utility.yul\":1863:1878   */\n      add\n        /* \"#utility.yul\":1856:1885   */\n      mstore\n        /* \"#utility.yul\":1671:1892   */\n      pop\n      jump\t// out\n        /* \"#utility.yul\":1898:2264   */\n    tag_64:\n        /* \"#utility.yul\":2040:2043   */\n      0x00\n        /* \"#utility.yul\":2061:2128   */\n      tag_95\n        /* \"#utility.yul\":2125:2127   */\n      0x22\n        /* \"#utility.yul\":2120:2123   */\n      dup4\n        /* \"#utility.yul\":2061:2128   */\n      tag_60\n      jump\t// in\n    tag_95:\n        /* \"#utility.yul\":2054:2128   */\n      swap2\n      pop\n        /* \"#utility.yul\":2137:2230   */\n      tag_96\n        /* \"#utility.yul\":2226:2229   */\n      dup3\n        /* \"#utility.yul\":2137:2230   */\n      tag_63\n      jump\t// in\n    tag_96:\n        /* \"#utility.yul\":2255:2257   */\n      0x40\n        /* \"#utility.yul\":2250:2253   */\n      dup3\n        /* \"#utility.yul\":2246:2258   */\n      add\n        /* \"#utility.yul\":2239:2258   */\n      swap1\n      pop\n        /* \"#utility.yul\":1898:2264   */\n      swap2\n      swap1\n      pop\n      jump\t// out\n        /* \"#utility.yul\":2270:2689   */\n    tag_21:\n        /* \"#utility.yul\":2436:2440   */\n      0x00\n        /* \"#utility.yul\":2474:2476   */\n      0x20\n        /* \"#utility.yul\":2463:2472   */\n      dup3\n        /* \"#utility.yul\":2459:2477   */\n      add\n        /* \"#utility.yul\":2451:2477   */\n      swap1\n      pop\n        /* \"#utility.yul\":2523:2532   */\n      dup2\n        /* \"#utility.yul\":2517:2521   */\n      dup2\n        /* \"#utility.yul\":2513:2533   */\n      sub\n        /* \"#utility.yul\":2509:2510   */\n      0x00\n        /* \"#utility.yul\":2498:2507   */\n      dup4\n        /* \"#utility.yul\":2494:2511   */\n      add\n        /* \"#utility.yul\":2487:2534   */\n      mstore\n        /* \"#utility.yul\":2551:2682   */\n      tag_98\n        /* \"#utility.yul\":2677:2681   */\n      dup2\n        /* \"#utility.yul\":2551:2682   */\n      tag_64\n      jump\t// in\n    tag_98:\n        /* \"#utility.yul\":2543:2682   */\n      swap1\n      pop\n        /* \"#utility.yul\":2270:2689   */\n      swap2\n      swap1\n      pop\n      jump\t// out\n        /* \"#utility.yul\":2695:2842   */\n    tag_65:\n        /* \"#utility.yul\":2796:2807   */\n      0x00\n        /* \"#utility.yul\":2833:2836   */\n      dup2\n        /* \"#utility.yul\":2818:2836   */\n      swap1\n      pop\n        /* \"#utility.yul\":2695:2842   */\n      swap3\n      swap2\n      pop\n      pop\n      jump\t// out\n        /* \"#utility.yul\":2848:2962   */\n    tag_66:\n      pop\n      jump\t// out\n        /* \"#utility.yul\":2968:3366   */\n    tag_67:\n        /* \"#utility.yul\":3127:3130   */\n      0x00\n        /* \"#utility.yul\":3148:3231   */\n      tag_102\n        /* \"#utility.yul\":3229:3230   */\n      0x00\n        /* \"#utility.yul\":3224:3227   */\n      dup4\n        /* \"#utility.yul\":3148:3231   */\n      tag_65\n      jump\t// in\n    tag_102:\n        /* \"#utility.yul\":3141:3231   */\n      swap2\n      pop\n        /* \"#utility.yul\":3240:3333   */\n      tag_103\n        /* \"#utility.yul\":3329:3332   */\n      dup3\n        /* \"#utility.yul\":3240:3333   */\n      tag_66\n      jump\t// in\n    tag_103:\n        /* \"#utility.yul\":3358:3359   */\n      0x00\n        /* \"#utility.yul\":3353:3356   */\n      dup3\n        /* \"#utility.yul\":3349:3360   */\n      add\n        /* \"#utility.yul\":3342:3360   */\n      swap1\n      pop\n        /* \"#utility.yul\":2968:3366   */\n      swap2\n      swap1\n      pop\n      jump\t// out\n        /* \"#utility.yul\":3372:3751   */\n    tag_23:\n        /* \"#utility.yul\":3556:3559   */\n      0x00\n        /* \"#utility.yul\":3578:3725   */\n      tag_105\n        /* \"#utility.yul\":3721:3724   */\n      dup3\n        /* \"#utility.yul\":3578:3725   */\n      tag_67\n      jump\t// in\n    tag_105:\n        /* \"#utility.yul\":3571:3725   */\n      swap2\n      pop\n        /* \"#utility.yul\":3742:3745   */\n      dup2\n        /* \"#utility.yul\":3735:3745   */\n      swap1\n      pop\n        /* \"#utility.yul\":3372:3751   */\n      swap2\n      swap1\n      pop\n      jump\t// out\n        /* \"#utility.yul\":3757:3928   */\n    tag_68:\n        /* \"#utility.yul\":3897:3920   */\n      0x796f7520617265206e6f7420746865206f776e65720000000000000000000000\n        /* \"#utility.yul\":3893:3894   */\n      0x00\n        /* \"#utility.yul\":3885:3891   */\n      dup3\n        /* \"#utility.yul\":3881:3895   */\n      add\n        /* \"#utility.yul\":3874:3921   */\n      mstore\n        /* \"#utility.yul\":3757:3928   */\n      pop\n      jump\t// out\n        /* \"#utility.yul\":3934:4300   */\n    tag_69:\n        /* \"#utility.yul\":4076:4079   */\n      0x00\n        /* \"#utility.yul\":4097:4164   */\n      tag_108\n        /* \"#utility.yul\":4161:4163   */\n      0x15\n        /* \"#utility.yul\":4156:4159   */\n      dup4\n        /* \"#utility.yul\":4097:4164   */\n      tag_60\n      jump\t// in\n    tag_108:\n        /* \"#utility.yul\":4090:4164   */\n      swap2\n      pop\n        /* \"#utility.yul\":4173:4266   */\n      tag_109\n        /* \"#utility.yul\":4262:4265   */\n      dup3\n        /* \"#utility.yul\":4173:4266   */\n      tag_68\n      jump\t// in\n    tag_109:\n        /* \"#utility.yul\":4291:4293   */\n      0x20\n        /* \"#utility.yul\":4286:4289   */\n      dup3\n        /* \"#utility.yul\":4282:4294   */\n      add\n        /* \"#utility.yul\":4275:4294   */\n      swap1\n      pop\n        /* \"#utility.yul\":3934:4300   */\n      swap2\n      swap1\n      pop\n      jump\t// out\n        /* \"#utility.yul\":4306:4725   */\n    tag_30:\n        /* \"#utility.yul\":4472:4476   */\n      0x00\n        /* \"#utility.yul\":4510:4512   */\n      0x20\n        /* \"#utility.yul\":4499:4508   */\n      dup3\n        /* \"#utility.yul\":4495:4513   */\n      add\n        /* \"#utility.yul\":4487:4513   */\n      swap1\n      pop\n        /* \"#utility.yul\":4559:4568   */\n      dup2\n        /* \"#utility.yul\":4553:4557   */\n      dup2\n        /* \"#utility.yul\":4549:4569   */\n      sub\n        /* \"#utility.yul\":4545:4546   */\n      0x00\n        /* \"#utility.yul\":4534:4543   */\n      dup4\n        /* \"#utility.yul\":4530:4547   */\n      add\n        /* \"#utility.yul\":4523:4570   */\n      mstore\n        /* \"#utility.yul\":4587:4718   */\n      tag_111\n        /* \"#utility.yul\":4713:4717   */\n      dup2\n        /* \"#utility.yul\":4587:4718   */\n      tag_69\n      jump\t// in\n    tag_111:\n        /* \"#utility.yul\":4579:4718   */\n      swap1\n      pop\n        /* \"#utility.yul\":4306:4725   */\n      swap2\n      swap1\n      pop\n      jump\t// out\n        /* \"#utility.yul\":4731:4964   */\n    tag_70:\n        /* \"#utility.yul\":4871:4905   */\n      0x6d6178206465706f7369746f7220686173206e6f742079657420776974686472\n        /* \"#utility.yul\":4867:4868   */\n      0x00\n        /* \"#utility.yul\":4859:4865   */\n      dup3\n        /* \"#utility.yul\":4855:4869   */\n      add\n        /* \"#utility.yul\":4848:4906   */\n      mstore\n        /* \"#utility.yul\":4940:4956   */\n      0x65772074686569722066756e6473000000000000000000000000000000000000\n        /* \"#utility.yul\":4935:4937   */\n      0x20\n        /* \"#utility.yul\":4927:4933   */\n      dup3\n        /* \"#utility.yul\":4923:4938   */\n      add\n        /* \"#utility.yul\":4916:4957   */\n      mstore\n        /* \"#utility.yul\":4731:4964   */\n      pop\n      jump\t// out\n        /* \"#utility.yul\":4970:5336   */\n    tag_71:\n        /* \"#utility.yul\":5112:5115   */\n      0x00\n        /* \"#utility.yul\":5133:5200   */\n      tag_114\n        /* \"#utility.yul\":5197:5199   */\n      0x2e\n        /* \"#utility.yul\":5192:5195   */\n      dup4\n        /* \"#utility.yul\":5133:5200   */\n      tag_60\n      jump\t// in\n    tag_114:\n        /* \"#utility.yul\":5126:5200   */\n      swap2\n      pop\n        /* \"#utility.yul\":5209:5302   */\n      tag_115\n        /* \"#utility.yul\":5298:5301   */\n      dup3\n        /* \"#utility.yul\":5209:5302   */\n      tag_70\n      jump\t// in\n    tag_115:\n        /* \"#utility.yul\":5327:5329   */\n      0x40\n        /* \"#utility.yul\":5322:5325   */\n      dup3\n        /* \"#utility.yul\":5318:5330   */\n      add\n        /* \"#utility.yul\":5311:5330   */\n      swap1\n      pop\n        /* \"#utility.yul\":4970:5336   */\n      swap2\n      swap1\n      pop\n      jump\t// out\n        /* \"#utility.yul\":5342:5761   */\n    tag_33:\n        /* \"#utility.yul\":5508:5512   */\n      0x00\n        /* \"#utility.yul\":5546:5548   */\n      0x20\n        /* \"#utility.yul\":5535:5544   */\n      dup3\n        /* \"#utility.yul\":5531:5549   */\n      add\n        /* \"#utility.yul\":5523:5549   */\n      swap1\n      pop\n        /* \"#utility.yul\":5595:5604   */\n      dup2\n        /* \"#utility.yul\":5589:5593   */\n      dup2\n        /* \"#utility.yul\":5585:5605   */\n      sub\n        /* \"#utility.yul\":5581:5582   */\n      0x00\n        /* \"#utility.yul\":5570:5579   */\n      dup4\n        /* \"#utility.yul\":5566:5583   */\n      add\n        /* \"#utility.yul\":5559:5606   */\n      mstore\n        /* \"#utility.yul\":5623:5754   */\n      tag_117\n        /* \"#utility.yul\":5749:5753   */\n      dup2\n        /* \"#utility.yul\":5623:5754   */\n      tag_71\n      jump\t// in\n    tag_117:\n        /* \"#utility.yul\":5615:5754   */\n      swap1\n      pop\n        /* \"#utility.yul\":5342:5761   */\n      swap2\n      swap1\n      pop\n      jump\t// out\n        /* \"#utility.yul\":5767:5987   */\n    tag_72:\n        /* \"#utility.yul\":5907:5941   */\n      0x796f752063616e206f6e6c792073656e642065786163746c7920312065746865\n        /* \"#utility.yul\":5903:5904   */\n      0x00\n        /* \"#utility.yul\":5895:5901   */\n      dup3\n        /* \"#utility.yul\":5891:5905   */\n      add\n        /* \"#utility.yul\":5884:5942   */\n      mstore\n        /* \"#utility.yul\":5976:5979   */\n      0x7200000000000000000000000000000000000000000000000000000000000000\n        /* \"#utility.yul\":5971:5973   */\n      0x20\n        /* \"#utility.yul\":5963:5969   */\n      dup3\n        /* \"#utility.yul\":5959:5974   */\n      add\n        /* \"#utility.yul\":5952:5980   */\n      mstore\n        /* \"#utility.yul\":5767:5987   */\n      pop\n      jump\t// out\n        /* \"#utility.yul\":5993:6359   */\n    tag_73:\n        /* \"#utility.yul\":6135:6138   */\n      0x00\n        /* \"#utility.yul\":6156:6223   */\n      tag_120\n        /* \"#utility.yul\":6220:6222   */\n      0x21\n        /* \"#utility.yul\":6215:6218   */\n      dup4\n        /* \"#utility.yul\":6156:6223   */\n      tag_60\n      jump\t// in\n    tag_120:\n        /* \"#utility.yul\":6149:6223   */\n      swap2\n      pop\n        /* \"#utility.yul\":6232:6325   */\n      tag_121\n        /* \"#utility.yul\":6321:6324   */\n      dup3\n        /* \"#utility.yul\":6232:6325   */\n      tag_72\n      jump\t// in\n    tag_121:\n        /* \"#utility.yul\":6350:6352   */\n      0x40\n        /* \"#utility.yul\":6345:6348   */\n      dup3\n        /* \"#utility.yul\":6341:6353   */\n      add\n        /* \"#utility.yul\":6334:6353   */\n      swap1\n      pop\n        /* \"#utility.yul\":5993:6359   */\n      swap2\n      swap1\n      pop\n      jump\t// out\n        /* \"#utility.yul\":6365:6784   */\n    tag_37:\n        /* \"#utility.yul\":6531:6535   */\n      0x00\n        /* \"#utility.yul\":6569:6571   */\n      0x20\n        /* \"#utility.yul\":6558:6567   */\n      dup3\n        /* \"#utility.yul\":6554:6572   */\n      add\n        /* \"#utility.yul\":6546:6572   */\n      swap1\n      pop\n        /* \"#utility.yul\":6618:6627   */\n      dup2\n        /* \"#utility.yul\":6612:6616   */\n      dup2\n        /* \"#utility.yul\":6608:6628   */\n      sub\n        /* \"#utility.yul\":6604:6605   */\n      0x00\n        /* \"#utility.yul\":6593:6602   */\n      dup4\n        /* \"#utility.yul\":6589:6606   */\n      add\n        /* \"#utility.yul\":6582:6629   */\n      mstore\n        /* \"#utility.yul\":6646:6777   */\n      tag_123\n        /* \"#utility.yul\":6772:6776   */\n      dup2\n        /* \"#utility.yul\":6646:6777   */\n      tag_73\n      jump\t// in\n    tag_123:\n        /* \"#utility.yul\":6638:6777   */\n      swap1\n      pop\n        /* \"#utility.yul\":6365:6784   */\n      swap2\n      swap1\n      pop\n      jump\t// out\n        /* \"#utility.yul\":6790:7036   */\n    tag_74:\n        /* \"#utility.yul\":6930:6964   */\n      0x3320457468657265756d20686173206265656e2072656365697665642c206e6f\n        /* \"#utility.yul\":6926:6927   */\n      0x00\n        /* \"#utility.yul\":6918:6924   */\n      dup3\n        /* \"#utility.yul\":6914:6928   */\n      add\n        /* \"#utility.yul\":6907:6965   */\n      mstore\n        /* \"#utility.yul\":6999:7028   */\n      0x206d6f7265206465706f73697473206172652061636365707465640000000000\n        /* \"#utility.yul\":6994:6996   */\n      0x20\n        /* \"#utility.yul\":6986:6992   */\n      dup3\n        /* \"#utility.yul\":6982:6997   */\n      add\n        /* \"#utility.yul\":6975:7029   */\n      mstore\n        /* \"#utility.yul\":6790:7036   */\n      pop\n      jump\t// out\n        /* \"#utility.yul\":7042:7408   */\n    tag_75:\n        /* \"#utility.yul\":7184:7187   */\n      0x00\n        /* \"#utility.yul\":7205:7272   */\n      tag_126\n        /* \"#utility.yul\":7269:7271   */\n      0x3b\n        /* \"#utility.yul\":7264:7267   */\n      dup4\n        /* \"#utility.yul\":7205:7272   */\n      tag_60\n      jump\t// in\n    tag_126:\n        /* \"#utility.yul\":7198:7272   */\n      swap2\n      pop\n        /* \"#utility.yul\":7281:7374   */\n      tag_127\n        /* \"#utility.yul\":7370:7373   */\n      dup3\n        /* \"#utility.yul\":7281:7374   */\n      tag_74\n      jump\t// in\n    tag_127:\n        /* \"#utility.yul\":7399:7401   */\n      0x40\n        /* \"#utility.yul\":7394:7397   */\n      dup3\n        /* \"#utility.yul\":7390:7402   */\n      add\n        /* \"#utility.yul\":7383:7402   */\n      swap1\n      pop\n        /* \"#utility.yul\":7042:7408   */\n      swap2\n      swap1\n      pop\n      jump\t// out\n        /* \"#utility.yul\":7414:7833   */\n    tag_41:\n        /* \"#utility.yul\":7580:7584   */\n      0x00\n        /* \"#utility.yul\":7618:7620   */\n      0x20\n        /* \"#utility.yul\":7607:7616   */\n      dup3\n        /* \"#utility.yul\":7603:7621   */\n      add\n        /* \"#utility.yul\":7595:7621   */\n      swap1\n      pop\n        /* \"#utility.yul\":7667:7676   */\n      dup2\n        /* \"#utility.yul\":7661:7665   */\n      dup2\n        /* \"#utility.yul\":7657:7677   */\n      sub\n        /* \"#utility.yul\":7653:7654   */\n      0x00\n        /* \"#utility.yul\":7642:7651   */\n      dup4\n        /* \"#utility.yul\":7638:7655   */\n      add\n        /* \"#utility.yul\":7631:7678   */\n      mstore\n        /* \"#utility.yul\":7695:7826   */\n      tag_129\n        /* \"#utility.yul\":7821:7825   */\n      dup2\n        /* \"#utility.yul\":7695:7826   */\n      tag_75\n      jump\t// in\n    tag_129:\n        /* \"#utility.yul\":7687:7826   */\n      swap1\n      pop\n        /* \"#utility.yul\":7414:7833   */\n      swap2\n      swap1\n      pop\n      jump\t// out\n        /* \"#utility.yul\":7839:8066   */\n    tag_76:\n        /* \"#utility.yul\":7979:8013   */\n      0x596f7520617265206e6f74206f6e65206f66207468652076616c696420646570\n        /* \"#utility.yul\":7975:7976   */\n      0x00\n        /* \"#utility.yul\":7967:7973   */\n      dup3\n        /* \"#utility.yul\":7963:7977   */\n      add\n        /* \"#utility.yul\":7956:8014   */\n      mstore\n        /* \"#utility.yul\":8048:8058   */\n      0x6f7369746f72732e000000000000000000000000000000000000000000000000\n        /* \"#utility.yul\":8043:8045   */\n      0x20\n        /* \"#utility.yul\":8035:8041   */\n      dup3\n        /* \"#utility.yul\":8031:8046   */\n      add\n        /* \"#utility.yul\":8024:8059   */\n      mstore\n        /* \"#utility.yul\":7839:8066   */\n      pop\n      jump\t// out\n        /* \"#utility.yul\":8072:8438   */\n    tag_77:\n        /* \"#utility.yul\":8214:8217   */\n      0x00\n        /* \"#utility.yul\":8235:8302   */\n      tag_132\n        /* \"#utility.yul\":8299:8301   */\n      0x28\n        /* \"#utility.yul\":8294:8297   */\n      dup4\n        /* \"#utility.yul\":8235:8302   */\n      tag_60\n      jump\t// in\n    tag_132:\n        /* \"#utility.yul\":8228:8302   */\n      swap2\n      pop\n        /* \"#utility.yul\":8311:8404   */\n      tag_133\n        /* \"#utility.yul\":8400:8403   */\n      dup3\n        /* \"#utility.yul\":8311:8404   */\n      tag_76\n      jump\t// in\n    tag_133:\n        /* \"#utility.yul\":8429:8431   */\n      0x40\n        /* \"#utility.yul\":8424:8427   */\n      dup3\n        /* \"#utility.yul\":8420:8432   */\n      add\n        /* \"#utility.yul\":8413:8432   */\n      swap1\n      pop\n        /* \"#utility.yul\":8072:8438   */\n      swap2\n      swap1\n      pop\n      jump\t// out\n        /* \"#utility.yul\":8444:8863   */\n    tag_52:\n        /* \"#utility.yul\":8610:8614   */\n      0x00\n        /* \"#utility.yul\":8648:8650   */\n      0x20\n        /* \"#utility.yul\":8637:8646   */\n      dup3\n        /* \"#utility.yul\":8633:8651   */\n      add\n        /* \"#utility.yul\":8625:8651   */\n      swap1\n      pop\n        /* \"#utility.yul\":8697:8706   */\n      dup2\n        /* \"#utility.yul\":8691:8695   */\n      dup2\n        /* \"#utility.yul\":8687:8707   */\n      sub\n        /* \"#utility.yul\":8683:8684   */\n      0x00\n        /* \"#utility.yul\":8672:8681   */\n      dup4\n        /* \"#utility.yul\":8668:8685   */\n      add\n        /* \"#utility.yul\":8661:8708   */\n      mstore\n        /* \"#utility.yul\":8725:8856   */\n      tag_135\n        /* \"#utility.yul\":8851:8855   */\n      dup2\n        /* \"#utility.yul\":8725:8856   */\n      tag_77\n      jump\t// in\n    tag_135:\n        /* \"#utility.yul\":8717:8856   */\n      swap1\n      pop\n        /* \"#utility.yul\":8444:8863   */\n      swap2\n      swap1\n      pop\n      jump\t// out\n\n    auxdata: 0xa2646970667358221220d63c36e7b3bb96362bb3797b0fc26a295b31b8c6f650e7fdba1ce2511fe844d064736f6c63430008110033\n}\n",
				"bytecode": {
					"linkReferences": {},
					"object": "608060405234801561001057600080fd5b50336000806101000a81548173ffffffffffffffffffffffffffffffffffffffff021916908373ffffffffffffffffffffffffffffffffffffffff160217905550610bfa806100606000396000f3fe6080604052600436106100345760003560e01c80633ccfd60b1461003957806383197ef014610050578063d0e30db014610067575b600080fd5b34801561004557600080fd5b5061004e610071565b005b34801561005c57600080fd5b5061006561020b565b005b61006f610328565b005b6729a2241af62c000060055460045461008a9190610761565b10156100cb576040517f08c379a00000000000000000000000000000000000000000000000000000000081526004016100c290610818565b60405180910390fd5b600360009054906101000a900473ffffffffffffffffffffffffffffffffffffffff1673ffffffffffffffffffffffffffffffffffffffff163373ffffffffffffffffffffffffffffffffffffffff161461015b576040517f08c379a0000000000000000000000000000000000000000000000000000000008152600401610152906108aa565b60405180910390fd5b600360009054906101000a900473ffffffffffffffffffffffffffffffffffffffff1673ffffffffffffffffffffffffffffffffffffffff166729a2241af62c00006040516101a9906108fb565b60006040518083038185875af1925050503d80600081146101e6576040519150601f19603f3d011682016040523d82523d6000602084013e6101eb565b606091505b5050506001600660006101000a81548160ff021916908315150217905550565b60008054906101000a900473ffffffffffffffffffffffffffffffffffffffff1673ffffffffffffffffffffffffffffffffffffffff163373ffffffffffffffffffffffffffffffffffffffff1614610299576040517f08c379a00000000000000000000000000000000000000000000000000000000081526004016102909061095c565b60405180910390fd5b60011515600660009054906101000a900460ff161515146102ef576040517f08c379a00000000000000000000000000000000000000000000000000000000081526004016102e6906109ee565b60405180910390fd5b60008054906101000a900473ffffffffffffffffffffffffffffffffffffffff1673ffffffffffffffffffffffffffffffffffffffff16ff5b670de0b6b3a76400003414610372576040517f08c379a000000000000000000000000000000000000000000000000000000000815260040161036990610a80565b60405180910390fd5b6729a2241af62c000060055460045461038b9190610761565b106103cb576040517f08c379a00000000000000000000000000000000000000000000000000000000081526004016103c290610b12565b60405180910390fd5b600073ffffffffffffffffffffffffffffffffffffffff16600160009054906101000a900473ffffffffffffffffffffffffffffffffffffffff1673ffffffffffffffffffffffffffffffffffffffff16036104675733600160006101000a81548173ffffffffffffffffffffffffffffffffffffffff021916908373ffffffffffffffffffffffffffffffffffffffff160217905550610500565b600073ffffffffffffffffffffffffffffffffffffffff16600260009054906101000a900473ffffffffffffffffffffffffffffffffffffffff1673ffffffffffffffffffffffffffffffffffffffff16036104ff5733600260006101000a81548173ffffffffffffffffffffffffffffffffffffffff021916908373ffffffffffffffffffffffffffffffffffffffff1602179055505b5b600160009054906101000a900473ffffffffffffffffffffffffffffffffffffffff1673ffffffffffffffffffffffffffffffffffffffff163373ffffffffffffffffffffffffffffffffffffffff16036105735734600460008282546105679190610761565b92505081905550610622565b600260009054906101000a900473ffffffffffffffffffffffffffffffffffffffff1673ffffffffffffffffffffffffffffffffffffffff163373ffffffffffffffffffffffffffffffffffffffff16036105e65734600560008282546105da9190610761565b92505081905550610621565b6040517f08c379a000000000000000000000000000000000000000000000000000000000815260040161061890610ba4565b60405180910390fd5b5b6729a2241af62c000060055460045461063b9190610761565b106107265760055460045411156106b457600160009054906101000a900473ffffffffffffffffffffffffffffffffffffffff16600360006101000a81548173ffffffffffffffffffffffffffffffffffffffff021916908373ffffffffffffffffffffffffffffffffffffffff160217905550610725565b600454600554111561072457600260009054906101000a900473ffffffffffffffffffffffffffffffffffffffff16600360006101000a81548173ffffffffffffffffffffffffffffffffffffffff021916908373ffffffffffffffffffffffffffffffffffffffff1602179055505b5b5b565b6000819050919050565b7f4e487b7100000000000000000000000000000000000000000000000000000000600052601160045260246000fd5b600061076c82610728565b915061077783610728565b925082820190508082111561078f5761078e610732565b5b92915050565b600082825260208201905092915050565b7f3320657468657220686173206e6f7420796574206265656e207265636569766560008201527f6400000000000000000000000000000000000000000000000000000000000000602082015250565b6000610802602183610795565b915061080d826107a6565b604082019050919050565b60006020820190508181036000830152610831816107f5565b9050919050565b7f796f7520646964206e6f74206465706f73697420746865206d6f73742065746860008201527f6572000000000000000000000000000000000000000000000000000000000000602082015250565b6000610894602283610795565b915061089f82610838565b604082019050919050565b600060208201905081810360008301526108c381610887565b9050919050565b600081905092915050565b50565b60006108e56000836108ca565b91506108f0826108d5565b600082019050919050565b6000610906826108d8565b9150819050919050565b7f796f7520617265206e6f7420746865206f776e65720000000000000000000000600082015250565b6000610946601583610795565b915061095182610910565b602082019050919050565b6000602082019050818103600083015261097581610939565b9050919050565b7f6d6178206465706f7369746f7220686173206e6f74207965742077697468647260008201527f65772074686569722066756e6473000000000000000000000000000000000000602082015250565b60006109d8602e83610795565b91506109e38261097c565b604082019050919050565b60006020820190508181036000830152610a07816109cb565b9050919050565b7f796f752063616e206f6e6c792073656e642065786163746c792031206574686560008201527f7200000000000000000000000000000000000000000000000000000000000000602082015250565b6000610a6a602183610795565b9150610a7582610a0e565b604082019050919050565b60006020820190508181036000830152610a9981610a5d565b9050919050565b7f3320457468657265756d20686173206265656e2072656365697665642c206e6f60008201527f206d6f7265206465706f73697473206172652061636365707465640000000000602082015250565b6000610afc603b83610795565b9150610b0782610aa0565b604082019050919050565b60006020820190508181036000830152610b2b81610aef565b9050919050565b7f596f7520617265206e6f74206f6e65206f66207468652076616c69642064657060008201527f6f7369746f72732e000000000000000000000000000000000000000000000000602082015250565b6000610b8e602883610795565b9150610b9982610b32565b604082019050919050565b60006020820190508181036000830152610bbd81610b81565b905091905056fea2646970667358221220d63c36e7b3bb96362bb3797b0fc26a295b31b8c6f650e7fdba1ce2511fe844d064736f6c63430008110033",
					"opcodes": "PUSH1 0x80 PUSH1 0x40 MSTORE CALLVALUE DUP1 ISZERO PUSH2 0x10 JUMPI PUSH1 0x0 DUP1 REVERT JUMPDEST POP CALLER PUSH1 0x0 DUP1 PUSH2 0x100 EXP DUP2 SLOAD DUP2 PUSH20 0xFFFFFFFFFFFFFFFFFFFFFFFFFFFFFFFFFFFFFFFF MUL NOT AND SWAP1 DUP4 PUSH20 0xFFFFFFFFFFFFFFFFFFFFFFFFFFFFFFFFFFFFFFFF AND MUL OR SWAP1 SSTORE POP PUSH2 0xBFA DUP1 PUSH2 0x60 PUSH1 0x0 CODECOPY PUSH1 0x0 RETURN INVALID PUSH1 0x80 PUSH1 0x40 MSTORE PUSH1 0x4 CALLDATASIZE LT PUSH2 0x34 JUMPI PUSH1 0x0 CALLDATALOAD PUSH1 0xE0 SHR DUP1 PUSH4 0x3CCFD60B EQ PUSH2 0x39 JUMPI DUP1 PUSH4 0x83197EF0 EQ PUSH2 0x50 JUMPI DUP1 PUSH4 0xD0E30DB0 EQ PUSH2 0x67 JUMPI JUMPDEST PUSH1 0x0 DUP1 REVERT JUMPDEST CALLVALUE DUP1 ISZERO PUSH2 0x45 JUMPI PUSH1 0x0 DUP1 REVERT JUMPDEST POP PUSH2 0x4E PUSH2 0x71 JUMP JUMPDEST STOP JUMPDEST CALLVALUE DUP1 ISZERO PUSH2 0x5C JUMPI PUSH1 0x0 DUP1 REVERT JUMPDEST POP PUSH2 0x65 PUSH2 0x20B JUMP JUMPDEST STOP JUMPDEST PUSH2 0x6F PUSH2 0x328 JUMP JUMPDEST STOP JUMPDEST PUSH8 0x29A2241AF62C0000 PUSH1 0x5 SLOAD PUSH1 0x4 SLOAD PUSH2 0x8A SWAP2 SWAP1 PUSH2 0x761 JUMP JUMPDEST LT ISZERO PUSH2 0xCB JUMPI PUSH1 0x40 MLOAD PUSH32 0x8C379A000000000000000000000000000000000000000000000000000000000 DUP2 MSTORE PUSH1 0x4 ADD PUSH2 0xC2 SWAP1 PUSH2 0x818 JUMP JUMPDEST PUSH1 0x40 MLOAD DUP1 SWAP2 SUB SWAP1 REVERT JUMPDEST PUSH1 0x3 PUSH1 0x0 SWAP1 SLOAD SWAP1 PUSH2 0x100 EXP SWAP1 DIV PUSH20 0xFFFFFFFFFFFFFFFFFFFFFFFFFFFFFFFFFFFFFFFF AND PUSH20 0xFFFFFFFFFFFFFFFFFFFFFFFFFFFFFFFFFFFFFFFF AND CALLER PUSH20 0xFFFFFFFFFFFFFFFFFFFFFFFFFFFFFFFFFFFFFFFF AND EQ PUSH2 0x15B JUMPI PUSH1 0x40 MLOAD PUSH32 0x8C379A000000000000000000000000000000000000000000000000000000000 DUP2 MSTORE PUSH1 0x4 ADD PUSH2 0x152 SWAP1 PUSH2 0x8AA JUMP JUMPDEST PUSH1 0x40 MLOAD DUP1 SWAP2 SUB SWAP1 REVERT JUMPDEST PUSH1 0x3 PUSH1 0x0 SWAP1 SLOAD SWAP1 PUSH2 0x100 EXP SWAP1 DIV PUSH20 0xFFFFFFFFFFFFFFFFFFFFFFFFFFFFFFFFFFFFFFFF AND PUSH20 0xFFFFFFFFFFFFFFFFFFFFFFFFFFFFFFFFFFFFFFFF AND PUSH8 0x29A2241AF62C0000 PUSH1 0x40 MLOAD PUSH2 0x1A9 SWAP1 PUSH2 0x8FB JUMP JUMPDEST PUSH1 0x0 PUSH1 0x40 MLOAD DUP1 DUP4 SUB DUP2 DUP6 DUP8 GAS CALL SWAP3 POP POP POP RETURNDATASIZE DUP1 PUSH1 0x0 DUP2 EQ PUSH2 0x1E6 JUMPI PUSH1 0x40 MLOAD SWAP2 POP PUSH1 0x1F NOT PUSH1 0x3F RETURNDATASIZE ADD AND DUP3 ADD PUSH1 0x40 MSTORE RETURNDATASIZE DUP3 MSTORE RETURNDATASIZE PUSH1 0x0 PUSH1 0x20 DUP5 ADD RETURNDATACOPY PUSH2 0x1EB JUMP JUMPDEST PUSH1 0x60 SWAP2 POP JUMPDEST POP POP POP PUSH1 0x1 PUSH1 0x6 PUSH1 0x0 PUSH2 0x100 EXP DUP2 SLOAD DUP2 PUSH1 0xFF MUL NOT AND SWAP1 DUP4 ISZERO ISZERO MUL OR SWAP1 SSTORE POP JUMP JUMPDEST PUSH1 0x0 DUP1 SLOAD SWAP1 PUSH2 0x100 EXP SWAP1 DIV PUSH20 0xFFFFFFFFFFFFFFFFFFFFFFFFFFFFFFFFFFFFFFFF AND PUSH20 0xFFFFFFFFFFFFFFFFFFFFFFFFFFFFFFFFFFFFFFFF AND CALLER PUSH20 0xFFFFFFFFFFFFFFFFFFFFFFFFFFFFFFFFFFFFFFFF AND EQ PUSH2 0x299 JUMPI PUSH1 0x40 MLOAD PUSH32 0x8C379A000000000000000000000000000000000000000000000000000000000 DUP2 MSTORE PUSH1 0x4 ADD PUSH2 0x290 SWAP1 PUSH2 0x95C JUMP JUMPDEST PUSH1 0x40 MLOAD DUP1 SWAP2 SUB SWAP1 REVERT JUMPDEST PUSH1 0x1 ISZERO ISZERO PUSH1 0x6 PUSH1 0x0 SWAP1 SLOAD SWAP1 PUSH2 0x100 EXP SWAP1 DIV PUSH1 0xFF AND ISZERO ISZERO EQ PUSH2 0x2EF JUMPI PUSH1 0x40 MLOAD PUSH32 0x8C379A000000000000000000000000000000000000000000000000000000000 DUP2 MSTORE PUSH1 0x4 ADD PUSH2 0x2E6 SWAP1 PUSH2 0x9EE JUMP JUMPDEST PUSH1 0x40 MLOAD DUP1 SWAP2 SUB SWAP1 REVERT JUMPDEST PUSH1 0x0 DUP1 SLOAD SWAP1 PUSH2 0x100 EXP SWAP1 DIV PUSH20 0xFFFFFFFFFFFFFFFFFFFFFFFFFFFFFFFFFFFFFFFF AND PUSH20 0xFFFFFFFFFFFFFFFFFFFFFFFFFFFFFFFFFFFFFFFF AND SELFDESTRUCT JUMPDEST PUSH8 0xDE0B6B3A7640000 CALLVALUE EQ PUSH2 0x372 JUMPI PUSH1 0x40 MLOAD PUSH32 0x8C379A000000000000000000000000000000000000000000000000000000000 DUP2 MSTORE PUSH1 0x4 ADD PUSH2 0x369 SWAP1 PUSH2 0xA80 JUMP JUMPDEST PUSH1 0x40 MLOAD DUP1 SWAP2 SUB SWAP1 REVERT JUMPDEST PUSH8 0x29A2241AF62C0000 PUSH1 0x5 SLOAD PUSH1 0x4 SLOAD PUSH2 0x38B SWAP2 SWAP1 PUSH2 0x761 JUMP JUMPDEST LT PUSH2 0x3CB JUMPI PUSH1 0x40 MLOAD PUSH32 0x8C379A000000000000000000000000000000000000000000000000000000000 DUP2 MSTORE PUSH1 0x4 ADD PUSH2 0x3C2 SWAP1 PUSH2 0xB12 JUMP JUMPDEST PUSH1 0x40 MLOAD DUP1 SWAP2 SUB SWAP1 REVERT JUMPDEST PUSH1 0x0 PUSH20 0xFFFFFFFFFFFFFFFFFFFFFFFFFFFFFFFFFFFFFFFF AND PUSH1 0x1 PUSH1 0x0 SWAP1 SLOAD SWAP1 PUSH2 0x100 EXP SWAP1 DIV PUSH20 0xFFFFFFFFFFFFFFFFFFFFFFFFFFFFFFFFFFFFFFFF AND PUSH20 0xFFFFFFFFFFFFFFFFFFFFFFFFFFFFFFFFFFFFFFFF AND SUB PUSH2 0x467 JUMPI CALLER PUSH1 0x1 PUSH1 0x0 PUSH2 0x100 EXP DUP2 SLOAD DUP2 PUSH20 0xFFFFFFFFFFFFFFFFFFFFFFFFFFFFFFFFFFFFFFFF MUL NOT AND SWAP1 DUP4 PUSH20 0xFFFFFFFFFFFFFFFFFFFFFFFFFFFFFFFFFFFFFFFF AND MUL OR SWAP1 SSTORE POP PUSH2 0x500 JUMP JUMPDEST PUSH1 0x0 PUSH20 0xFFFFFFFFFFFFFFFFFFFFFFFFFFFFFFFFFFFFFFFF AND PUSH1 0x2 PUSH1 0x0 SWAP1 SLOAD SWAP1 PUSH2 0x100 EXP SWAP1 DIV PUSH20 0xFFFFFFFFFFFFFFFFFFFFFFFFFFFFFFFFFFFFFFFF AND PUSH20 0xFFFFFFFFFFFFFFFFFFFFFFFFFFFFFFFFFFFFFFFF AND SUB PUSH2 0x4FF JUMPI CALLER PUSH1 0x2 PUSH1 0x0 PUSH2 0x100 EXP DUP2 SLOAD DUP2 PUSH20 0xFFFFFFFFFFFFFFFFFFFFFFFFFFFFFFFFFFFFFFFF MUL NOT AND SWAP1 DUP4 PUSH20 0xFFFFFFFFFFFFFFFFFFFFFFFFFFFFFFFFFFFFFFFF AND MUL OR SWAP1 SSTORE POP JUMPDEST JUMPDEST PUSH1 0x1 PUSH1 0x0 SWAP1 SLOAD SWAP1 PUSH2 0x100 EXP SWAP1 DIV PUSH20 0xFFFFFFFFFFFFFFFFFFFFFFFFFFFFFFFFFFFFFFFF AND PUSH20 0xFFFFFFFFFFFFFFFFFFFFFFFFFFFFFFFFFFFFFFFF AND CALLER PUSH20 0xFFFFFFFFFFFFFFFFFFFFFFFFFFFFFFFFFFFFFFFF AND SUB PUSH2 0x573 JUMPI CALLVALUE PUSH1 0x4 PUSH1 0x0 DUP3 DUP3 SLOAD PUSH2 0x567 SWAP2 SWAP1 PUSH2 0x761 JUMP JUMPDEST SWAP3 POP POP DUP2 SWAP1 SSTORE POP PUSH2 0x622 JUMP JUMPDEST PUSH1 0x2 PUSH1 0x0 SWAP1 SLOAD SWAP1 PUSH2 0x100 EXP SWAP1 DIV PUSH20 0xFFFFFFFFFFFFFFFFFFFFFFFFFFFFFFFFFFFFFFFF AND PUSH20 0xFFFFFFFFFFFFFFFFFFFFFFFFFFFFFFFFFFFFFFFF AND CALLER PUSH20 0xFFFFFFFFFFFFFFFFFFFFFFFFFFFFFFFFFFFFFFFF AND SUB PUSH2 0x5E6 JUMPI CALLVALUE PUSH1 0x5 PUSH1 0x0 DUP3 DUP3 SLOAD PUSH2 0x5DA SWAP2 SWAP1 PUSH2 0x761 JUMP JUMPDEST SWAP3 POP POP DUP2 SWAP1 SSTORE POP PUSH2 0x621 JUMP JUMPDEST PUSH1 0x40 MLOAD PUSH32 0x8C379A000000000000000000000000000000000000000000000000000000000 DUP2 MSTORE PUSH1 0x4 ADD PUSH2 0x618 SWAP1 PUSH2 0xBA4 JUMP JUMPDEST PUSH1 0x40 MLOAD DUP1 SWAP2 SUB SWAP1 REVERT JUMPDEST JUMPDEST PUSH8 0x29A2241AF62C0000 PUSH1 0x5 SLOAD PUSH1 0x4 SLOAD PUSH2 0x63B SWAP2 SWAP1 PUSH2 0x761 JUMP JUMPDEST LT PUSH2 0x726 JUMPI PUSH1 0x5 SLOAD PUSH1 0x4 SLOAD GT ISZERO PUSH2 0x6B4 JUMPI PUSH1 0x1 PUSH1 0x0 SWAP1 SLOAD SWAP1 PUSH2 0x100 EXP SWAP1 DIV PUSH20 0xFFFFFFFFFFFFFFFFFFFFFFFFFFFFFFFFFFFFFFFF AND PUSH1 0x3 PUSH1 0x0 PUSH2 0x100 EXP DUP2 SLOAD DUP2 PUSH20 0xFFFFFFFFFFFFFFFFFFFFFFFFFFFFFFFFFFFFFFFF MUL NOT AND SWAP1 DUP4 PUSH20 0xFFFFFFFFFFFFFFFFFFFFFFFFFFFFFFFFFFFFFFFF AND MUL OR SWAP1 SSTORE POP PUSH2 0x725 JUMP JUMPDEST PUSH1 0x4 SLOAD PUSH1 0x5 SLOAD GT ISZERO PUSH2 0x724 JUMPI PUSH1 0x2 PUSH1 0x0 SWAP1 SLOAD SWAP1 PUSH2 0x100 EXP SWAP1 DIV PUSH20 0xFFFFFFFFFFFFFFFFFFFFFFFFFFFFFFFFFFFFFFFF AND PUSH1 0x3 PUSH1 0x0 PUSH2 0x100 EXP DUP2 SLOAD DUP2 PUSH20 0xFFFFFFFFFFFFFFFFFFFFFFFFFFFFFFFFFFFFFFFF MUL NOT AND SWAP1 DUP4 PUSH20 0xFFFFFFFFFFFFFFFFFFFFFFFFFFFFFFFFFFFFFFFF AND MUL OR SWAP1 SSTORE POP JUMPDEST JUMPDEST JUMPDEST JUMP JUMPDEST PUSH1 0x0 DUP2 SWAP1 POP SWAP2 SWAP1 POP JUMP JUMPDEST PUSH32 0x4E487B7100000000000000000000000000000000000000000000000000000000 PUSH1 0x0 MSTORE PUSH1 0x11 PUSH1 0x4 MSTORE PUSH1 0x24 PUSH1 0x0 REVERT JUMPDEST PUSH1 0x0 PUSH2 0x76C DUP3 PUSH2 0x728 JUMP JUMPDEST SWAP2 POP PUSH2 0x777 DUP4 PUSH2 0x728 JUMP JUMPDEST SWAP3 POP DUP3 DUP3 ADD SWAP1 POP DUP1 DUP3 GT ISZERO PUSH2 0x78F JUMPI PUSH2 0x78E PUSH2 0x732 JUMP JUMPDEST JUMPDEST SWAP3 SWAP2 POP POP JUMP JUMPDEST PUSH1 0x0 DUP3 DUP3 MSTORE PUSH1 0x20 DUP3 ADD SWAP1 POP SWAP3 SWAP2 POP POP JUMP JUMPDEST PUSH32 0x3320657468657220686173206E6F7420796574206265656E2072656365697665 PUSH1 0x0 DUP3 ADD MSTORE PUSH32 0x6400000000000000000000000000000000000000000000000000000000000000 PUSH1 0x20 DUP3 ADD MSTORE POP JUMP JUMPDEST PUSH1 0x0 PUSH2 0x802 PUSH1 0x21 DUP4 PUSH2 0x795 JUMP JUMPDEST SWAP2 POP PUSH2 0x80D DUP3 PUSH2 0x7A6 JUMP JUMPDEST PUSH1 0x40 DUP3 ADD SWAP1 POP SWAP2 SWAP1 POP JUMP JUMPDEST PUSH1 0x0 PUSH1 0x20 DUP3 ADD SWAP1 POP DUP2 DUP2 SUB PUSH1 0x0 DUP4 ADD MSTORE PUSH2 0x831 DUP2 PUSH2 0x7F5 JUMP JUMPDEST SWAP1 POP SWAP2 SWAP1 POP JUMP JUMPDEST PUSH32 0x796F7520646964206E6F74206465706F73697420746865206D6F737420657468 PUSH1 0x0 DUP3 ADD MSTORE PUSH32 0x6572000000000000000000000000000000000000000000000000000000000000 PUSH1 0x20 DUP3 ADD MSTORE POP JUMP JUMPDEST PUSH1 0x0 PUSH2 0x894 PUSH1 0x22 DUP4 PUSH2 0x795 JUMP JUMPDEST SWAP2 POP PUSH2 0x89F DUP3 PUSH2 0x838 JUMP JUMPDEST PUSH1 0x40 DUP3 ADD SWAP1 POP SWAP2 SWAP1 POP JUMP JUMPDEST PUSH1 0x0 PUSH1 0x20 DUP3 ADD SWAP1 POP DUP2 DUP2 SUB PUSH1 0x0 DUP4 ADD MSTORE PUSH2 0x8C3 DUP2 PUSH2 0x887 JUMP JUMPDEST SWAP1 POP SWAP2 SWAP1 POP JUMP JUMPDEST PUSH1 0x0 DUP2 SWAP1 POP SWAP3 SWAP2 POP POP JUMP JUMPDEST POP JUMP JUMPDEST PUSH1 0x0 PUSH2 0x8E5 PUSH1 0x0 DUP4 PUSH2 0x8CA JUMP JUMPDEST SWAP2 POP PUSH2 0x8F0 DUP3 PUSH2 0x8D5 JUMP JUMPDEST PUSH1 0x0 DUP3 ADD SWAP1 POP SWAP2 SWAP1 POP JUMP JUMPDEST PUSH1 0x0 PUSH2 0x906 DUP3 PUSH2 0x8D8 JUMP JUMPDEST SWAP2 POP DUP2 SWAP1 POP SWAP2 SWAP1 POP JUMP JUMPDEST PUSH32 0x796F7520617265206E6F7420746865206F776E65720000000000000000000000 PUSH1 0x0 DUP3 ADD MSTORE POP JUMP JUMPDEST PUSH1 0x0 PUSH2 0x946 PUSH1 0x15 DUP4 PUSH2 0x795 JUMP JUMPDEST SWAP2 POP PUSH2 0x951 DUP3 PUSH2 0x910 JUMP JUMPDEST PUSH1 0x20 DUP3 ADD SWAP1 POP SWAP2 SWAP1 POP JUMP JUMPDEST PUSH1 0x0 PUSH1 0x20 DUP3 ADD SWAP1 POP DUP2 DUP2 SUB PUSH1 0x0 DUP4 ADD MSTORE PUSH2 0x975 DUP2 PUSH2 0x939 JUMP JUMPDEST SWAP1 POP SWAP2 SWAP1 POP JUMP JUMPDEST PUSH32 0x6D6178206465706F7369746F7220686173206E6F742079657420776974686472 PUSH1 0x0 DUP3 ADD MSTORE PUSH32 0x65772074686569722066756E6473000000000000000000000000000000000000 PUSH1 0x20 DUP3 ADD MSTORE POP JUMP JUMPDEST PUSH1 0x0 PUSH2 0x9D8 PUSH1 0x2E DUP4 PUSH2 0x795 JUMP JUMPDEST SWAP2 POP PUSH2 0x9E3 DUP3 PUSH2 0x97C JUMP JUMPDEST PUSH1 0x40 DUP3 ADD SWAP1 POP SWAP2 SWAP1 POP JUMP JUMPDEST PUSH1 0x0 PUSH1 0x20 DUP3 ADD SWAP1 POP DUP2 DUP2 SUB PUSH1 0x0 DUP4 ADD MSTORE PUSH2 0xA07 DUP2 PUSH2 0x9CB JUMP JUMPDEST SWAP1 POP SWAP2 SWAP1 POP JUMP JUMPDEST PUSH32 0x796F752063616E206F6E6C792073656E642065786163746C7920312065746865 PUSH1 0x0 DUP3 ADD MSTORE PUSH32 0x7200000000000000000000000000000000000000000000000000000000000000 PUSH1 0x20 DUP3 ADD MSTORE POP JUMP JUMPDEST PUSH1 0x0 PUSH2 0xA6A PUSH1 0x21 DUP4 PUSH2 0x795 JUMP JUMPDEST SWAP2 POP PUSH2 0xA75 DUP3 PUSH2 0xA0E JUMP JUMPDEST PUSH1 0x40 DUP3 ADD SWAP1 POP SWAP2 SWAP1 POP JUMP JUMPDEST PUSH1 0x0 PUSH1 0x20 DUP3 ADD SWAP1 POP DUP2 DUP2 SUB PUSH1 0x0 DUP4 ADD MSTORE PUSH2 0xA99 DUP2 PUSH2 0xA5D JUMP JUMPDEST SWAP1 POP SWAP2 SWAP1 POP JUMP JUMPDEST PUSH32 0x3320457468657265756D20686173206265656E2072656365697665642C206E6F PUSH1 0x0 DUP3 ADD MSTORE PUSH32 0x206D6F7265206465706F73697473206172652061636365707465640000000000 PUSH1 0x20 DUP3 ADD MSTORE POP JUMP JUMPDEST PUSH1 0x0 PUSH2 0xAFC PUSH1 0x3B DUP4 PUSH2 0x795 JUMP JUMPDEST SWAP2 POP PUSH2 0xB07 DUP3 PUSH2 0xAA0 JUMP JUMPDEST PUSH1 0x40 DUP3 ADD SWAP1 POP SWAP2 SWAP1 POP JUMP JUMPDEST PUSH1 0x0 PUSH1 0x20 DUP3 ADD SWAP1 POP DUP2 DUP2 SUB PUSH1 0x0 DUP4 ADD MSTORE PUSH2 0xB2B DUP2 PUSH2 0xAEF JUMP JUMPDEST SWAP1 POP SWAP2 SWAP1 POP JUMP JUMPDEST PUSH32 0x596F7520617265206E6F74206F6E65206F66207468652076616C696420646570 PUSH1 0x0 DUP3 ADD MSTORE PUSH32 0x6F7369746F72732E000000000000000000000000000000000000000000000000 PUSH1 0x20 DUP3 ADD MSTORE POP JUMP JUMPDEST PUSH1 0x0 PUSH2 0xB8E PUSH1 0x28 DUP4 PUSH2 0x795 JUMP JUMPDEST SWAP2 POP PUSH2 0xB99 DUP3 PUSH2 0xB32 JUMP JUMPDEST PUSH1 0x40 DUP3 ADD SWAP1 POP SWAP2 SWAP1 POP JUMP JUMPDEST PUSH1 0x0 PUSH1 0x20 DUP3 ADD SWAP1 POP DUP2 DUP2 SUB PUSH1 0x0 DUP4 ADD MSTORE PUSH2 0xBBD DUP2 PUSH2 0xB81 JUMP JUMPDEST SWAP1 POP SWAP2 SWAP1 POP JUMP INVALID LOG2 PUSH5 0x6970667358 0x22 SLT KECCAK256 0xD6 EXTCODECOPY CALLDATASIZE 0xE7 0xB3 0xBB SWAP7 CALLDATASIZE 0x2B 0xB3 PUSH26 0x7B0FC26A295B31B8C6F650E7FDBA1CE2511FE844D064736F6C63 NUMBER STOP ADDMOD GT STOP CALLER "
				},
				"gasEstimates": {
					"creation": {
						"codeDepositCost": "613200",
						"executionCost": "24911",
						"totalCost": "638111"
					},
					"external": {
						"deposit()": "infinite",
						"destroy()": "34215",
						"withdraw()": "infinite"
					}
				},
				"methodIdentifiers": {
					"deposit()": "d0e30db0",
					"destroy()": "83197ef0",
					"withdraw()": "3ccfd60b"
				}
			},
			"storageLayout": {
				"storage": [
					{
						"astId": 3,
						"contract": "contracts/Competitors.sol:Competitors",
						"label": "owner",
						"offset": 0,
						"slot": "0",
						"type": "t_address"
					},
					{
						"astId": 5,
						"contract": "contracts/Competitors.sol:Competitors",
						"label": "depositor1",
						"offset": 0,
						"slot": "1",
						"type": "t_address"
					},
					{
						"astId": 7,
						"contract": "contracts/Competitors.sol:Competitors",
						"label": "depositor2",
						"offset": 0,
						"slot": "2",
						"type": "t_address"
					},
					{
						"astId": 9,
						"contract": "contracts/Competitors.sol:Competitors",
						"label": "maxDepositor",
						"offset": 0,
						"slot": "3",
						"type": "t_address"
					},
					{
						"astId": 11,
						"contract": "contracts/Competitors.sol:Competitors",
						"label": "depositor1Deposited",
						"offset": 0,
						"slot": "4",
						"type": "t_uint256"
					},
					{
						"astId": 13,
						"contract": "contracts/Competitors.sol:Competitors",
						"label": "depositor2Deposited",
						"offset": 0,
						"slot": "5",
						"type": "t_uint256"
					},
					{
						"astId": 15,
						"contract": "contracts/Competitors.sol:Competitors",
						"label": "withdrew",
						"offset": 0,
						"slot": "6",
						"type": "t_bool"
					}
				],
				"types": {
					"t_address": {
						"encoding": "inplace",
						"label": "address",
						"numberOfBytes": "20"
					},
					"t_bool": {
						"encoding": "inplace",
						"label": "bool",
						"numberOfBytes": "1"
					},
					"t_uint256": {
						"encoding": "inplace",
						"label": "uint256",
						"numberOfBytes": "32"
					}
				}
			},
			"userdoc": {
				"kind": "user",
				"methods": {},
				"version": 1
			}
		}
	}
}