{
	"contracts/Richest.sol": {
		"Richest": {
			"abi": [
				{
					"inputs": [],
					"name": "becomeRichest",
					"outputs": [
						{
							"internalType": "bool",
							"name": "",
							"type": "bool"
						}
					],
					"stateMutability": "payable",
					"type": "function"
				},
				{
					"inputs": [],
					"name": "getRichest",
					"outputs": [
						{
							"internalType": "address",
							"name": "",
							"type": "address"
						}
					],
					"stateMutability": "view",
					"type": "function"
				},
				{
					"inputs": [],
					"name": "withdraw",
					"outputs": [],
					"stateMutability": "nonpayable",
					"type": "function"
				}
			],
			"devdoc": {
				"kind": "dev",
				"methods": {},
				"version": 1
			},
			"evm": {
				"assembly": "    /* \"contracts/Richest.sol\":36:833  contract Richest {... */\n  mstore(0x40, 0x80)\n  callvalue\n  dup1\n  iszero\n  tag_1\n  jumpi\n  0x00\n  dup1\n  revert\ntag_1:\n  pop\n  dataSize(sub_0)\n  dup1\n  dataOffset(sub_0)\n  0x00\n  codecopy\n  0x00\n  return\nstop\n\nsub_0: assembly {\n        /* \"contracts/Richest.sol\":36:833  contract Richest {... */\n      mstore(0x40, 0x80)\n      jumpi(tag_1, lt(calldatasize, 0x04))\n      shr(0xe0, calldataload(0x00))\n      dup1\n      0x3ccfd60b\n      eq\n      tag_2\n      jumpi\n      dup1\n      0x69934ee7\n      eq\n      tag_3\n      jumpi\n      dup1\n      0x9a5dd735\n      eq\n      tag_4\n      jumpi\n    tag_1:\n      0x00\n      dup1\n      revert\n        /* \"contracts/Richest.sol\":430:740  function withdraw() external {... */\n    tag_2:\n      callvalue\n      dup1\n      iszero\n      tag_5\n      jumpi\n      0x00\n      dup1\n      revert\n    tag_5:\n      pop\n      tag_6\n      tag_7\n      jump\t// in\n    tag_6:\n      stop\n        /* \"contracts/Richest.sol\":156:424  function becomeRichest() external payable returns (bool) {... */\n    tag_3:\n      tag_8\n      tag_9\n      jump\t// in\n    tag_8:\n      mload(0x40)\n      tag_10\n      swap2\n      swap1\n      tag_11\n      jump\t// in\n    tag_10:\n      mload(0x40)\n      dup1\n      swap2\n      sub\n      swap1\n      return\n        /* \"contracts/Richest.sol\":746:831  function getRichest() public view returns (address) {... */\n    tag_4:\n      callvalue\n      dup1\n      iszero\n      tag_12\n      jumpi\n      0x00\n      dup1\n      revert\n    tag_12:\n      pop\n      tag_13\n      tag_14\n      jump\t// in\n    tag_13:\n      mload(0x40)\n      tag_15\n      swap2\n      swap1\n      tag_16\n      jump\t// in\n    tag_15:\n      mload(0x40)\n      dup1\n      swap2\n      sub\n      swap1\n      return\n        /* \"contracts/Richest.sol\":430:740  function withdraw() external {... */\n    tag_7:\n        /* \"contracts/Richest.sol\":469:483  uint256 amount */\n      0x00\n        /* \"contracts/Richest.sol\":486:504  pendingWithdrawals */\n      0x02\n        /* \"contracts/Richest.sol\":486:516  pendingWithdrawals[msg.sender] */\n      0x00\n        /* \"contracts/Richest.sol\":505:515  msg.sender */\n      caller\n        /* \"contracts/Richest.sol\":486:516  pendingWithdrawals[msg.sender] */\n      0xffffffffffffffffffffffffffffffffffffffff\n      and\n      0xffffffffffffffffffffffffffffffffffffffff\n      and\n      dup2\n      mstore\n      0x20\n      add\n      swap1\n      dup2\n      mstore\n      0x20\n      add\n      0x00\n      keccak256\n      sload\n        /* \"contracts/Richest.sol\":469:516  uint256 amount = pendingWithdrawals[msg.sender] */\n      swap1\n      pop\n        /* \"contracts/Richest.sol\":641:642  0 */\n      0x00\n        /* \"contracts/Richest.sol\":608:626  pendingWithdrawals */\n      0x02\n        /* \"contracts/Richest.sol\":608:638  pendingWithdrawals[msg.sender] */\n      0x00\n        /* \"contracts/Richest.sol\":627:637  msg.sender */\n      caller\n        /* \"contracts/Richest.sol\":608:638  pendingWithdrawals[msg.sender] */\n      0xffffffffffffffffffffffffffffffffffffffff\n      and\n      0xffffffffffffffffffffffffffffffffffffffff\n      and\n      dup2\n      mstore\n      0x20\n      add\n      swap1\n      dup2\n      mstore\n      0x20\n      add\n      0x00\n      keccak256\n        /* \"contracts/Richest.sol\":608:642  pendingWithdrawals[msg.sender] = 0 */\n      dup2\n      swap1\n      sstore\n      pop\n        /* \"contracts/Richest.sol\":653:662  bool sent */\n      0x00\n        /* \"contracts/Richest.sol\":675:685  msg.sender */\n      caller\n        /* \"contracts/Richest.sol\":667:691  payable(msg.sender).call */\n      0xffffffffffffffffffffffffffffffffffffffff\n      and\n        /* \"contracts/Richest.sol\":699:705  amount */\n      dup3\n        /* \"contracts/Richest.sol\":667:710  payable(msg.sender).call{value: amount}(\"\") */\n      mload(0x40)\n      tag_18\n      swap1\n      tag_19\n      jump\t// in\n    tag_18:\n      0x00\n      mload(0x40)\n      dup1\n      dup4\n      sub\n      dup2\n      dup6\n      dup8\n      gas\n      call\n      swap3\n      pop\n      pop\n      pop\n      returndatasize\n      dup1\n      0x00\n      dup2\n      eq\n      tag_22\n      jumpi\n      mload(0x40)\n      swap2\n      pop\n      and(add(returndatasize, 0x3f), not(0x1f))\n      dup3\n      add\n      0x40\n      mstore\n      returndatasize\n      dup3\n      mstore\n      returndatasize\n      0x00\n      0x20\n      dup5\n      add\n      returndatacopy\n      jump(tag_21)\n    tag_22:\n      0x60\n      swap2\n      pop\n    tag_21:\n      pop\n        /* \"contracts/Richest.sol\":652:710  (bool sent,) = payable(msg.sender).call{value: amount}(\"\") */\n      pop\n      swap1\n      pop\n        /* \"contracts/Richest.sol\":728:732  sent */\n      dup1\n        /* \"contracts/Richest.sol\":720:733  require(sent) */\n      tag_23\n      jumpi\n      0x00\n      dup1\n      revert\n    tag_23:\n        /* \"contracts/Richest.sol\":459:740  {... */\n      pop\n      pop\n        /* \"contracts/Richest.sol\":430:740  function withdraw() external {... */\n      jump\t// out\n        /* \"contracts/Richest.sol\":156:424  function becomeRichest() external payable returns (bool) {... */\n    tag_9:\n        /* \"contracts/Richest.sol\":207:211  bool */\n      0x00\n        /* \"contracts/Richest.sol\":240:248  mostSent */\n      sload(0x01)\n        /* \"contracts/Richest.sol\":227:236  msg.value */\n      callvalue\n        /* \"contracts/Richest.sol\":227:248  msg.value <= mostSent */\n      gt\n        /* \"contracts/Richest.sol\":223:287  if (msg.value <= mostSent) {... */\n      tag_25\n      jumpi\n        /* \"contracts/Richest.sol\":271:276  false */\n      0x00\n        /* \"contracts/Richest.sol\":264:276  return false */\n      swap1\n      pop\n      jump(tag_24)\n        /* \"contracts/Richest.sol\":223:287  if (msg.value <= mostSent) {... */\n    tag_25:\n        /* \"contracts/Richest.sol\":328:336  mostSent */\n      sload(0x01)\n        /* \"contracts/Richest.sol\":297:315  pendingWithdrawals */\n      0x02\n        /* \"contracts/Richest.sol\":297:324  pendingWithdrawals[richest] */\n      0x00\n        /* \"contracts/Richest.sol\":316:323  richest */\n      dup1\n      0x00\n      swap1\n      sload\n      swap1\n      0x0100\n      exp\n      swap1\n      div\n      0xffffffffffffffffffffffffffffffffffffffff\n      and\n        /* \"contracts/Richest.sol\":297:324  pendingWithdrawals[richest] */\n      0xffffffffffffffffffffffffffffffffffffffff\n      and\n      0xffffffffffffffffffffffffffffffffffffffff\n      and\n      dup2\n      mstore\n      0x20\n      add\n      swap1\n      dup2\n      mstore\n      0x20\n      add\n      0x00\n      keccak256\n      0x00\n        /* \"contracts/Richest.sol\":297:336  pendingWithdrawals[richest] += mostSent */\n      dup3\n      dup3\n      sload\n      tag_26\n      swap2\n      swap1\n      tag_27\n      jump\t// in\n    tag_26:\n      swap3\n      pop\n      pop\n      dup2\n      swap1\n      sstore\n      pop\n        /* \"contracts/Richest.sol\":356:366  msg.sender */\n      caller\n        /* \"contracts/Richest.sol\":346:353  richest */\n      0x00\n      dup1\n        /* \"contracts/Richest.sol\":346:366  richest = msg.sender */\n      0x0100\n      exp\n      dup2\n      sload\n      dup2\n      0xffffffffffffffffffffffffffffffffffffffff\n      mul\n      not\n      and\n      swap1\n      dup4\n      0xffffffffffffffffffffffffffffffffffffffff\n      and\n      mul\n      or\n      swap1\n      sstore\n      pop\n        /* \"contracts/Richest.sol\":387:396  msg.value */\n      callvalue\n        /* \"contracts/Richest.sol\":376:384  mostSent */\n      0x01\n        /* \"contracts/Richest.sol\":376:396  mostSent = msg.value */\n      dup2\n      swap1\n      sstore\n      pop\n        /* \"contracts/Richest.sol\":413:417  true */\n      0x01\n        /* \"contracts/Richest.sol\":406:417  return true */\n      swap1\n      pop\n        /* \"contracts/Richest.sol\":156:424  function becomeRichest() external payable returns (bool) {... */\n    tag_24:\n      swap1\n      jump\t// out\n        /* \"contracts/Richest.sol\":746:831  function getRichest() public view returns (address) {... */\n    tag_14:\n        /* \"contracts/Richest.sol\":789:796  address */\n      0x00\n        /* \"contracts/Richest.sol\":816:823  richest */\n      dup1\n      0x00\n      swap1\n      sload\n      swap1\n      0x0100\n      exp\n      swap1\n      div\n      0xffffffffffffffffffffffffffffffffffffffff\n      and\n        /* \"contracts/Richest.sol\":808:824  return (richest) */\n      swap1\n      pop\n        /* \"contracts/Richest.sol\":746:831  function getRichest() public view returns (address) {... */\n      swap1\n      jump\t// out\n        /* \"#utility.yul\":7:97   */\n    tag_29:\n        /* \"#utility.yul\":41:48   */\n      0x00\n        /* \"#utility.yul\":84:89   */\n      dup2\n        /* \"#utility.yul\":77:90   */\n      iszero\n        /* \"#utility.yul\":70:91   */\n      iszero\n        /* \"#utility.yul\":59:91   */\n      swap1\n      pop\n        /* \"#utility.yul\":7:97   */\n      swap2\n      swap1\n      pop\n      jump\t// out\n        /* \"#utility.yul\":103:212   */\n    tag_30:\n        /* \"#utility.yul\":184:205   */\n      tag_42\n        /* \"#utility.yul\":199:204   */\n      dup2\n        /* \"#utility.yul\":184:205   */\n      tag_29\n      jump\t// in\n    tag_42:\n        /* \"#utility.yul\":179:182   */\n      dup3\n        /* \"#utility.yul\":172:206   */\n      mstore\n        /* \"#utility.yul\":103:212   */\n      pop\n      pop\n      jump\t// out\n        /* \"#utility.yul\":218:428   */\n    tag_11:\n        /* \"#utility.yul\":305:309   */\n      0x00\n        /* \"#utility.yul\":343:345   */\n      0x20\n        /* \"#utility.yul\":332:341   */\n      dup3\n        /* \"#utility.yul\":328:346   */\n      add\n        /* \"#utility.yul\":320:346   */\n      swap1\n      pop\n        /* \"#utility.yul\":356:421   */\n      tag_44\n        /* \"#utility.yul\":418:419   */\n      0x00\n        /* \"#utility.yul\":407:416   */\n      dup4\n        /* \"#utility.yul\":403:420   */\n      add\n        /* \"#utility.yul\":394:400   */\n      dup5\n        /* \"#utility.yul\":356:421   */\n      tag_30\n      jump\t// in\n    tag_44:\n        /* \"#utility.yul\":218:428   */\n      swap3\n      swap2\n      pop\n      pop\n      jump\t// out\n        /* \"#utility.yul\":434:560   */\n    tag_31:\n        /* \"#utility.yul\":471:478   */\n      0x00\n        /* \"#utility.yul\":511:553   */\n      0xffffffffffffffffffffffffffffffffffffffff\n        /* \"#utility.yul\":504:509   */\n      dup3\n        /* \"#utility.yul\":500:554   */\n      and\n        /* \"#utility.yul\":489:554   */\n      swap1\n      pop\n        /* \"#utility.yul\":434:560   */\n      swap2\n      swap1\n      pop\n      jump\t// out\n        /* \"#utility.yul\":566:662   */\n    tag_32:\n        /* \"#utility.yul\":603:610   */\n      0x00\n        /* \"#utility.yul\":632:656   */\n      tag_47\n        /* \"#utility.yul\":650:655   */\n      dup3\n        /* \"#utility.yul\":632:656   */\n      tag_31\n      jump\t// in\n    tag_47:\n        /* \"#utility.yul\":621:656   */\n      swap1\n      pop\n        /* \"#utility.yul\":566:662   */\n      swap2\n      swap1\n      pop\n      jump\t// out\n        /* \"#utility.yul\":668:786   */\n    tag_33:\n        /* \"#utility.yul\":755:779   */\n      tag_49\n        /* \"#utility.yul\":773:778   */\n      dup2\n        /* \"#utility.yul\":755:779   */\n      tag_32\n      jump\t// in\n    tag_49:\n        /* \"#utility.yul\":750:753   */\n      dup3\n        /* \"#utility.yul\":743:780   */\n      mstore\n        /* \"#utility.yul\":668:786   */\n      pop\n      pop\n      jump\t// out\n        /* \"#utility.yul\":792:1014   */\n    tag_16:\n        /* \"#utility.yul\":885:889   */\n      0x00\n        /* \"#utility.yul\":923:925   */\n      0x20\n        /* \"#utility.yul\":912:921   */\n      dup3\n        /* \"#utility.yul\":908:926   */\n      add\n        /* \"#utility.yul\":900:926   */\n      swap1\n      pop\n        /* \"#utility.yul\":936:1007   */\n      tag_51\n        /* \"#utility.yul\":1004:1005   */\n      0x00\n        /* \"#utility.yul\":993:1002   */\n      dup4\n        /* \"#utility.yul\":989:1006   */\n      add\n        /* \"#utility.yul\":980:986   */\n      dup5\n        /* \"#utility.yul\":936:1007   */\n      tag_33\n      jump\t// in\n    tag_51:\n        /* \"#utility.yul\":792:1014   */\n      swap3\n      swap2\n      pop\n      pop\n      jump\t// out\n        /* \"#utility.yul\":1020:1167   */\n    tag_34:\n        /* \"#utility.yul\":1121:1132   */\n      0x00\n        /* \"#utility.yul\":1158:1161   */\n      dup2\n        /* \"#utility.yul\":1143:1161   */\n      swap1\n      pop\n        /* \"#utility.yul\":1020:1167   */\n      swap3\n      swap2\n      pop\n      pop\n      jump\t// out\n        /* \"#utility.yul\":1173:1287   */\n    tag_35:\n      pop\n      jump\t// out\n        /* \"#utility.yul\":1293:1691   */\n    tag_36:\n        /* \"#utility.yul\":1452:1455   */\n      0x00\n        /* \"#utility.yul\":1473:1556   */\n      tag_55\n        /* \"#utility.yul\":1554:1555   */\n      0x00\n        /* \"#utility.yul\":1549:1552   */\n      dup4\n        /* \"#utility.yul\":1473:1556   */\n      tag_34\n      jump\t// in\n    tag_55:\n        /* \"#utility.yul\":1466:1556   */\n      swap2\n      pop\n        /* \"#utility.yul\":1565:1658   */\n      tag_56\n        /* \"#utility.yul\":1654:1657   */\n      dup3\n        /* \"#utility.yul\":1565:1658   */\n      tag_35\n      jump\t// in\n    tag_56:\n        /* \"#utility.yul\":1683:1684   */\n      0x00\n        /* \"#utility.yul\":1678:1681   */\n      dup3\n        /* \"#utility.yul\":1674:1685   */\n      add\n        /* \"#utility.yul\":1667:1685   */\n      swap1\n      pop\n        /* \"#utility.yul\":1293:1691   */\n      swap2\n      swap1\n      pop\n      jump\t// out\n        /* \"#utility.yul\":1697:2076   */\n    tag_19:\n        /* \"#utility.yul\":1881:1884   */\n      0x00\n        /* \"#utility.yul\":1903:2050   */\n      tag_58\n        /* \"#utility.yul\":2046:2049   */\n      dup3\n        /* \"#utility.yul\":1903:2050   */\n      tag_36\n      jump\t// in\n    tag_58:\n        /* \"#utility.yul\":1896:2050   */\n      swap2\n      pop\n        /* \"#utility.yul\":2067:2070   */\n      dup2\n        /* \"#utility.yul\":2060:2070   */\n      swap1\n      pop\n        /* \"#utility.yul\":1697:2076   */\n      swap2\n      swap1\n      pop\n      jump\t// out\n        /* \"#utility.yul\":2082:2159   */\n    tag_37:\n        /* \"#utility.yul\":2119:2126   */\n      0x00\n        /* \"#utility.yul\":2148:2153   */\n      dup2\n        /* \"#utility.yul\":2137:2153   */\n      swap1\n      pop\n        /* \"#utility.yul\":2082:2159   */\n      swap2\n      swap1\n      pop\n      jump\t// out\n        /* \"#utility.yul\":2165:2345   */\n    tag_38:\n        /* \"#utility.yul\":2213:2290   */\n      0x4e487b7100000000000000000000000000000000000000000000000000000000\n        /* \"#utility.yul\":2210:2211   */\n      0x00\n        /* \"#utility.yul\":2203:2291   */\n      mstore\n        /* \"#utility.yul\":2310:2314   */\n      0x11\n        /* \"#utility.yul\":2307:2308   */\n      0x04\n        /* \"#utility.yul\":2300:2315   */\n      mstore\n        /* \"#utility.yul\":2334:2338   */\n      0x24\n        /* \"#utility.yul\":2331:2332   */\n      0x00\n        /* \"#utility.yul\":2324:2339   */\n      revert\n        /* \"#utility.yul\":2351:2542   */\n    tag_27:\n        /* \"#utility.yul\":2391:2394   */\n      0x00\n        /* \"#utility.yul\":2410:2430   */\n      tag_62\n        /* \"#utility.yul\":2428:2429   */\n      dup3\n        /* \"#utility.yul\":2410:2430   */\n      tag_37\n      jump\t// in\n    tag_62:\n        /* \"#utility.yul\":2405:2430   */\n      swap2\n      pop\n        /* \"#utility.yul\":2444:2464   */\n      tag_63\n        /* \"#utility.yul\":2462:2463   */\n      dup4\n        /* \"#utility.yul\":2444:2464   */\n      tag_37\n      jump\t// in\n    tag_63:\n        /* \"#utility.yul\":2439:2464   */\n      swap3\n      pop\n        /* \"#utility.yul\":2487:2488   */\n      dup3\n        /* \"#utility.yul\":2484:2485   */\n      dup3\n        /* \"#utility.yul\":2480:2489   */\n      add\n        /* \"#utility.yul\":2473:2489   */\n      swap1\n      pop\n        /* \"#utility.yul\":2508:2511   */\n      dup1\n        /* \"#utility.yul\":2505:2506   */\n      dup3\n        /* \"#utility.yul\":2502:2512   */\n      gt\n        /* \"#utility.yul\":2499:2535   */\n      iszero\n      tag_64\n      jumpi\n        /* \"#utility.yul\":2515:2533   */\n      tag_65\n      tag_38\n      jump\t// in\n    tag_65:\n        /* \"#utility.yul\":2499:2535   */\n    tag_64:\n        /* \"#utility.yul\":2351:2542   */\n      swap3\n      swap2\n      pop\n      pop\n      jump\t// out\n\n    auxdata: 0xa2646970667358221220f4f91b728bb3567f92dc50718d1e666e6ba68c04219477268419fe657be2977064736f6c63430008110033\n}\n",
				"bytecode": {
					"linkReferences": {},
					"object": "608060405234801561001057600080fd5b5061041c806100206000396000f3fe6080604052600436106100345760003560e01c80633ccfd60b1461003957806369934ee7146100505780639a5dd7351461006e575b600080fd5b34801561004557600080fd5b5061004e610099565b005b61005861019c565b60405161006591906102bc565b60405180910390f35b34801561007a57600080fd5b50610083610278565b6040516100909190610318565b60405180910390f35b6000600260003373ffffffffffffffffffffffffffffffffffffffff1673ffffffffffffffffffffffffffffffffffffffff1681526020019081526020016000205490506000600260003373ffffffffffffffffffffffffffffffffffffffff1673ffffffffffffffffffffffffffffffffffffffff1681526020019081526020016000208190555060003373ffffffffffffffffffffffffffffffffffffffff168260405161014890610364565b60006040518083038185875af1925050503d8060008114610185576040519150601f19603f3d011682016040523d82523d6000602084013e61018a565b606091505b505090508061019857600080fd5b5050565b600060015434116101b05760009050610275565b600154600260008060009054906101000a900473ffffffffffffffffffffffffffffffffffffffff1673ffffffffffffffffffffffffffffffffffffffff1673ffffffffffffffffffffffffffffffffffffffff168152602001908152602001600020600082825461022291906103b2565b92505081905550336000806101000a81548173ffffffffffffffffffffffffffffffffffffffff021916908373ffffffffffffffffffffffffffffffffffffffff16021790555034600181905550600190505b90565b60008060009054906101000a900473ffffffffffffffffffffffffffffffffffffffff16905090565b60008115159050919050565b6102b6816102a1565b82525050565b60006020820190506102d160008301846102ad565b92915050565b600073ffffffffffffffffffffffffffffffffffffffff82169050919050565b6000610302826102d7565b9050919050565b610312816102f7565b82525050565b600060208201905061032d6000830184610309565b92915050565b600081905092915050565b50565b600061034e600083610333565b91506103598261033e565b600082019050919050565b600061036f82610341565b9150819050919050565b6000819050919050565b7f4e487b7100000000000000000000000000000000000000000000000000000000600052601160045260246000fd5b60006103bd82610379565b91506103c883610379565b92508282019050808211156103e0576103df610383565b5b9291505056fea2646970667358221220f4f91b728bb3567f92dc50718d1e666e6ba68c04219477268419fe657be2977064736f6c63430008110033",
					"opcodes": "PUSH1 0x80 PUSH1 0x40 MSTORE CALLVALUE DUP1 ISZERO PUSH2 0x10 JUMPI PUSH1 0x0 DUP1 REVERT JUMPDEST POP PUSH2 0x41C DUP1 PUSH2 0x20 PUSH1 0x0 CODECOPY PUSH1 0x0 RETURN INVALID PUSH1 0x80 PUSH1 0x40 MSTORE PUSH1 0x4 CALLDATASIZE LT PUSH2 0x34 JUMPI PUSH1 0x0 CALLDATALOAD PUSH1 0xE0 SHR DUP1 PUSH4 0x3CCFD60B EQ PUSH2 0x39 JUMPI DUP1 PUSH4 0x69934EE7 EQ PUSH2 0x50 JUMPI DUP1 PUSH4 0x9A5DD735 EQ PUSH2 0x6E JUMPI JUMPDEST PUSH1 0x0 DUP1 REVERT JUMPDEST CALLVALUE DUP1 ISZERO PUSH2 0x45 JUMPI PUSH1 0x0 DUP1 REVERT JUMPDEST POP PUSH2 0x4E PUSH2 0x99 JUMP JUMPDEST STOP JUMPDEST PUSH2 0x58 PUSH2 0x19C JUMP JUMPDEST PUSH1 0x40 MLOAD PUSH2 0x65 SWAP2 SWAP1 PUSH2 0x2BC JUMP JUMPDEST PUSH1 0x40 MLOAD DUP1 SWAP2 SUB SWAP1 RETURN JUMPDEST CALLVALUE DUP1 ISZERO PUSH2 0x7A JUMPI PUSH1 0x0 DUP1 REVERT JUMPDEST POP PUSH2 0x83 PUSH2 0x278 JUMP JUMPDEST PUSH1 0x40 MLOAD PUSH2 0x90 SWAP2 SWAP1 PUSH2 0x318 JUMP JUMPDEST PUSH1 0x40 MLOAD DUP1 SWAP2 SUB SWAP1 RETURN JUMPDEST PUSH1 0x0 PUSH1 0x2 PUSH1 0x0 CALLER PUSH20 0xFFFFFFFFFFFFFFFFFFFFFFFFFFFFFFFFFFFFFFFF AND PUSH20 0xFFFFFFFFFFFFFFFFFFFFFFFFFFFFFFFFFFFFFFFF AND DUP2 MSTORE PUSH1 0x20 ADD SWAP1 DUP2 MSTORE PUSH1 0x20 ADD PUSH1 0x0 KECCAK256 SLOAD SWAP1 POP PUSH1 0x0 PUSH1 0x2 PUSH1 0x0 CALLER PUSH20 0xFFFFFFFFFFFFFFFFFFFFFFFFFFFFFFFFFFFFFFFF AND PUSH20 0xFFFFFFFFFFFFFFFFFFFFFFFFFFFFFFFFFFFFFFFF AND DUP2 MSTORE PUSH1 0x20 ADD SWAP1 DUP2 MSTORE PUSH1 0x20 ADD PUSH1 0x0 KECCAK256 DUP2 SWAP1 SSTORE POP PUSH1 0x0 CALLER PUSH20 0xFFFFFFFFFFFFFFFFFFFFFFFFFFFFFFFFFFFFFFFF AND DUP3 PUSH1 0x40 MLOAD PUSH2 0x148 SWAP1 PUSH2 0x364 JUMP JUMPDEST PUSH1 0x0 PUSH1 0x40 MLOAD DUP1 DUP4 SUB DUP2 DUP6 DUP8 GAS CALL SWAP3 POP POP POP RETURNDATASIZE DUP1 PUSH1 0x0 DUP2 EQ PUSH2 0x185 JUMPI PUSH1 0x40 MLOAD SWAP2 POP PUSH1 0x1F NOT PUSH1 0x3F RETURNDATASIZE ADD AND DUP3 ADD PUSH1 0x40 MSTORE RETURNDATASIZE DUP3 MSTORE RETURNDATASIZE PUSH1 0x0 PUSH1 0x20 DUP5 ADD RETURNDATACOPY PUSH2 0x18A JUMP JUMPDEST PUSH1 0x60 SWAP2 POP JUMPDEST POP POP SWAP1 POP DUP1 PUSH2 0x198 JUMPI PUSH1 0x0 DUP1 REVERT JUMPDEST POP POP JUMP JUMPDEST PUSH1 0x0 PUSH1 0x1 SLOAD CALLVALUE GT PUSH2 0x1B0 JUMPI PUSH1 0x0 SWAP1 POP PUSH2 0x275 JUMP JUMPDEST PUSH1 0x1 SLOAD PUSH1 0x2 PUSH1 0x0 DUP1 PUSH1 0x0 SWAP1 SLOAD SWAP1 PUSH2 0x100 EXP SWAP1 DIV PUSH20 0xFFFFFFFFFFFFFFFFFFFFFFFFFFFFFFFFFFFFFFFF AND PUSH20 0xFFFFFFFFFFFFFFFFFFFFFFFFFFFFFFFFFFFFFFFF AND PUSH20 0xFFFFFFFFFFFFFFFFFFFFFFFFFFFFFFFFFFFFFFFF AND DUP2 MSTORE PUSH1 0x20 ADD SWAP1 DUP2 MSTORE PUSH1 0x20 ADD PUSH1 0x0 KECCAK256 PUSH1 0x0 DUP3 DUP3 SLOAD PUSH2 0x222 SWAP2 SWAP1 PUSH2 0x3B2 JUMP JUMPDEST SWAP3 POP POP DUP2 SWAP1 SSTORE POP CALLER PUSH1 0x0 DUP1 PUSH2 0x100 EXP DUP2 SLOAD DUP2 PUSH20 0xFFFFFFFFFFFFFFFFFFFFFFFFFFFFFFFFFFFFFFFF MUL NOT AND SWAP1 DUP4 PUSH20 0xFFFFFFFFFFFFFFFFFFFFFFFFFFFFFFFFFFFFFFFF AND MUL OR SWAP1 SSTORE POP CALLVALUE PUSH1 0x1 DUP2 SWAP1 SSTORE POP PUSH1 0x1 SWAP1 POP JUMPDEST SWAP1 JUMP JUMPDEST PUSH1 0x0 DUP1 PUSH1 0x0 SWAP1 SLOAD SWAP1 PUSH2 0x100 EXP SWAP1 DIV PUSH20 0xFFFFFFFFFFFFFFFFFFFFFFFFFFFFFFFFFFFFFFFF AND SWAP1 POP SWAP1 JUMP JUMPDEST PUSH1 0x0 DUP2 ISZERO ISZERO SWAP1 POP SWAP2 SWAP1 POP JUMP JUMPDEST PUSH2 0x2B6 DUP2 PUSH2 0x2A1 JUMP JUMPDEST DUP3 MSTORE POP POP JUMP JUMPDEST PUSH1 0x0 PUSH1 0x20 DUP3 ADD SWAP1 POP PUSH2 0x2D1 PUSH1 0x0 DUP4 ADD DUP5 PUSH2 0x2AD JUMP JUMPDEST SWAP3 SWAP2 POP POP JUMP JUMPDEST PUSH1 0x0 PUSH20 0xFFFFFFFFFFFFFFFFFFFFFFFFFFFFFFFFFFFFFFFF DUP3 AND SWAP1 POP SWAP2 SWAP1 POP JUMP JUMPDEST PUSH1 0x0 PUSH2 0x302 DUP3 PUSH2 0x2D7 JUMP JUMPDEST SWAP1 POP SWAP2 SWAP1 POP JUMP JUMPDEST PUSH2 0x312 DUP2 PUSH2 0x2F7 JUMP JUMPDEST DUP3 MSTORE POP POP JUMP JUMPDEST PUSH1 0x0 PUSH1 0x20 DUP3 ADD SWAP1 POP PUSH2 0x32D PUSH1 0x0 DUP4 ADD DUP5 PUSH2 0x309 JUMP JUMPDEST SWAP3 SWAP2 POP POP JUMP JUMPDEST PUSH1 0x0 DUP2 SWAP1 POP SWAP3 SWAP2 POP POP JUMP JUMPDEST POP JUMP JUMPDEST PUSH1 0x0 PUSH2 0x34E PUSH1 0x0 DUP4 PUSH2 0x333 JUMP JUMPDEST SWAP2 POP PUSH2 0x359 DUP3 PUSH2 0x33E JUMP JUMPDEST PUSH1 0x0 DUP3 ADD SWAP1 POP SWAP2 SWAP1 POP JUMP JUMPDEST PUSH1 0x0 PUSH2 0x36F DUP3 PUSH2 0x341 JUMP JUMPDEST SWAP2 POP DUP2 SWAP1 POP SWAP2 SWAP1 POP JUMP JUMPDEST PUSH1 0x0 DUP2 SWAP1 POP SWAP2 SWAP1 POP JUMP JUMPDEST PUSH32 0x4E487B7100000000000000000000000000000000000000000000000000000000 PUSH1 0x0 MSTORE PUSH1 0x11 PUSH1 0x4 MSTORE PUSH1 0x24 PUSH1 0x0 REVERT JUMPDEST PUSH1 0x0 PUSH2 0x3BD DUP3 PUSH2 0x379 JUMP JUMPDEST SWAP2 POP PUSH2 0x3C8 DUP4 PUSH2 0x379 JUMP JUMPDEST SWAP3 POP DUP3 DUP3 ADD SWAP1 POP DUP1 DUP3 GT ISZERO PUSH2 0x3E0 JUMPI PUSH2 0x3DF PUSH2 0x383 JUMP JUMPDEST JUMPDEST SWAP3 SWAP2 POP POP JUMP INVALID LOG2 PUSH5 0x6970667358 0x22 SLT KECCAK256 DELEGATECALL 0xF9 SHL PUSH19 0x8BB3567F92DC50718D1E666E6BA68C04219477 0x26 DUP5 NOT INVALID PUSH6 0x7BE297706473 PUSH16 0x6C634300081100330000000000000000 "
				},
				"gasEstimates": {
					"creation": {
						"codeDepositCost": "210400",
						"executionCost": "251",
						"totalCost": "210651"
					},
					"external": {
						"becomeRichest()": "infinite",
						"getRichest()": "2544",
						"withdraw()": "infinite"
					}
				},
				"methodIdentifiers": {
					"becomeRichest()": "69934ee7",
					"getRichest()": "9a5dd735",
					"withdraw()": "3ccfd60b"
				}
			},
			"storageLayout": {
				"storage": [
					{
						"astId": 3,
						"contract": "contracts/Richest.sol:Richest",
						"label": "richest",
						"offset": 0,
						"slot": "0",
						"type": "t_address"
					},
					{
						"astId": 5,
						"contract": "contracts/Richest.sol:Richest",
						"label": "mostSent",
						"offset": 0,
						"slot": "1",
						"type": "t_uint256"
					},
					{
						"astId": 9,
						"contract": "contracts/Richest.sol:Richest",
						"label": "pendingWithdrawals",
						"offset": 0,
						"slot": "2",
						"type": "t_mapping(t_address,t_uint256)"
					}
				],
				"types": {
					"t_address": {
						"encoding": "inplace",
						"label": "address",
						"numberOfBytes": "20"
					},
					"t_mapping(t_address,t_uint256)": {
						"encoding": "mapping",
						"key": "t_address",
						"label": "mapping(address => uint256)",
						"numberOfBytes": "32",
						"value": "t_uint256"
					},
					"t_uint256": {
						"encoding": "inplace",
						"label": "uint256",
						"numberOfBytes": "32"
					}
				}
			},
			"userdoc": {
				"kind": "user",
				"methods": {},
				"version": 1
			}
		}
	}
}