{
	"contracts/EventEmitter.sol": {
		"EventEmitter": {
			"abi": [
				{
					"anonymous": false,
					"inputs": [
						{
							"indexed": false,
							"internalType": "uint256",
							"name": "count",
							"type": "uint256"
						},
						{
							"indexed": false,
							"internalType": "address",
							"name": "sender",
							"type": "address"
						}
					],
					"name": "Called",
					"type": "event"
				},
				{
					"inputs": [],
					"name": "count",
					"outputs": [],
					"stateMutability": "nonpayable",
					"type": "function"
				}
			],
			"devdoc": {
				"kind": "dev",
				"methods": {},
				"version": 1
			},
			"evm": {
				"assembly": "    /* \"contracts/EventEmitter.sol\":36:418  contract EventEmitter {... */\n  mstore(0x40, 0x80)\n  callvalue\n  dup1\n  iszero\n  tag_1\n  jumpi\n  0x00\n  dup1\n  revert\ntag_1:\n  pop\n  dataSize(sub_0)\n  dup1\n  dataOffset(sub_0)\n  0x00\n  codecopy\n  0x00\n  return\nstop\n\nsub_0: assembly {\n        /* \"contracts/EventEmitter.sol\":36:418  contract EventEmitter {... */\n      mstore(0x40, 0x80)\n      callvalue\n      dup1\n      iszero\n      tag_1\n      jumpi\n      0x00\n      dup1\n      revert\n    tag_1:\n      pop\n      jumpi(tag_2, lt(calldatasize, 0x04))\n      shr(0xe0, calldataload(0x00))\n      dup1\n      0x06661abd\n      eq\n      tag_3\n      jumpi\n    tag_2:\n      0x00\n      dup1\n      revert\n        /* \"contracts/EventEmitter.sol\":184:416  function count() public {... */\n    tag_3:\n      tag_4\n      tag_5\n      jump\t// in\n    tag_4:\n      stop\n    tag_5:\n        /* \"contracts/EventEmitter.sol\":244:245  1 */\n      0x01\n        /* \"contracts/EventEmitter.sol\":222:229  counter */\n      0x00\n        /* \"contracts/EventEmitter.sol\":222:241  counter[msg.sender] */\n      dup1\n        /* \"contracts/EventEmitter.sol\":230:240  msg.sender */\n      caller\n        /* \"contracts/EventEmitter.sol\":222:241  counter[msg.sender] */\n      0xffffffffffffffffffffffffffffffffffffffff\n      and\n      0xffffffffffffffffffffffffffffffffffffffff\n      and\n      dup2\n      mstore\n      0x20\n      add\n      swap1\n      dup2\n      mstore\n      0x20\n      add\n      0x00\n      keccak256\n      sload\n        /* \"contracts/EventEmitter.sol\":222:245  counter[msg.sender] < 1 */\n      lt\n        /* \"contracts/EventEmitter.sol\":218:347  if (counter[msg.sender] < 1) {... */\n      iszero\n      tag_7\n      jumpi\n        /* \"contracts/EventEmitter.sol\":283:284  1 */\n      0x01\n        /* \"contracts/EventEmitter.sol\":261:268  counter */\n      0x00\n        /* \"contracts/EventEmitter.sol\":261:280  counter[msg.sender] */\n      dup1\n        /* \"contracts/EventEmitter.sol\":269:279  msg.sender */\n      caller\n        /* \"contracts/EventEmitter.sol\":261:280  counter[msg.sender] */\n      0xffffffffffffffffffffffffffffffffffffffff\n      and\n      0xffffffffffffffffffffffffffffffffffffffff\n      and\n      dup2\n      mstore\n      0x20\n      add\n      swap1\n      dup2\n      mstore\n      0x20\n      add\n      0x00\n      keccak256\n        /* \"contracts/EventEmitter.sol\":261:284  counter[msg.sender] = 1 */\n      dup2\n      swap1\n      sstore\n      pop\n        /* \"contracts/EventEmitter.sol\":218:347  if (counter[msg.sender] < 1) {... */\n      jump(tag_8)\n    tag_7:\n        /* \"contracts/EventEmitter.sol\":315:322  counter */\n      0x00\n        /* \"contracts/EventEmitter.sol\":315:334  counter[msg.sender] */\n      dup1\n        /* \"contracts/EventEmitter.sol\":323:333  msg.sender */\n      caller\n        /* \"contracts/EventEmitter.sol\":315:334  counter[msg.sender] */\n      0xffffffffffffffffffffffffffffffffffffffff\n      and\n      0xffffffffffffffffffffffffffffffffffffffff\n      and\n      dup2\n      mstore\n      0x20\n      add\n      swap1\n      dup2\n      mstore\n      0x20\n      add\n      0x00\n      keccak256\n      0x00\n        /* \"contracts/EventEmitter.sol\":315:336  counter[msg.sender]++ */\n      dup2\n      sload\n      dup1\n      swap3\n      swap2\n      swap1\n      tag_9\n      swap1\n      tag_10\n      jump\t// in\n    tag_9:\n      swap2\n      swap1\n      pop\n      sstore\n      pop\n        /* \"contracts/EventEmitter.sol\":218:347  if (counter[msg.sender] < 1) {... */\n    tag_8:\n        /* \"contracts/EventEmitter.sol\":370:409  Called(counter[msg.sender], msg.sender) */\n      0xec5ff06007d342767509c1c95ff32aa762c5b944f26f0fc7f579b588f8d34ba9\n        /* \"contracts/EventEmitter.sol\":377:384  counter */\n      0x00\n        /* \"contracts/EventEmitter.sol\":377:396  counter[msg.sender] */\n      dup1\n        /* \"contracts/EventEmitter.sol\":385:395  msg.sender */\n      caller\n        /* \"contracts/EventEmitter.sol\":377:396  counter[msg.sender] */\n      0xffffffffffffffffffffffffffffffffffffffff\n      and\n      0xffffffffffffffffffffffffffffffffffffffff\n      and\n      dup2\n      mstore\n      0x20\n      add\n      swap1\n      dup2\n      mstore\n      0x20\n      add\n      0x00\n      keccak256\n      sload\n        /* \"contracts/EventEmitter.sol\":398:408  msg.sender */\n      caller\n        /* \"contracts/EventEmitter.sol\":370:409  Called(counter[msg.sender], msg.sender) */\n      mload(0x40)\n      tag_11\n      swap3\n      swap2\n      swap1\n      tag_12\n      jump\t// in\n    tag_11:\n      mload(0x40)\n      dup1\n      swap2\n      sub\n      swap1\n      log1\n        /* \"contracts/EventEmitter.sol\":184:416  function count() public {... */\n      jump\t// out\n        /* \"#utility.yul\":7:187   */\n    tag_13:\n        /* \"#utility.yul\":55:132   */\n      0x4e487b7100000000000000000000000000000000000000000000000000000000\n        /* \"#utility.yul\":52:53   */\n      0x00\n        /* \"#utility.yul\":45:133   */\n      mstore\n        /* \"#utility.yul\":152:156   */\n      0x11\n        /* \"#utility.yul\":149:150   */\n      0x04\n        /* \"#utility.yul\":142:157   */\n      mstore\n        /* \"#utility.yul\":176:180   */\n      0x24\n        /* \"#utility.yul\":173:174   */\n      0x00\n        /* \"#utility.yul\":166:181   */\n      revert\n        /* \"#utility.yul\":193:270   */\n    tag_14:\n        /* \"#utility.yul\":230:237   */\n      0x00\n        /* \"#utility.yul\":259:264   */\n      dup2\n        /* \"#utility.yul\":248:264   */\n      swap1\n      pop\n        /* \"#utility.yul\":193:270   */\n      swap2\n      swap1\n      pop\n      jump\t// out\n        /* \"#utility.yul\":276:509   */\n    tag_10:\n        /* \"#utility.yul\":315:318   */\n      0x00\n        /* \"#utility.yul\":338:362   */\n      tag_23\n        /* \"#utility.yul\":356:361   */\n      dup3\n        /* \"#utility.yul\":338:362   */\n      tag_14\n      jump\t// in\n    tag_23:\n        /* \"#utility.yul\":329:362   */\n      swap2\n      pop\n        /* \"#utility.yul\":384:450   */\n      0xffffffffffffffffffffffffffffffffffffffffffffffffffffffffffffffff\n        /* \"#utility.yul\":377:382   */\n      dup3\n        /* \"#utility.yul\":374:451   */\n      sub\n        /* \"#utility.yul\":371:474   */\n      tag_24\n      jumpi\n        /* \"#utility.yul\":454:472   */\n      tag_25\n      tag_13\n      jump\t// in\n    tag_25:\n        /* \"#utility.yul\":371:474   */\n    tag_24:\n        /* \"#utility.yul\":501:502   */\n      0x01\n        /* \"#utility.yul\":494:499   */\n      dup3\n        /* \"#utility.yul\":490:503   */\n      add\n        /* \"#utility.yul\":483:503   */\n      swap1\n      pop\n        /* \"#utility.yul\":276:509   */\n      swap2\n      swap1\n      pop\n      jump\t// out\n        /* \"#utility.yul\":515:633   */\n    tag_15:\n        /* \"#utility.yul\":602:626   */\n      tag_27\n        /* \"#utility.yul\":620:625   */\n      dup2\n        /* \"#utility.yul\":602:626   */\n      tag_14\n      jump\t// in\n    tag_27:\n        /* \"#utility.yul\":597:600   */\n      dup3\n        /* \"#utility.yul\":590:627   */\n      mstore\n        /* \"#utility.yul\":515:633   */\n      pop\n      pop\n      jump\t// out\n        /* \"#utility.yul\":639:765   */\n    tag_16:\n        /* \"#utility.yul\":676:683   */\n      0x00\n        /* \"#utility.yul\":716:758   */\n      0xffffffffffffffffffffffffffffffffffffffff\n        /* \"#utility.yul\":709:714   */\n      dup3\n        /* \"#utility.yul\":705:759   */\n      and\n        /* \"#utility.yul\":694:759   */\n      swap1\n      pop\n        /* \"#utility.yul\":639:765   */\n      swap2\n      swap1\n      pop\n      jump\t// out\n        /* \"#utility.yul\":771:867   */\n    tag_17:\n        /* \"#utility.yul\":808:815   */\n      0x00\n        /* \"#utility.yul\":837:861   */\n      tag_30\n        /* \"#utility.yul\":855:860   */\n      dup3\n        /* \"#utility.yul\":837:861   */\n      tag_16\n      jump\t// in\n    tag_30:\n        /* \"#utility.yul\":826:861   */\n      swap1\n      pop\n        /* \"#utility.yul\":771:867   */\n      swap2\n      swap1\n      pop\n      jump\t// out\n        /* \"#utility.yul\":873:991   */\n    tag_18:\n        /* \"#utility.yul\":960:984   */\n      tag_32\n        /* \"#utility.yul\":978:983   */\n      dup2\n        /* \"#utility.yul\":960:984   */\n      tag_17\n      jump\t// in\n    tag_32:\n        /* \"#utility.yul\":955:958   */\n      dup3\n        /* \"#utility.yul\":948:985   */\n      mstore\n        /* \"#utility.yul\":873:991   */\n      pop\n      pop\n      jump\t// out\n        /* \"#utility.yul\":997:1329   */\n    tag_12:\n        /* \"#utility.yul\":1118:1122   */\n      0x00\n        /* \"#utility.yul\":1156:1158   */\n      0x40\n        /* \"#utility.yul\":1145:1154   */\n      dup3\n        /* \"#utility.yul\":1141:1159   */\n      add\n        /* \"#utility.yul\":1133:1159   */\n      swap1\n      pop\n        /* \"#utility.yul\":1169:1240   */\n      tag_34\n        /* \"#utility.yul\":1237:1238   */\n      0x00\n        /* \"#utility.yul\":1226:1235   */\n      dup4\n        /* \"#utility.yul\":1222:1239   */\n      add\n        /* \"#utility.yul\":1213:1219   */\n      dup6\n        /* \"#utility.yul\":1169:1240   */\n      tag_15\n      jump\t// in\n    tag_34:\n        /* \"#utility.yul\":1250:1322   */\n      tag_35\n        /* \"#utility.yul\":1318:1320   */\n      0x20\n        /* \"#utility.yul\":1307:1316   */\n      dup4\n        /* \"#utility.yul\":1303:1321   */\n      add\n        /* \"#utility.yul\":1294:1300   */\n      dup5\n        /* \"#utility.yul\":1250:1322   */\n      tag_18\n      jump\t// in\n    tag_35:\n        /* \"#utility.yul\":997:1329   */\n      swap4\n      swap3\n      pop\n      pop\n      pop\n      jump\t// out\n\n    auxdata: 0xa2646970667358221220b555bb2a39f109ac31e296b3ef90976d69bcd942969e03a0f8e5015e6f222bbe64736f6c63430008110033\n}\n",
				"bytecode": {
					"linkReferences": {},
					"object": "608060405234801561001057600080fd5b506102c8806100206000396000f3fe608060405234801561001057600080fd5b506004361061002b5760003560e01c806306661abd14610030575b600080fd5b61003861003a565b005b60016000803373ffffffffffffffffffffffffffffffffffffffff1673ffffffffffffffffffffffffffffffffffffffff1681526020019081526020016000205410156100ca5760016000803373ffffffffffffffffffffffffffffffffffffffff1673ffffffffffffffffffffffffffffffffffffffff1681526020019081526020016000208190555061011f565b6000803373ffffffffffffffffffffffffffffffffffffffff1673ffffffffffffffffffffffffffffffffffffffff1681526020019081526020016000206000815480929190610119906101d1565b91905055505b7fec5ff06007d342767509c1c95ff32aa762c5b944f26f0fc7f579b588f8d34ba96000803373ffffffffffffffffffffffffffffffffffffffff1673ffffffffffffffffffffffffffffffffffffffff168152602001908152602001600020543360405161018e929190610269565b60405180910390a1565b7f4e487b7100000000000000000000000000000000000000000000000000000000600052601160045260246000fd5b6000819050919050565b60006101dc826101c7565b91507fffffffffffffffffffffffffffffffffffffffffffffffffffffffffffffffff820361020e5761020d610198565b5b600182019050919050565b610222816101c7565b82525050565b600073ffffffffffffffffffffffffffffffffffffffff82169050919050565b600061025382610228565b9050919050565b61026381610248565b82525050565b600060408201905061027e6000830185610219565b61028b602083018461025a565b939250505056fea2646970667358221220b555bb2a39f109ac31e296b3ef90976d69bcd942969e03a0f8e5015e6f222bbe64736f6c63430008110033",
					"opcodes": "PUSH1 0x80 PUSH1 0x40 MSTORE CALLVALUE DUP1 ISZERO PUSH2 0x10 JUMPI PUSH1 0x0 DUP1 REVERT JUMPDEST POP PUSH2 0x2C8 DUP1 PUSH2 0x20 PUSH1 0x0 CODECOPY PUSH1 0x0 RETURN INVALID PUSH1 0x80 PUSH1 0x40 MSTORE CALLVALUE DUP1 ISZERO PUSH2 0x10 JUMPI PUSH1 0x0 DUP1 REVERT JUMPDEST POP PUSH1 0x4 CALLDATASIZE LT PUSH2 0x2B JUMPI PUSH1 0x0 CALLDATALOAD PUSH1 0xE0 SHR DUP1 PUSH4 0x6661ABD EQ PUSH2 0x30 JUMPI JUMPDEST PUSH1 0x0 DUP1 REVERT JUMPDEST PUSH2 0x38 PUSH2 0x3A JUMP JUMPDEST STOP JUMPDEST PUSH1 0x1 PUSH1 0x0 DUP1 CALLER PUSH20 0xFFFFFFFFFFFFFFFFFFFFFFFFFFFFFFFFFFFFFFFF AND PUSH20 0xFFFFFFFFFFFFFFFFFFFFFFFFFFFFFFFFFFFFFFFF AND DUP2 MSTORE PUSH1 0x20 ADD SWAP1 DUP2 MSTORE PUSH1 0x20 ADD PUSH1 0x0 KECCAK256 SLOAD LT ISZERO PUSH2 0xCA JUMPI PUSH1 0x1 PUSH1 0x0 DUP1 CALLER PUSH20 0xFFFFFFFFFFFFFFFFFFFFFFFFFFFFFFFFFFFFFFFF AND PUSH20 0xFFFFFFFFFFFFFFFFFFFFFFFFFFFFFFFFFFFFFFFF AND DUP2 MSTORE PUSH1 0x20 ADD SWAP1 DUP2 MSTORE PUSH1 0x20 ADD PUSH1 0x0 KECCAK256 DUP2 SWAP1 SSTORE POP PUSH2 0x11F JUMP JUMPDEST PUSH1 0x0 DUP1 CALLER PUSH20 0xFFFFFFFFFFFFFFFFFFFFFFFFFFFFFFFFFFFFFFFF AND PUSH20 0xFFFFFFFFFFFFFFFFFFFFFFFFFFFFFFFFFFFFFFFF AND DUP2 MSTORE PUSH1 0x20 ADD SWAP1 DUP2 MSTORE PUSH1 0x20 ADD PUSH1 0x0 KECCAK256 PUSH1 0x0 DUP2 SLOAD DUP1 SWAP3 SWAP2 SWAP1 PUSH2 0x119 SWAP1 PUSH2 0x1D1 JUMP JUMPDEST SWAP2 SWAP1 POP SSTORE POP JUMPDEST PUSH32 0xEC5FF06007D342767509C1C95FF32AA762C5B944F26F0FC7F579B588F8D34BA9 PUSH1 0x0 DUP1 CALLER PUSH20 0xFFFFFFFFFFFFFFFFFFFFFFFFFFFFFFFFFFFFFFFF AND PUSH20 0xFFFFFFFFFFFFFFFFFFFFFFFFFFFFFFFFFFFFFFFF AND DUP2 MSTORE PUSH1 0x20 ADD SWAP1 DUP2 MSTORE PUSH1 0x20 ADD PUSH1 0x0 KECCAK256 SLOAD CALLER PUSH1 0x40 MLOAD PUSH2 0x18E SWAP3 SWAP2 SWAP1 PUSH2 0x269 JUMP JUMPDEST PUSH1 0x40 MLOAD DUP1 SWAP2 SUB SWAP1 LOG1 JUMP JUMPDEST PUSH32 0x4E487B7100000000000000000000000000000000000000000000000000000000 PUSH1 0x0 MSTORE PUSH1 0x11 PUSH1 0x4 MSTORE PUSH1 0x24 PUSH1 0x0 REVERT JUMPDEST PUSH1 0x0 DUP2 SWAP1 POP SWAP2 SWAP1 POP JUMP JUMPDEST PUSH1 0x0 PUSH2 0x1DC DUP3 PUSH2 0x1C7 JUMP JUMPDEST SWAP2 POP PUSH32 0xFFFFFFFFFFFFFFFFFFFFFFFFFFFFFFFFFFFFFFFFFFFFFFFFFFFFFFFFFFFFFFFF DUP3 SUB PUSH2 0x20E JUMPI PUSH2 0x20D PUSH2 0x198 JUMP JUMPDEST JUMPDEST PUSH1 0x1 DUP3 ADD SWAP1 POP SWAP2 SWAP1 POP JUMP JUMPDEST PUSH2 0x222 DUP2 PUSH2 0x1C7 JUMP JUMPDEST DUP3 MSTORE POP POP JUMP JUMPDEST PUSH1 0x0 PUSH20 0xFFFFFFFFFFFFFFFFFFFFFFFFFFFFFFFFFFFFFFFF DUP3 AND SWAP1 POP SWAP2 SWAP1 POP JUMP JUMPDEST PUSH1 0x0 PUSH2 0x253 DUP3 PUSH2 0x228 JUMP JUMPDEST SWAP1 POP SWAP2 SWAP1 POP JUMP JUMPDEST PUSH2 0x263 DUP2 PUSH2 0x248 JUMP JUMPDEST DUP3 MSTORE POP POP JUMP JUMPDEST PUSH1 0x0 PUSH1 0x40 DUP3 ADD SWAP1 POP PUSH2 0x27E PUSH1 0x0 DUP4 ADD DUP6 PUSH2 0x219 JUMP JUMPDEST PUSH2 0x28B PUSH1 0x20 DUP4 ADD DUP5 PUSH2 0x25A JUMP JUMPDEST SWAP4 SWAP3 POP POP POP JUMP INVALID LOG2 PUSH5 0x6970667358 0x22 SLT KECCAK256 0xB5 SSTORE 0xBB 0x2A CODECOPY CALL MULMOD 0xAC BALANCE 0xE2 SWAP7 0xB3 0xEF SWAP1 SWAP8 PUSH14 0x69BCD942969E03A0F8E5015E6F22 0x2B 0xBE PUSH5 0x736F6C6343 STOP ADDMOD GT STOP CALLER "
				},
				"gasEstimates": {
					"creation": {
						"codeDepositCost": "142400",
						"executionCost": "190",
						"totalCost": "142590"
					},
					"external": {
						"count()": "28338"
					}
				},
				"methodIdentifiers": {
					"count()": "06661abd"
				}
			},
			"storageLayout": {
				"storage": [
					{
						"astId": 5,
						"contract": "contracts/EventEmitter.sol:EventEmitter",
						"label": "counter",
						"offset": 0,
						"slot": "0",
						"type": "t_mapping(t_address,t_uint256)"
					}
				],
				"types": {
					"t_address": {
						"encoding": "inplace",
						"label": "address",
						"numberOfBytes": "20"
					},
					"t_mapping(t_address,t_uint256)": {
						"encoding": "mapping",
						"key": "t_address",
						"label": "mapping(address => uint256)",
						"numberOfBytes": "32",
						"value": "t_uint256"
					},
					"t_uint256": {
						"encoding": "inplace",
						"label": "uint256",
						"numberOfBytes": "32"
					}
				}
			},
			"userdoc": {
				"kind": "user",
				"methods": {},
				"version": 1
			}
		}
	}
}