{
	"contracts/Following.sol": {
		"Following": {
			"abi": [
				{
					"inputs": [],
					"name": "clearFollowing",
					"outputs": [],
					"stateMutability": "nonpayable",
					"type": "function"
				},
				{
					"inputs": [
						{
							"internalType": "address",
							"name": "toFollow",
							"type": "address"
						}
					],
					"name": "follow",
					"outputs": [],
					"stateMutability": "nonpayable",
					"type": "function"
				},
				{
					"inputs": [
						{
							"internalType": "address",
							"name": "addr",
							"type": "address"
						}
					],
					"name": "getFollowing",
					"outputs": [
						{
							"internalType": "address[]",
							"name": "",
							"type": "address[]"
						}
					],
					"stateMutability": "view",
					"type": "function"
				}
			],
			"devdoc": {
				"kind": "dev",
				"methods": {},
				"version": 1
			},
			"evm": {
				"assembly": "    /* \"contracts/Following.sol\":36:620  contract Following {... */\n  mstore(0x40, 0x80)\n  callvalue\n  dup1\n  iszero\n  tag_1\n  jumpi\n  0x00\n  dup1\n  revert\ntag_1:\n  pop\n  dataSize(sub_0)\n  dup1\n  dataOffset(sub_0)\n  0x00\n  codecopy\n  0x00\n  return\nstop\n\nsub_0: assembly {\n        /* \"contracts/Following.sol\":36:620  contract Following {... */\n      mstore(0x40, 0x80)\n      callvalue\n      dup1\n      iszero\n      tag_1\n      jumpi\n      0x00\n      dup1\n      revert\n    tag_1:\n      pop\n      jumpi(tag_2, lt(calldatasize, 0x04))\n      shr(0xe0, calldataload(0x00))\n      dup1\n      0x4dbf27cc\n      eq\n      tag_3\n      jumpi\n      dup1\n      0xa574b9ae\n      eq\n      tag_4\n      jumpi\n      dup1\n      0xd8236dff\n      eq\n      tag_5\n      jumpi\n    tag_2:\n      0x00\n      dup1\n      revert\n        /* \"contracts/Following.sol\":107:414  function follow(address toFollow) public {... */\n    tag_3:\n      tag_6\n      0x04\n      dup1\n      calldatasize\n      sub\n      dup2\n      add\n      swap1\n      tag_7\n      swap2\n      swap1\n      tag_8\n      jump\t// in\n    tag_7:\n      tag_9\n      jump\t// in\n    tag_6:\n      stop\n        /* \"contracts/Following.sol\":540:618  function clearFollowing() public {... */\n    tag_4:\n      tag_10\n      tag_11\n      jump\t// in\n    tag_10:\n      stop\n        /* \"contracts/Following.sol\":420:534  function getFollowing(address addr) public view returns (address[] memory) {... */\n    tag_5:\n      tag_12\n      0x04\n      dup1\n      calldatasize\n      sub\n      dup2\n      add\n      swap1\n      tag_13\n      swap2\n      swap1\n      tag_8\n      jump\t// in\n    tag_13:\n      tag_14\n      jump\t// in\n    tag_12:\n      mload(0x40)\n      tag_15\n      swap2\n      swap1\n      tag_16\n      jump\t// in\n    tag_15:\n      mload(0x40)\n      dup1\n      swap2\n      sub\n      swap1\n      return\n        /* \"contracts/Following.sol\":107:414  function follow(address toFollow) public {... */\n    tag_9:\n        /* \"contracts/Following.sol\":210:211  3 */\n      0x03\n        /* \"contracts/Following.sol\":179:188  following */\n      0x00\n        /* \"contracts/Following.sol\":179:200  following[msg.sender] */\n      dup1\n        /* \"contracts/Following.sol\":189:199  msg.sender */\n      caller\n        /* \"contracts/Following.sol\":179:200  following[msg.sender] */\n      0xffffffffffffffffffffffffffffffffffffffff\n      and\n      0xffffffffffffffffffffffffffffffffffffffff\n      and\n      dup2\n      mstore\n      0x20\n      add\n      swap1\n      dup2\n      mstore\n      0x20\n      add\n      0x00\n      keccak256\n        /* \"contracts/Following.sol\":179:207  following[msg.sender].length */\n      dup1\n      sload\n      swap1\n      pop\n        /* \"contracts/Following.sol\":179:211  following[msg.sender].length < 3 */\n      lt\n        /* \"contracts/Following.sol\":158:290  require(... */\n      tag_18\n      jumpi\n      mload(0x40)\n      0x08c379a000000000000000000000000000000000000000000000000000000000\n      dup2\n      mstore\n      0x04\n      add\n      tag_19\n      swap1\n      tag_20\n      jump\t// in\n    tag_19:\n      mload(0x40)\n      dup1\n      swap2\n      sub\n      swap1\n      revert\n    tag_18:\n        /* \"contracts/Following.sol\":322:330  toFollow */\n      dup1\n        /* \"contracts/Following.sol\":308:330  msg.sender != toFollow */\n      0xffffffffffffffffffffffffffffffffffffffff\n      and\n        /* \"contracts/Following.sol\":308:318  msg.sender */\n      caller\n        /* \"contracts/Following.sol\":308:330  msg.sender != toFollow */\n      0xffffffffffffffffffffffffffffffffffffffff\n      and\n      sub\n        /* \"contracts/Following.sol\":300:361  require(msg.sender != toFollow, \"you cannot follow yourself\") */\n      tag_21\n      jumpi\n      mload(0x40)\n      0x08c379a000000000000000000000000000000000000000000000000000000000\n      dup2\n      mstore\n      0x04\n      add\n      tag_22\n      swap1\n      tag_23\n      jump\t// in\n    tag_22:\n      mload(0x40)\n      dup1\n      swap2\n      sub\n      swap1\n      revert\n    tag_21:\n        /* \"contracts/Following.sol\":371:380  following */\n      0x00\n        /* \"contracts/Following.sol\":371:392  following[msg.sender] */\n      dup1\n        /* \"contracts/Following.sol\":381:391  msg.sender */\n      caller\n        /* \"contracts/Following.sol\":371:392  following[msg.sender] */\n      0xffffffffffffffffffffffffffffffffffffffff\n      and\n      0xffffffffffffffffffffffffffffffffffffffff\n      and\n      dup2\n      mstore\n      0x20\n      add\n      swap1\n      dup2\n      mstore\n      0x20\n      add\n      0x00\n      keccak256\n        /* \"contracts/Following.sol\":398:406  toFollow */\n      dup2\n        /* \"contracts/Following.sol\":371:407  following[msg.sender].push(toFollow) */\n      swap1\n      dup1\n      0x01\n      dup2\n      sload\n      add\n      dup1\n      dup3\n      sstore\n      dup1\n      swap2\n      pop\n      pop\n      0x01\n      swap1\n      sub\n      swap1\n      0x00\n      mstore\n      keccak256(0x00, 0x20)\n      add\n      0x00\n      swap1\n      swap2\n      swap1\n      swap2\n      swap1\n      swap2\n      0x0100\n      exp\n      dup2\n      sload\n      dup2\n      0xffffffffffffffffffffffffffffffffffffffff\n      mul\n      not\n      and\n      swap1\n      dup4\n      0xffffffffffffffffffffffffffffffffffffffff\n      and\n      mul\n      or\n      swap1\n      sstore\n      pop\n        /* \"contracts/Following.sol\":107:414  function follow(address toFollow) public {... */\n      pop\n      jump\t// out\n        /* \"contracts/Following.sol\":540:618  function clearFollowing() public {... */\n    tag_11:\n        /* \"contracts/Following.sol\":590:599  following */\n      0x00\n        /* \"contracts/Following.sol\":590:611  following[msg.sender] */\n      dup1\n        /* \"contracts/Following.sol\":600:610  msg.sender */\n      caller\n        /* \"contracts/Following.sol\":590:611  following[msg.sender] */\n      0xffffffffffffffffffffffffffffffffffffffff\n      and\n      0xffffffffffffffffffffffffffffffffffffffff\n      and\n      dup2\n      mstore\n      0x20\n      add\n      swap1\n      dup2\n      mstore\n      0x20\n      add\n      0x00\n      keccak256\n      0x00\n        /* \"contracts/Following.sol\":583:611  delete following[msg.sender] */\n      tag_26\n      swap2\n      swap1\n      tag_27\n      jump\t// in\n    tag_26:\n        /* \"contracts/Following.sol\":540:618  function clearFollowing() public {... */\n      jump\t// out\n        /* \"contracts/Following.sol\":420:534  function getFollowing(address addr) public view returns (address[] memory) {... */\n    tag_14:\n        /* \"contracts/Following.sol\":477:493  address[] memory */\n      0x60\n        /* \"contracts/Following.sol\":512:521  following */\n      0x00\n        /* \"contracts/Following.sol\":512:527  following[addr] */\n      dup1\n        /* \"contracts/Following.sol\":522:526  addr */\n      dup4\n        /* \"contracts/Following.sol\":512:527  following[addr] */\n      0xffffffffffffffffffffffffffffffffffffffff\n      and\n      0xffffffffffffffffffffffffffffffffffffffff\n      and\n      dup2\n      mstore\n      0x20\n      add\n      swap1\n      dup2\n      mstore\n      0x20\n      add\n      0x00\n      keccak256\n        /* \"contracts/Following.sol\":505:527  return following[addr] */\n      dup1\n      sload\n      dup1\n      0x20\n      mul\n      0x20\n      add\n      mload(0x40)\n      swap1\n      dup2\n      add\n      0x40\n      mstore\n      dup1\n      swap3\n      swap2\n      swap1\n      dup2\n      dup2\n      mstore\n      0x20\n      add\n      dup3\n      dup1\n      sload\n      dup1\n      iszero\n      tag_29\n      jumpi\n      0x20\n      mul\n      dup3\n      add\n      swap2\n      swap1\n      0x00\n      mstore\n      keccak256(0x00, 0x20)\n      swap1\n    tag_30:\n      dup2\n      0x00\n      swap1\n      sload\n      swap1\n      0x0100\n      exp\n      swap1\n      div\n      0xffffffffffffffffffffffffffffffffffffffff\n      and\n      0xffffffffffffffffffffffffffffffffffffffff\n      and\n      dup2\n      mstore\n      0x20\n      add\n      swap1\n      0x01\n      add\n      swap1\n      dup1\n      dup4\n      gt\n      tag_30\n      jumpi\n    tag_29:\n      pop\n      pop\n      pop\n      pop\n      pop\n      swap1\n      pop\n        /* \"contracts/Following.sol\":420:534  function getFollowing(address addr) public view returns (address[] memory) {... */\n      swap2\n      swap1\n      pop\n      jump\t// out\n    tag_27:\n      pop\n      dup1\n      sload\n      0x00\n      dup3\n      sstore\n      swap1\n      0x00\n      mstore\n      keccak256(0x00, 0x20)\n      swap1\n      dup2\n      add\n      swap1\n      tag_32\n      swap2\n      swap1\n      tag_33\n      jump\t// in\n    tag_32:\n      pop\n      jump\t// out\n    tag_33:\n    tag_34:\n      dup1\n      dup3\n      gt\n      iszero\n      tag_35\n      jumpi\n      0x00\n      dup2\n      0x00\n      swap1\n      sstore\n      pop\n      0x01\n      add\n      jump(tag_34)\n    tag_35:\n      pop\n      swap1\n      jump\t// out\n        /* \"#utility.yul\":88:205   */\n    tag_37:\n        /* \"#utility.yul\":197:198   */\n      0x00\n        /* \"#utility.yul\":194:195   */\n      dup1\n        /* \"#utility.yul\":187:199   */\n      revert\n        /* \"#utility.yul\":334:460   */\n    tag_39:\n        /* \"#utility.yul\":371:378   */\n      0x00\n        /* \"#utility.yul\":411:453   */\n      0xffffffffffffffffffffffffffffffffffffffff\n        /* \"#utility.yul\":404:409   */\n      dup3\n        /* \"#utility.yul\":400:454   */\n      and\n        /* \"#utility.yul\":389:454   */\n      swap1\n      pop\n        /* \"#utility.yul\":334:460   */\n      swap2\n      swap1\n      pop\n      jump\t// out\n        /* \"#utility.yul\":466:562   */\n    tag_40:\n        /* \"#utility.yul\":503:510   */\n      0x00\n        /* \"#utility.yul\":532:556   */\n      tag_61\n        /* \"#utility.yul\":550:555   */\n      dup3\n        /* \"#utility.yul\":532:556   */\n      tag_39\n      jump\t// in\n    tag_61:\n        /* \"#utility.yul\":521:556   */\n      swap1\n      pop\n        /* \"#utility.yul\":466:562   */\n      swap2\n      swap1\n      pop\n      jump\t// out\n        /* \"#utility.yul\":568:690   */\n    tag_41:\n        /* \"#utility.yul\":641:665   */\n      tag_63\n        /* \"#utility.yul\":659:664   */\n      dup2\n        /* \"#utility.yul\":641:665   */\n      tag_40\n      jump\t// in\n    tag_63:\n        /* \"#utility.yul\":634:639   */\n      dup2\n        /* \"#utility.yul\":631:666   */\n      eq\n        /* \"#utility.yul\":621:684   */\n      tag_64\n      jumpi\n        /* \"#utility.yul\":680:681   */\n      0x00\n        /* \"#utility.yul\":677:678   */\n      dup1\n        /* \"#utility.yul\":670:682   */\n      revert\n        /* \"#utility.yul\":621:684   */\n    tag_64:\n        /* \"#utility.yul\":568:690   */\n      pop\n      jump\t// out\n        /* \"#utility.yul\":696:835   */\n    tag_42:\n        /* \"#utility.yul\":742:747   */\n      0x00\n        /* \"#utility.yul\":780:786   */\n      dup2\n        /* \"#utility.yul\":767:787   */\n      calldataload\n        /* \"#utility.yul\":758:787   */\n      swap1\n      pop\n        /* \"#utility.yul\":796:829   */\n      tag_66\n        /* \"#utility.yul\":823:828   */\n      dup2\n        /* \"#utility.yul\":796:829   */\n      tag_41\n      jump\t// in\n    tag_66:\n        /* \"#utility.yul\":696:835   */\n      swap3\n      swap2\n      pop\n      pop\n      jump\t// out\n        /* \"#utility.yul\":841:1170   */\n    tag_8:\n        /* \"#utility.yul\":900:906   */\n      0x00\n        /* \"#utility.yul\":949:951   */\n      0x20\n        /* \"#utility.yul\":937:946   */\n      dup3\n        /* \"#utility.yul\":928:935   */\n      dup5\n        /* \"#utility.yul\":924:947   */\n      sub\n        /* \"#utility.yul\":920:952   */\n      slt\n        /* \"#utility.yul\":917:1036   */\n      iszero\n      tag_68\n      jumpi\n        /* \"#utility.yul\":955:1034   */\n      tag_69\n      tag_37\n      jump\t// in\n    tag_69:\n        /* \"#utility.yul\":917:1036   */\n    tag_68:\n        /* \"#utility.yul\":1075:1076   */\n      0x00\n        /* \"#utility.yul\":1100:1153   */\n      tag_70\n        /* \"#utility.yul\":1145:1152   */\n      dup5\n        /* \"#utility.yul\":1136:1142   */\n      dup3\n        /* \"#utility.yul\":1125:1134   */\n      dup6\n        /* \"#utility.yul\":1121:1143   */\n      add\n        /* \"#utility.yul\":1100:1153   */\n      tag_42\n      jump\t// in\n    tag_70:\n        /* \"#utility.yul\":1090:1153   */\n      swap2\n      pop\n        /* \"#utility.yul\":1046:1163   */\n      pop\n        /* \"#utility.yul\":841:1170   */\n      swap3\n      swap2\n      pop\n      pop\n      jump\t// out\n        /* \"#utility.yul\":1176:1290   */\n    tag_43:\n        /* \"#utility.yul\":1243:1249   */\n      0x00\n        /* \"#utility.yul\":1277:1282   */\n      dup2\n        /* \"#utility.yul\":1271:1283   */\n      mload\n        /* \"#utility.yul\":1261:1283   */\n      swap1\n      pop\n        /* \"#utility.yul\":1176:1290   */\n      swap2\n      swap1\n      pop\n      jump\t// out\n        /* \"#utility.yul\":1296:1480   */\n    tag_44:\n        /* \"#utility.yul\":1395:1406   */\n      0x00\n        /* \"#utility.yul\":1429:1435   */\n      dup3\n        /* \"#utility.yul\":1424:1427   */\n      dup3\n        /* \"#utility.yul\":1417:1436   */\n      mstore\n        /* \"#utility.yul\":1469:1473   */\n      0x20\n        /* \"#utility.yul\":1464:1467   */\n      dup3\n        /* \"#utility.yul\":1460:1474   */\n      add\n        /* \"#utility.yul\":1445:1474   */\n      swap1\n      pop\n        /* \"#utility.yul\":1296:1480   */\n      swap3\n      swap2\n      pop\n      pop\n      jump\t// out\n        /* \"#utility.yul\":1486:1618   */\n    tag_45:\n        /* \"#utility.yul\":1553:1557   */\n      0x00\n        /* \"#utility.yul\":1576:1579   */\n      dup2\n        /* \"#utility.yul\":1568:1579   */\n      swap1\n      pop\n        /* \"#utility.yul\":1606:1610   */\n      0x20\n        /* \"#utility.yul\":1601:1604   */\n      dup3\n        /* \"#utility.yul\":1597:1611   */\n      add\n        /* \"#utility.yul\":1589:1611   */\n      swap1\n      pop\n        /* \"#utility.yul\":1486:1618   */\n      swap2\n      swap1\n      pop\n      jump\t// out\n        /* \"#utility.yul\":1624:1732   */\n    tag_46:\n        /* \"#utility.yul\":1701:1725   */\n      tag_75\n        /* \"#utility.yul\":1719:1724   */\n      dup2\n        /* \"#utility.yul\":1701:1725   */\n      tag_40\n      jump\t// in\n    tag_75:\n        /* \"#utility.yul\":1696:1699   */\n      dup3\n        /* \"#utility.yul\":1689:1726   */\n      mstore\n        /* \"#utility.yul\":1624:1732   */\n      pop\n      pop\n      jump\t// out\n        /* \"#utility.yul\":1738:1917   */\n    tag_47:\n        /* \"#utility.yul\":1807:1817   */\n      0x00\n        /* \"#utility.yul\":1828:1874   */\n      tag_77\n        /* \"#utility.yul\":1870:1873   */\n      dup4\n        /* \"#utility.yul\":1862:1868   */\n      dup4\n        /* \"#utility.yul\":1828:1874   */\n      tag_46\n      jump\t// in\n    tag_77:\n        /* \"#utility.yul\":1906:1910   */\n      0x20\n        /* \"#utility.yul\":1901:1904   */\n      dup4\n        /* \"#utility.yul\":1897:1911   */\n      add\n        /* \"#utility.yul\":1883:1911   */\n      swap1\n      pop\n        /* \"#utility.yul\":1738:1917   */\n      swap3\n      swap2\n      pop\n      pop\n      jump\t// out\n        /* \"#utility.yul\":1923:2036   */\n    tag_48:\n        /* \"#utility.yul\":1993:1997   */\n      0x00\n        /* \"#utility.yul\":2025:2029   */\n      0x20\n        /* \"#utility.yul\":2020:2023   */\n      dup3\n        /* \"#utility.yul\":2016:2030   */\n      add\n        /* \"#utility.yul\":2008:2030   */\n      swap1\n      pop\n        /* \"#utility.yul\":1923:2036   */\n      swap2\n      swap1\n      pop\n      jump\t// out\n        /* \"#utility.yul\":2072:2804   */\n    tag_49:\n        /* \"#utility.yul\":2191:2194   */\n      0x00\n        /* \"#utility.yul\":2220:2274   */\n      tag_80\n        /* \"#utility.yul\":2268:2273   */\n      dup3\n        /* \"#utility.yul\":2220:2274   */\n      tag_43\n      jump\t// in\n    tag_80:\n        /* \"#utility.yul\":2290:2376   */\n      tag_81\n        /* \"#utility.yul\":2369:2375   */\n      dup2\n        /* \"#utility.yul\":2364:2367   */\n      dup6\n        /* \"#utility.yul\":2290:2376   */\n      tag_44\n      jump\t// in\n    tag_81:\n        /* \"#utility.yul\":2283:2376   */\n      swap4\n      pop\n        /* \"#utility.yul\":2400:2456   */\n      tag_82\n        /* \"#utility.yul\":2450:2455   */\n      dup4\n        /* \"#utility.yul\":2400:2456   */\n      tag_45\n      jump\t// in\n    tag_82:\n        /* \"#utility.yul\":2479:2486   */\n      dup1\n        /* \"#utility.yul\":2510:2511   */\n      0x00\n        /* \"#utility.yul\":2495:2779   */\n    tag_83:\n        /* \"#utility.yul\":2520:2526   */\n      dup4\n        /* \"#utility.yul\":2517:2518   */\n      dup2\n        /* \"#utility.yul\":2514:2527   */\n      lt\n        /* \"#utility.yul\":2495:2779   */\n      iszero\n      tag_85\n      jumpi\n        /* \"#utility.yul\":2596:2602   */\n      dup2\n        /* \"#utility.yul\":2590:2603   */\n      mload\n        /* \"#utility.yul\":2623:2686   */\n      tag_86\n        /* \"#utility.yul\":2682:2685   */\n      dup9\n        /* \"#utility.yul\":2667:2680   */\n      dup3\n        /* \"#utility.yul\":2623:2686   */\n      tag_47\n      jump\t// in\n    tag_86:\n        /* \"#utility.yul\":2616:2686   */\n      swap8\n      pop\n        /* \"#utility.yul\":2709:2769   */\n      tag_87\n        /* \"#utility.yul\":2762:2768   */\n      dup4\n        /* \"#utility.yul\":2709:2769   */\n      tag_48\n      jump\t// in\n    tag_87:\n        /* \"#utility.yul\":2699:2769   */\n      swap3\n      pop\n        /* \"#utility.yul\":2555:2779   */\n      pop\n        /* \"#utility.yul\":2542:2543   */\n      0x01\n        /* \"#utility.yul\":2539:2540   */\n      dup2\n        /* \"#utility.yul\":2535:2544   */\n      add\n        /* \"#utility.yul\":2530:2544   */\n      swap1\n      pop\n        /* \"#utility.yul\":2495:2779   */\n      jump(tag_83)\n    tag_85:\n        /* \"#utility.yul\":2499:2513   */\n      pop\n        /* \"#utility.yul\":2795:2798   */\n      dup6\n        /* \"#utility.yul\":2788:2798   */\n      swap4\n      pop\n        /* \"#utility.yul\":2196:2804   */\n      pop\n      pop\n      pop\n        /* \"#utility.yul\":2072:2804   */\n      swap3\n      swap2\n      pop\n      pop\n      jump\t// out\n        /* \"#utility.yul\":2810:3183   */\n    tag_16:\n        /* \"#utility.yul\":2953:2957   */\n      0x00\n        /* \"#utility.yul\":2991:2993   */\n      0x20\n        /* \"#utility.yul\":2980:2989   */\n      dup3\n        /* \"#utility.yul\":2976:2994   */\n      add\n        /* \"#utility.yul\":2968:2994   */\n      swap1\n      pop\n        /* \"#utility.yul\":3040:3049   */\n      dup2\n        /* \"#utility.yul\":3034:3038   */\n      dup2\n        /* \"#utility.yul\":3030:3050   */\n      sub\n        /* \"#utility.yul\":3026:3027   */\n      0x00\n        /* \"#utility.yul\":3015:3024   */\n      dup4\n        /* \"#utility.yul\":3011:3028   */\n      add\n        /* \"#utility.yul\":3004:3051   */\n      mstore\n        /* \"#utility.yul\":3068:3176   */\n      tag_89\n        /* \"#utility.yul\":3171:3175   */\n      dup2\n        /* \"#utility.yul\":3162:3168   */\n      dup5\n        /* \"#utility.yul\":3068:3176   */\n      tag_49\n      jump\t// in\n    tag_89:\n        /* \"#utility.yul\":3060:3176   */\n      swap1\n      pop\n        /* \"#utility.yul\":2810:3183   */\n      swap3\n      swap2\n      pop\n      pop\n      jump\t// out\n        /* \"#utility.yul\":3189:3358   */\n    tag_50:\n        /* \"#utility.yul\":3273:3284   */\n      0x00\n        /* \"#utility.yul\":3307:3313   */\n      dup3\n        /* \"#utility.yul\":3302:3305   */\n      dup3\n        /* \"#utility.yul\":3295:3314   */\n      mstore\n        /* \"#utility.yul\":3347:3351   */\n      0x20\n        /* \"#utility.yul\":3342:3345   */\n      dup3\n        /* \"#utility.yul\":3338:3352   */\n      add\n        /* \"#utility.yul\":3323:3352   */\n      swap1\n      pop\n        /* \"#utility.yul\":3189:3358   */\n      swap3\n      swap2\n      pop\n      pop\n      jump\t// out\n        /* \"#utility.yul\":3364:3604   */\n    tag_51:\n        /* \"#utility.yul\":3504:3538   */\n      0x7573657220697320616c726561647920666f6c6c6f77696e6720746865206d61\n        /* \"#utility.yul\":3500:3501   */\n      0x00\n        /* \"#utility.yul\":3492:3498   */\n      dup3\n        /* \"#utility.yul\":3488:3502   */\n      add\n        /* \"#utility.yul\":3481:3539   */\n      mstore\n        /* \"#utility.yul\":3573:3596   */\n      0x78696d756d206e756d626572206f662075736572730000000000000000000000\n        /* \"#utility.yul\":3568:3570   */\n      0x20\n        /* \"#utility.yul\":3560:3566   */\n      dup3\n        /* \"#utility.yul\":3556:3571   */\n      add\n        /* \"#utility.yul\":3549:3597   */\n      mstore\n        /* \"#utility.yul\":3364:3604   */\n      pop\n      jump\t// out\n        /* \"#utility.yul\":3610:3976   */\n    tag_52:\n        /* \"#utility.yul\":3752:3755   */\n      0x00\n        /* \"#utility.yul\":3773:3840   */\n      tag_93\n        /* \"#utility.yul\":3837:3839   */\n      0x35\n        /* \"#utility.yul\":3832:3835   */\n      dup4\n        /* \"#utility.yul\":3773:3840   */\n      tag_50\n      jump\t// in\n    tag_93:\n        /* \"#utility.yul\":3766:3840   */\n      swap2\n      pop\n        /* \"#utility.yul\":3849:3942   */\n      tag_94\n        /* \"#utility.yul\":3938:3941   */\n      dup3\n        /* \"#utility.yul\":3849:3942   */\n      tag_51\n      jump\t// in\n    tag_94:\n        /* \"#utility.yul\":3967:3969   */\n      0x40\n        /* \"#utility.yul\":3962:3965   */\n      dup3\n        /* \"#utility.yul\":3958:3970   */\n      add\n        /* \"#utility.yul\":3951:3970   */\n      swap1\n      pop\n        /* \"#utility.yul\":3610:3976   */\n      swap2\n      swap1\n      pop\n      jump\t// out\n        /* \"#utility.yul\":3982:4401   */\n    tag_20:\n        /* \"#utility.yul\":4148:4152   */\n      0x00\n        /* \"#utility.yul\":4186:4188   */\n      0x20\n        /* \"#utility.yul\":4175:4184   */\n      dup3\n        /* \"#utility.yul\":4171:4189   */\n      add\n        /* \"#utility.yul\":4163:4189   */\n      swap1\n      pop\n        /* \"#utility.yul\":4235:4244   */\n      dup2\n        /* \"#utility.yul\":4229:4233   */\n      dup2\n        /* \"#utility.yul\":4225:4245   */\n      sub\n        /* \"#utility.yul\":4221:4222   */\n      0x00\n        /* \"#utility.yul\":4210:4219   */\n      dup4\n        /* \"#utility.yul\":4206:4223   */\n      add\n        /* \"#utility.yul\":4199:4246   */\n      mstore\n        /* \"#utility.yul\":4263:4394   */\n      tag_96\n        /* \"#utility.yul\":4389:4393   */\n      dup2\n        /* \"#utility.yul\":4263:4394   */\n      tag_52\n      jump\t// in\n    tag_96:\n        /* \"#utility.yul\":4255:4394   */\n      swap1\n      pop\n        /* \"#utility.yul\":3982:4401   */\n      swap2\n      swap1\n      pop\n      jump\t// out\n        /* \"#utility.yul\":4407:4583   */\n    tag_53:\n        /* \"#utility.yul\":4547:4575   */\n      0x796f752063616e6e6f7420666f6c6c6f7720796f757273656c66000000000000\n        /* \"#utility.yul\":4543:4544   */\n      0x00\n        /* \"#utility.yul\":4535:4541   */\n      dup3\n        /* \"#utility.yul\":4531:4545   */\n      add\n        /* \"#utility.yul\":4524:4576   */\n      mstore\n        /* \"#utility.yul\":4407:4583   */\n      pop\n      jump\t// out\n        /* \"#utility.yul\":4589:4955   */\n    tag_54:\n        /* \"#utility.yul\":4731:4734   */\n      0x00\n        /* \"#utility.yul\":4752:4819   */\n      tag_99\n        /* \"#utility.yul\":4816:4818   */\n      0x1a\n        /* \"#utility.yul\":4811:4814   */\n      dup4\n        /* \"#utility.yul\":4752:4819   */\n      tag_50\n      jump\t// in\n    tag_99:\n        /* \"#utility.yul\":4745:4819   */\n      swap2\n      pop\n        /* \"#utility.yul\":4828:4921   */\n      tag_100\n        /* \"#utility.yul\":4917:4920   */\n      dup3\n        /* \"#utility.yul\":4828:4921   */\n      tag_53\n      jump\t// in\n    tag_100:\n        /* \"#utility.yul\":4946:4948   */\n      0x20\n        /* \"#utility.yul\":4941:4944   */\n      dup3\n        /* \"#utility.yul\":4937:4949   */\n      add\n        /* \"#utility.yul\":4930:4949   */\n      swap1\n      pop\n        /* \"#utility.yul\":4589:4955   */\n      swap2\n      swap1\n      pop\n      jump\t// out\n        /* \"#utility.yul\":4961:5380   */\n    tag_23:\n        /* \"#utility.yul\":5127:5131   */\n      0x00\n        /* \"#utility.yul\":5165:5167   */\n      0x20\n        /* \"#utility.yul\":5154:5163   */\n      dup3\n        /* \"#utility.yul\":5150:5168   */\n      add\n        /* \"#utility.yul\":5142:5168   */\n      swap1\n      pop\n        /* \"#utility.yul\":5214:5223   */\n      dup2\n        /* \"#utility.yul\":5208:5212   */\n      dup2\n        /* \"#utility.yul\":5204:5224   */\n      sub\n        /* \"#utility.yul\":5200:5201   */\n      0x00\n        /* \"#utility.yul\":5189:5198   */\n      dup4\n        /* \"#utility.yul\":5185:5202   */\n      add\n        /* \"#utility.yul\":5178:5225   */\n      mstore\n        /* \"#utility.yul\":5242:5373   */\n      tag_102\n        /* \"#utility.yul\":5368:5372   */\n      dup2\n        /* \"#utility.yul\":5242:5373   */\n      tag_54\n      jump\t// in\n    tag_102:\n        /* \"#utility.yul\":5234:5373   */\n      swap1\n      pop\n        /* \"#utility.yul\":4961:5380   */\n      swap2\n      swap1\n      pop\n      jump\t// out\n\n    auxdata: 0xa264697066735822122026522cd2f0e1a3fe6b77480dd362f119933a7416b6c1ddf9464df614a5d4f5ba64736f6c63430008110033\n}\n",
				"bytecode": {
					"linkReferences": {},
					"object": "608060405234801561001057600080fd5b5061063b806100206000396000f3fe608060405234801561001057600080fd5b50600436106100415760003560e01c80634dbf27cc14610046578063a574b9ae14610062578063d8236dff1461006c575b600080fd5b610060600480360381019061005b91906103e9565b61009c565b005b61006a610230565b005b610086600480360381019061008191906103e9565b61027c565b60405161009391906104d4565b60405180910390f35b60036000803373ffffffffffffffffffffffffffffffffffffffff1673ffffffffffffffffffffffffffffffffffffffff1681526020019081526020016000208054905010610120576040517f08c379a000000000000000000000000000000000000000000000000000000000815260040161011790610579565b60405180910390fd5b8073ffffffffffffffffffffffffffffffffffffffff163373ffffffffffffffffffffffffffffffffffffffff160361018e576040517f08c379a0000000000000000000000000000000000000000000000000000000008152600401610185906105e5565b60405180910390fd5b6000803373ffffffffffffffffffffffffffffffffffffffff1673ffffffffffffffffffffffffffffffffffffffff168152602001908152602001600020819080600181540180825580915050600190039060005260206000200160009091909190916101000a81548173ffffffffffffffffffffffffffffffffffffffff021916908373ffffffffffffffffffffffffffffffffffffffff16021790555050565b6000803373ffffffffffffffffffffffffffffffffffffffff1673ffffffffffffffffffffffffffffffffffffffff168152602001908152602001600020600061027a9190610348565b565b60606000808373ffffffffffffffffffffffffffffffffffffffff1673ffffffffffffffffffffffffffffffffffffffff16815260200190815260200160002080548060200260200160405190810160405280929190818152602001828054801561033c57602002820191906000526020600020905b8160009054906101000a900473ffffffffffffffffffffffffffffffffffffffff1673ffffffffffffffffffffffffffffffffffffffff16815260200190600101908083116102f2575b50505050509050919050565b50805460008255906000526020600020908101906103669190610369565b50565b5b8082111561038257600081600090555060010161036a565b5090565b600080fd5b600073ffffffffffffffffffffffffffffffffffffffff82169050919050565b60006103b68261038b565b9050919050565b6103c6816103ab565b81146103d157600080fd5b50565b6000813590506103e3816103bd565b92915050565b6000602082840312156103ff576103fe610386565b5b600061040d848285016103d4565b91505092915050565b600081519050919050565b600082825260208201905092915050565b6000819050602082019050919050565b61044b816103ab565b82525050565b600061045d8383610442565b60208301905092915050565b6000602082019050919050565b600061048182610416565b61048b8185610421565b935061049683610432565b8060005b838110156104c75781516104ae8882610451565b97506104b983610469565b92505060018101905061049a565b5085935050505092915050565b600060208201905081810360008301526104ee8184610476565b905092915050565b600082825260208201905092915050565b7f7573657220697320616c726561647920666f6c6c6f77696e6720746865206d6160008201527f78696d756d206e756d626572206f662075736572730000000000000000000000602082015250565b60006105636035836104f6565b915061056e82610507565b604082019050919050565b6000602082019050818103600083015261059281610556565b9050919050565b7f796f752063616e6e6f7420666f6c6c6f7720796f757273656c66000000000000600082015250565b60006105cf601a836104f6565b91506105da82610599565b602082019050919050565b600060208201905081810360008301526105fe816105c2565b905091905056fea264697066735822122026522cd2f0e1a3fe6b77480dd362f119933a7416b6c1ddf9464df614a5d4f5ba64736f6c63430008110033",
					"opcodes": "PUSH1 0x80 PUSH1 0x40 MSTORE CALLVALUE DUP1 ISZERO PUSH2 0x10 JUMPI PUSH1 0x0 DUP1 REVERT JUMPDEST POP PUSH2 0x63B DUP1 PUSH2 0x20 PUSH1 0x0 CODECOPY PUSH1 0x0 RETURN INVALID PUSH1 0x80 PUSH1 0x40 MSTORE CALLVALUE DUP1 ISZERO PUSH2 0x10 JUMPI PUSH1 0x0 DUP1 REVERT JUMPDEST POP PUSH1 0x4 CALLDATASIZE LT PUSH2 0x41 JUMPI PUSH1 0x0 CALLDATALOAD PUSH1 0xE0 SHR DUP1 PUSH4 0x4DBF27CC EQ PUSH2 0x46 JUMPI DUP1 PUSH4 0xA574B9AE EQ PUSH2 0x62 JUMPI DUP1 PUSH4 0xD8236DFF EQ PUSH2 0x6C JUMPI JUMPDEST PUSH1 0x0 DUP1 REVERT JUMPDEST PUSH2 0x60 PUSH1 0x4 DUP1 CALLDATASIZE SUB DUP2 ADD SWAP1 PUSH2 0x5B SWAP2 SWAP1 PUSH2 0x3E9 JUMP JUMPDEST PUSH2 0x9C JUMP JUMPDEST STOP JUMPDEST PUSH2 0x6A PUSH2 0x230 JUMP JUMPDEST STOP JUMPDEST PUSH2 0x86 PUSH1 0x4 DUP1 CALLDATASIZE SUB DUP2 ADD SWAP1 PUSH2 0x81 SWAP2 SWAP1 PUSH2 0x3E9 JUMP JUMPDEST PUSH2 0x27C JUMP JUMPDEST PUSH1 0x40 MLOAD PUSH2 0x93 SWAP2 SWAP1 PUSH2 0x4D4 JUMP JUMPDEST PUSH1 0x40 MLOAD DUP1 SWAP2 SUB SWAP1 RETURN JUMPDEST PUSH1 0x3 PUSH1 0x0 DUP1 CALLER PUSH20 0xFFFFFFFFFFFFFFFFFFFFFFFFFFFFFFFFFFFFFFFF AND PUSH20 0xFFFFFFFFFFFFFFFFFFFFFFFFFFFFFFFFFFFFFFFF AND DUP2 MSTORE PUSH1 0x20 ADD SWAP1 DUP2 MSTORE PUSH1 0x20 ADD PUSH1 0x0 KECCAK256 DUP1 SLOAD SWAP1 POP LT PUSH2 0x120 JUMPI PUSH1 0x40 MLOAD PUSH32 0x8C379A000000000000000000000000000000000000000000000000000000000 DUP2 MSTORE PUSH1 0x4 ADD PUSH2 0x117 SWAP1 PUSH2 0x579 JUMP JUMPDEST PUSH1 0x40 MLOAD DUP1 SWAP2 SUB SWAP1 REVERT JUMPDEST DUP1 PUSH20 0xFFFFFFFFFFFFFFFFFFFFFFFFFFFFFFFFFFFFFFFF AND CALLER PUSH20 0xFFFFFFFFFFFFFFFFFFFFFFFFFFFFFFFFFFFFFFFF AND SUB PUSH2 0x18E JUMPI PUSH1 0x40 MLOAD PUSH32 0x8C379A000000000000000000000000000000000000000000000000000000000 DUP2 MSTORE PUSH1 0x4 ADD PUSH2 0x185 SWAP1 PUSH2 0x5E5 JUMP JUMPDEST PUSH1 0x40 MLOAD DUP1 SWAP2 SUB SWAP1 REVERT JUMPDEST PUSH1 0x0 DUP1 CALLER PUSH20 0xFFFFFFFFFFFFFFFFFFFFFFFFFFFFFFFFFFFFFFFF AND PUSH20 0xFFFFFFFFFFFFFFFFFFFFFFFFFFFFFFFFFFFFFFFF AND DUP2 MSTORE PUSH1 0x20 ADD SWAP1 DUP2 MSTORE PUSH1 0x20 ADD PUSH1 0x0 KECCAK256 DUP2 SWAP1 DUP1 PUSH1 0x1 DUP2 SLOAD ADD DUP1 DUP3 SSTORE DUP1 SWAP2 POP POP PUSH1 0x1 SWAP1 SUB SWAP1 PUSH1 0x0 MSTORE PUSH1 0x20 PUSH1 0x0 KECCAK256 ADD PUSH1 0x0 SWAP1 SWAP2 SWAP1 SWAP2 SWAP1 SWAP2 PUSH2 0x100 EXP DUP2 SLOAD DUP2 PUSH20 0xFFFFFFFFFFFFFFFFFFFFFFFFFFFFFFFFFFFFFFFF MUL NOT AND SWAP1 DUP4 PUSH20 0xFFFFFFFFFFFFFFFFFFFFFFFFFFFFFFFFFFFFFFFF AND MUL OR SWAP1 SSTORE POP POP JUMP JUMPDEST PUSH1 0x0 DUP1 CALLER PUSH20 0xFFFFFFFFFFFFFFFFFFFFFFFFFFFFFFFFFFFFFFFF AND PUSH20 0xFFFFFFFFFFFFFFFFFFFFFFFFFFFFFFFFFFFFFFFF AND DUP2 MSTORE PUSH1 0x20 ADD SWAP1 DUP2 MSTORE PUSH1 0x20 ADD PUSH1 0x0 KECCAK256 PUSH1 0x0 PUSH2 0x27A SWAP2 SWAP1 PUSH2 0x348 JUMP JUMPDEST JUMP JUMPDEST PUSH1 0x60 PUSH1 0x0 DUP1 DUP4 PUSH20 0xFFFFFFFFFFFFFFFFFFFFFFFFFFFFFFFFFFFFFFFF AND PUSH20 0xFFFFFFFFFFFFFFFFFFFFFFFFFFFFFFFFFFFFFFFF AND DUP2 MSTORE PUSH1 0x20 ADD SWAP1 DUP2 MSTORE PUSH1 0x20 ADD PUSH1 0x0 KECCAK256 DUP1 SLOAD DUP1 PUSH1 0x20 MUL PUSH1 0x20 ADD PUSH1 0x40 MLOAD SWAP1 DUP2 ADD PUSH1 0x40 MSTORE DUP1 SWAP3 SWAP2 SWAP1 DUP2 DUP2 MSTORE PUSH1 0x20 ADD DUP3 DUP1 SLOAD DUP1 ISZERO PUSH2 0x33C JUMPI PUSH1 0x20 MUL DUP3 ADD SWAP2 SWAP1 PUSH1 0x0 MSTORE PUSH1 0x20 PUSH1 0x0 KECCAK256 SWAP1 JUMPDEST DUP2 PUSH1 0x0 SWAP1 SLOAD SWAP1 PUSH2 0x100 EXP SWAP1 DIV PUSH20 0xFFFFFFFFFFFFFFFFFFFFFFFFFFFFFFFFFFFFFFFF AND PUSH20 0xFFFFFFFFFFFFFFFFFFFFFFFFFFFFFFFFFFFFFFFF AND DUP2 MSTORE PUSH1 0x20 ADD SWAP1 PUSH1 0x1 ADD SWAP1 DUP1 DUP4 GT PUSH2 0x2F2 JUMPI JUMPDEST POP POP POP POP POP SWAP1 POP SWAP2 SWAP1 POP JUMP JUMPDEST POP DUP1 SLOAD PUSH1 0x0 DUP3 SSTORE SWAP1 PUSH1 0x0 MSTORE PUSH1 0x20 PUSH1 0x0 KECCAK256 SWAP1 DUP2 ADD SWAP1 PUSH2 0x366 SWAP2 SWAP1 PUSH2 0x369 JUMP JUMPDEST POP JUMP JUMPDEST JUMPDEST DUP1 DUP3 GT ISZERO PUSH2 0x382 JUMPI PUSH1 0x0 DUP2 PUSH1 0x0 SWAP1 SSTORE POP PUSH1 0x1 ADD PUSH2 0x36A JUMP JUMPDEST POP SWAP1 JUMP JUMPDEST PUSH1 0x0 DUP1 REVERT JUMPDEST PUSH1 0x0 PUSH20 0xFFFFFFFFFFFFFFFFFFFFFFFFFFFFFFFFFFFFFFFF DUP3 AND SWAP1 POP SWAP2 SWAP1 POP JUMP JUMPDEST PUSH1 0x0 PUSH2 0x3B6 DUP3 PUSH2 0x38B JUMP JUMPDEST SWAP1 POP SWAP2 SWAP1 POP JUMP JUMPDEST PUSH2 0x3C6 DUP2 PUSH2 0x3AB JUMP JUMPDEST DUP2 EQ PUSH2 0x3D1 JUMPI PUSH1 0x0 DUP1 REVERT JUMPDEST POP JUMP JUMPDEST PUSH1 0x0 DUP2 CALLDATALOAD SWAP1 POP PUSH2 0x3E3 DUP2 PUSH2 0x3BD JUMP JUMPDEST SWAP3 SWAP2 POP POP JUMP JUMPDEST PUSH1 0x0 PUSH1 0x20 DUP3 DUP5 SUB SLT ISZERO PUSH2 0x3FF JUMPI PUSH2 0x3FE PUSH2 0x386 JUMP JUMPDEST JUMPDEST PUSH1 0x0 PUSH2 0x40D DUP5 DUP3 DUP6 ADD PUSH2 0x3D4 JUMP JUMPDEST SWAP2 POP POP SWAP3 SWAP2 POP POP JUMP JUMPDEST PUSH1 0x0 DUP2 MLOAD SWAP1 POP SWAP2 SWAP1 POP JUMP JUMPDEST PUSH1 0x0 DUP3 DUP3 MSTORE PUSH1 0x20 DUP3 ADD SWAP1 POP SWAP3 SWAP2 POP POP JUMP JUMPDEST PUSH1 0x0 DUP2 SWAP1 POP PUSH1 0x20 DUP3 ADD SWAP1 POP SWAP2 SWAP1 POP JUMP JUMPDEST PUSH2 0x44B DUP2 PUSH2 0x3AB JUMP JUMPDEST DUP3 MSTORE POP POP JUMP JUMPDEST PUSH1 0x0 PUSH2 0x45D DUP4 DUP4 PUSH2 0x442 JUMP JUMPDEST PUSH1 0x20 DUP4 ADD SWAP1 POP SWAP3 SWAP2 POP POP JUMP JUMPDEST PUSH1 0x0 PUSH1 0x20 DUP3 ADD SWAP1 POP SWAP2 SWAP1 POP JUMP JUMPDEST PUSH1 0x0 PUSH2 0x481 DUP3 PUSH2 0x416 JUMP JUMPDEST PUSH2 0x48B DUP2 DUP6 PUSH2 0x421 JUMP JUMPDEST SWAP4 POP PUSH2 0x496 DUP4 PUSH2 0x432 JUMP JUMPDEST DUP1 PUSH1 0x0 JUMPDEST DUP4 DUP2 LT ISZERO PUSH2 0x4C7 JUMPI DUP2 MLOAD PUSH2 0x4AE DUP9 DUP3 PUSH2 0x451 JUMP JUMPDEST SWAP8 POP PUSH2 0x4B9 DUP4 PUSH2 0x469 JUMP JUMPDEST SWAP3 POP POP PUSH1 0x1 DUP2 ADD SWAP1 POP PUSH2 0x49A JUMP JUMPDEST POP DUP6 SWAP4 POP POP POP POP SWAP3 SWAP2 POP POP JUMP JUMPDEST PUSH1 0x0 PUSH1 0x20 DUP3 ADD SWAP1 POP DUP2 DUP2 SUB PUSH1 0x0 DUP4 ADD MSTORE PUSH2 0x4EE DUP2 DUP5 PUSH2 0x476 JUMP JUMPDEST SWAP1 POP SWAP3 SWAP2 POP POP JUMP JUMPDEST PUSH1 0x0 DUP3 DUP3 MSTORE PUSH1 0x20 DUP3 ADD SWAP1 POP SWAP3 SWAP2 POP POP JUMP JUMPDEST PUSH32 0x7573657220697320616C726561647920666F6C6C6F77696E6720746865206D61 PUSH1 0x0 DUP3 ADD MSTORE PUSH32 0x78696D756D206E756D626572206F662075736572730000000000000000000000 PUSH1 0x20 DUP3 ADD MSTORE POP JUMP JUMPDEST PUSH1 0x0 PUSH2 0x563 PUSH1 0x35 DUP4 PUSH2 0x4F6 JUMP JUMPDEST SWAP2 POP PUSH2 0x56E DUP3 PUSH2 0x507 JUMP JUMPDEST PUSH1 0x40 DUP3 ADD SWAP1 POP SWAP2 SWAP1 POP JUMP JUMPDEST PUSH1 0x0 PUSH1 0x20 DUP3 ADD SWAP1 POP DUP2 DUP2 SUB PUSH1 0x0 DUP4 ADD MSTORE PUSH2 0x592 DUP2 PUSH2 0x556 JUMP JUMPDEST SWAP1 POP SWAP2 SWAP1 POP JUMP JUMPDEST PUSH32 0x796F752063616E6E6F7420666F6C6C6F7720796F757273656C66000000000000 PUSH1 0x0 DUP3 ADD MSTORE POP JUMP JUMPDEST PUSH1 0x0 PUSH2 0x5CF PUSH1 0x1A DUP4 PUSH2 0x4F6 JUMP JUMPDEST SWAP2 POP PUSH2 0x5DA DUP3 PUSH2 0x599 JUMP JUMPDEST PUSH1 0x20 DUP3 ADD SWAP1 POP SWAP2 SWAP1 POP JUMP JUMPDEST PUSH1 0x0 PUSH1 0x20 DUP3 ADD SWAP1 POP DUP2 DUP2 SUB PUSH1 0x0 DUP4 ADD MSTORE PUSH2 0x5FE DUP2 PUSH2 0x5C2 JUMP JUMPDEST SWAP1 POP SWAP2 SWAP1 POP JUMP INVALID LOG2 PUSH5 0x6970667358 0x22 SLT KECCAK256 0x26 MSTORE 0x2C 0xD2 CREATE 0xE1 LOG3 INVALID PUSH12 0x77480DD362F119933A7416B6 0xC1 0xDD 0xF9 CHAINID 0x4D 0xF6 EQ 0xA5 0xD4 CREATE2 0xBA PUSH5 0x736F6C6343 STOP ADDMOD GT STOP CALLER "
				},
				"gasEstimates": {
					"creation": {
						"codeDepositCost": "319000",
						"executionCost": "355",
						"totalCost": "319355"
					},
					"external": {
						"clearFollowing()": "infinite",
						"follow(address)": "51355",
						"getFollowing(address)": "infinite"
					}
				},
				"methodIdentifiers": {
					"clearFollowing()": "a574b9ae",
					"follow(address)": "4dbf27cc",
					"getFollowing(address)": "d8236dff"
				}
			},
			"storageLayout": {
				"storage": [
					{
						"astId": 6,
						"contract": "contracts/Following.sol:Following",
						"label": "following",
						"offset": 0,
						"slot": "0",
						"type": "t_mapping(t_address,t_array(t_address)dyn_storage)"
					}
				],
				"types": {
					"t_address": {
						"encoding": "inplace",
						"label": "address",
						"numberOfBytes": "20"
					},
					"t_array(t_address)dyn_storage": {
						"base": "t_address",
						"encoding": "dynamic_array",
						"label": "address[]",
						"numberOfBytes": "32"
					},
					"t_mapping(t_address,t_array(t_address)dyn_storage)": {
						"encoding": "mapping",
						"key": "t_address",
						"label": "mapping(address => address[])",
						"numberOfBytes": "32",
						"value": "t_array(t_address)dyn_storage"
					}
				}
			},
			"userdoc": {
				"kind": "user",
				"methods": {},
				"version": 1
			}
		}
	}
}