{
	"contracts/Balances.sol": {
		"Balances": {
			"abi": [
				{
					"stateMutability": "payable",
					"type": "fallback"
				},
				{
					"inputs": [
						{
							"internalType": "address",
							"name": "addr",
							"type": "address"
						}
					],
					"name": "getAmountSent",
					"outputs": [
						{
							"internalType": "uint256",
							"name": "",
							"type": "uint256"
						}
					],
					"stateMutability": "view",
					"type": "function"
				},
				{
					"stateMutability": "payable",
					"type": "receive"
				}
			],
			"devdoc": {
				"kind": "dev",
				"methods": {},
				"version": 1
			},
			"evm": {
				"assembly": "    /* \"contracts/Balances.sol\":36:377  contract Balances {... */\n  mstore(0x40, 0x80)\n  callvalue\n  dup1\n  iszero\n  tag_1\n  jumpi\n  0x00\n  dup1\n  revert\ntag_1:\n  pop\n  dataSize(sub_0)\n  dup1\n  dataOffset(sub_0)\n  0x00\n  codecopy\n  0x00\n  return\nstop\n\nsub_0: assembly {\n        /* \"contracts/Balances.sol\":36:377  contract Balances {... */\n      mstore(0x40, 0x80)\n      jumpi(tag_1, lt(calldatasize, 0x04))\n      shr(0xe0, calldataload(0x00))\n      dup1\n      0xa4cd5320\n      eq\n      tag_3\n      jumpi\n      jump(tag_2)\n    tag_1:\n      jumpi(tag_2, calldatasize)\n        /* \"contracts/Balances.sol\":248:257  msg.value */\n      callvalue\n        /* \"contracts/Balances.sol\":224:232  balances */\n      0x00\n        /* \"contracts/Balances.sol\":224:244  balances[msg.sender] */\n      dup1\n        /* \"contracts/Balances.sol\":233:243  msg.sender */\n      caller\n        /* \"contracts/Balances.sol\":224:244  balances[msg.sender] */\n      0xffffffffffffffffffffffffffffffffffffffff\n      and\n      0xffffffffffffffffffffffffffffffffffffffff\n      and\n      dup2\n      mstore\n      0x20\n      add\n      swap1\n      dup2\n      mstore\n      0x20\n      add\n      0x00\n      keccak256\n      0x00\n        /* \"contracts/Balances.sol\":224:257  balances[msg.sender] += msg.value */\n      dup3\n      dup3\n      sload\n      tag_6\n      swap2\n      swap1\n      tag_7\n      jump\t// in\n    tag_6:\n      swap3\n      pop\n      pop\n      dup2\n      swap1\n      sstore\n      stop\n        /* \"contracts/Balances.sol\":36:377  contract Balances {... */\n    tag_2:\n        /* \"contracts/Balances.sol\":165:174  msg.value */\n      callvalue\n        /* \"contracts/Balances.sol\":141:149  balances */\n      0x00\n        /* \"contracts/Balances.sol\":141:161  balances[msg.sender] */\n      dup1\n        /* \"contracts/Balances.sol\":150:160  msg.sender */\n      caller\n        /* \"contracts/Balances.sol\":141:161  balances[msg.sender] */\n      0xffffffffffffffffffffffffffffffffffffffff\n      and\n      0xffffffffffffffffffffffffffffffffffffffff\n      and\n      dup2\n      mstore\n      0x20\n      add\n      swap1\n      dup2\n      mstore\n      0x20\n      add\n      0x00\n      keccak256\n      0x00\n        /* \"contracts/Balances.sol\":141:174  balances[msg.sender] += msg.value */\n      dup3\n      dup3\n      sload\n      tag_10\n      swap2\n      swap1\n      tag_7\n      jump\t// in\n    tag_10:\n      swap3\n      pop\n      pop\n      dup2\n      swap1\n      sstore\n      stop\n        /* \"contracts/Balances.sol\":270:375  function getAmountSent(address addr) public view returns (uint256) {... */\n    tag_3:\n      callvalue\n      dup1\n      iszero\n      tag_11\n      jumpi\n      0x00\n      dup1\n      revert\n    tag_11:\n      pop\n      tag_12\n      0x04\n      dup1\n      calldatasize\n      sub\n      dup2\n      add\n      swap1\n      tag_13\n      swap2\n      swap1\n      tag_14\n      jump\t// in\n    tag_13:\n      tag_15\n      jump\t// in\n    tag_12:\n      mload(0x40)\n      tag_16\n      swap2\n      swap1\n      tag_17\n      jump\t// in\n    tag_16:\n      mload(0x40)\n      dup1\n      swap2\n      sub\n      swap1\n      return\n    tag_15:\n        /* \"contracts/Balances.sol\":328:335  uint256 */\n      0x00\n        /* \"contracts/Balances.sol\":354:362  balances */\n      dup1\n        /* \"contracts/Balances.sol\":354:368  balances[addr] */\n      0x00\n        /* \"contracts/Balances.sol\":363:367  addr */\n      dup4\n        /* \"contracts/Balances.sol\":354:368  balances[addr] */\n      0xffffffffffffffffffffffffffffffffffffffff\n      and\n      0xffffffffffffffffffffffffffffffffffffffff\n      and\n      dup2\n      mstore\n      0x20\n      add\n      swap1\n      dup2\n      mstore\n      0x20\n      add\n      0x00\n      keccak256\n      sload\n        /* \"contracts/Balances.sol\":347:368  return balances[addr] */\n      swap1\n      pop\n        /* \"contracts/Balances.sol\":270:375  function getAmountSent(address addr) public view returns (uint256) {... */\n      swap2\n      swap1\n      pop\n      jump\t// out\n        /* \"#utility.yul\":7:84   */\n    tag_19:\n        /* \"#utility.yul\":44:51   */\n      0x00\n        /* \"#utility.yul\":73:78   */\n      dup2\n        /* \"#utility.yul\":62:78   */\n      swap1\n      pop\n        /* \"#utility.yul\":7:84   */\n      swap2\n      swap1\n      pop\n      jump\t// out\n        /* \"#utility.yul\":90:270   */\n    tag_20:\n        /* \"#utility.yul\":138:215   */\n      0x4e487b7100000000000000000000000000000000000000000000000000000000\n        /* \"#utility.yul\":135:136   */\n      0x00\n        /* \"#utility.yul\":128:216   */\n      mstore\n        /* \"#utility.yul\":235:239   */\n      0x11\n        /* \"#utility.yul\":232:233   */\n      0x04\n        /* \"#utility.yul\":225:240   */\n      mstore\n        /* \"#utility.yul\":259:263   */\n      0x24\n        /* \"#utility.yul\":256:257   */\n      0x00\n        /* \"#utility.yul\":249:264   */\n      revert\n        /* \"#utility.yul\":276:467   */\n    tag_7:\n        /* \"#utility.yul\":316:319   */\n      0x00\n        /* \"#utility.yul\":335:355   */\n      tag_33\n        /* \"#utility.yul\":353:354   */\n      dup3\n        /* \"#utility.yul\":335:355   */\n      tag_19\n      jump\t// in\n    tag_33:\n        /* \"#utility.yul\":330:355   */\n      swap2\n      pop\n        /* \"#utility.yul\":369:389   */\n      tag_34\n        /* \"#utility.yul\":387:388   */\n      dup4\n        /* \"#utility.yul\":369:389   */\n      tag_19\n      jump\t// in\n    tag_34:\n        /* \"#utility.yul\":364:389   */\n      swap3\n      pop\n        /* \"#utility.yul\":412:413   */\n      dup3\n        /* \"#utility.yul\":409:410   */\n      dup3\n        /* \"#utility.yul\":405:414   */\n      add\n        /* \"#utility.yul\":398:414   */\n      swap1\n      pop\n        /* \"#utility.yul\":433:436   */\n      dup1\n        /* \"#utility.yul\":430:431   */\n      dup3\n        /* \"#utility.yul\":427:437   */\n      gt\n        /* \"#utility.yul\":424:460   */\n      iszero\n      tag_35\n      jumpi\n        /* \"#utility.yul\":440:458   */\n      tag_36\n      tag_20\n      jump\t// in\n    tag_36:\n        /* \"#utility.yul\":424:460   */\n    tag_35:\n        /* \"#utility.yul\":276:467   */\n      swap3\n      swap2\n      pop\n      pop\n      jump\t// out\n        /* \"#utility.yul\":554:671   */\n    tag_22:\n        /* \"#utility.yul\":663:664   */\n      0x00\n        /* \"#utility.yul\":660:661   */\n      dup1\n        /* \"#utility.yul\":653:665   */\n      revert\n        /* \"#utility.yul\":800:926   */\n    tag_24:\n        /* \"#utility.yul\":837:844   */\n      0x00\n        /* \"#utility.yul\":877:919   */\n      0xffffffffffffffffffffffffffffffffffffffff\n        /* \"#utility.yul\":870:875   */\n      dup3\n        /* \"#utility.yul\":866:920   */\n      and\n        /* \"#utility.yul\":855:920   */\n      swap1\n      pop\n        /* \"#utility.yul\":800:926   */\n      swap2\n      swap1\n      pop\n      jump\t// out\n        /* \"#utility.yul\":932:1028   */\n    tag_25:\n        /* \"#utility.yul\":969:976   */\n      0x00\n        /* \"#utility.yul\":998:1022   */\n      tag_42\n        /* \"#utility.yul\":1016:1021   */\n      dup3\n        /* \"#utility.yul\":998:1022   */\n      tag_24\n      jump\t// in\n    tag_42:\n        /* \"#utility.yul\":987:1022   */\n      swap1\n      pop\n        /* \"#utility.yul\":932:1028   */\n      swap2\n      swap1\n      pop\n      jump\t// out\n        /* \"#utility.yul\":1034:1156   */\n    tag_26:\n        /* \"#utility.yul\":1107:1131   */\n      tag_44\n        /* \"#utility.yul\":1125:1130   */\n      dup2\n        /* \"#utility.yul\":1107:1131   */\n      tag_25\n      jump\t// in\n    tag_44:\n        /* \"#utility.yul\":1100:1105   */\n      dup2\n        /* \"#utility.yul\":1097:1132   */\n      eq\n        /* \"#utility.yul\":1087:1150   */\n      tag_45\n      jumpi\n        /* \"#utility.yul\":1146:1147   */\n      0x00\n        /* \"#utility.yul\":1143:1144   */\n      dup1\n        /* \"#utility.yul\":1136:1148   */\n      revert\n        /* \"#utility.yul\":1087:1150   */\n    tag_45:\n        /* \"#utility.yul\":1034:1156   */\n      pop\n      jump\t// out\n        /* \"#utility.yul\":1162:1301   */\n    tag_27:\n        /* \"#utility.yul\":1208:1213   */\n      0x00\n        /* \"#utility.yul\":1246:1252   */\n      dup2\n        /* \"#utility.yul\":1233:1253   */\n      calldataload\n        /* \"#utility.yul\":1224:1253   */\n      swap1\n      pop\n        /* \"#utility.yul\":1262:1295   */\n      tag_47\n        /* \"#utility.yul\":1289:1294   */\n      dup2\n        /* \"#utility.yul\":1262:1295   */\n      tag_26\n      jump\t// in\n    tag_47:\n        /* \"#utility.yul\":1162:1301   */\n      swap3\n      swap2\n      pop\n      pop\n      jump\t// out\n        /* \"#utility.yul\":1307:1636   */\n    tag_14:\n        /* \"#utility.yul\":1366:1372   */\n      0x00\n        /* \"#utility.yul\":1415:1417   */\n      0x20\n        /* \"#utility.yul\":1403:1412   */\n      dup3\n        /* \"#utility.yul\":1394:1401   */\n      dup5\n        /* \"#utility.yul\":1390:1413   */\n      sub\n        /* \"#utility.yul\":1386:1418   */\n      slt\n        /* \"#utility.yul\":1383:1502   */\n      iszero\n      tag_49\n      jumpi\n        /* \"#utility.yul\":1421:1500   */\n      tag_50\n      tag_22\n      jump\t// in\n    tag_50:\n        /* \"#utility.yul\":1383:1502   */\n    tag_49:\n        /* \"#utility.yul\":1541:1542   */\n      0x00\n        /* \"#utility.yul\":1566:1619   */\n      tag_51\n        /* \"#utility.yul\":1611:1618   */\n      dup5\n        /* \"#utility.yul\":1602:1608   */\n      dup3\n        /* \"#utility.yul\":1591:1600   */\n      dup6\n        /* \"#utility.yul\":1587:1609   */\n      add\n        /* \"#utility.yul\":1566:1619   */\n      tag_27\n      jump\t// in\n    tag_51:\n        /* \"#utility.yul\":1556:1619   */\n      swap2\n      pop\n        /* \"#utility.yul\":1512:1629   */\n      pop\n        /* \"#utility.yul\":1307:1636   */\n      swap3\n      swap2\n      pop\n      pop\n      jump\t// out\n        /* \"#utility.yul\":1642:1760   */\n    tag_28:\n        /* \"#utility.yul\":1729:1753   */\n      tag_53\n        /* \"#utility.yul\":1747:1752   */\n      dup2\n        /* \"#utility.yul\":1729:1753   */\n      tag_19\n      jump\t// in\n    tag_53:\n        /* \"#utility.yul\":1724:1727   */\n      dup3\n        /* \"#utility.yul\":1717:1754   */\n      mstore\n        /* \"#utility.yul\":1642:1760   */\n      pop\n      pop\n      jump\t// out\n        /* \"#utility.yul\":1766:1988   */\n    tag_17:\n        /* \"#utility.yul\":1859:1863   */\n      0x00\n        /* \"#utility.yul\":1897:1899   */\n      0x20\n        /* \"#utility.yul\":1886:1895   */\n      dup3\n        /* \"#utility.yul\":1882:1900   */\n      add\n        /* \"#utility.yul\":1874:1900   */\n      swap1\n      pop\n        /* \"#utility.yul\":1910:1981   */\n      tag_55\n        /* \"#utility.yul\":1978:1979   */\n      0x00\n        /* \"#utility.yul\":1967:1976   */\n      dup4\n        /* \"#utility.yul\":1963:1980   */\n      add\n        /* \"#utility.yul\":1954:1960   */\n      dup5\n        /* \"#utility.yul\":1910:1981   */\n      tag_28\n      jump\t// in\n    tag_55:\n        /* \"#utility.yul\":1766:1988   */\n      swap3\n      swap2\n      pop\n      pop\n      jump\t// out\n\n    auxdata: 0xa26469706673582212202ab43dfd652ae0e89cc10985f4fa506b03f03900cb3c91086f0fcb46b78ff70e64736f6c63430008110033\n}\n",
				"bytecode": {
					"linkReferences": {},
					"object": "608060405234801561001057600080fd5b506102b5806100206000396000f3fe6080604052600436106100225760003560e01c8063a4cd5320146100d35761007d565b3661007d57346000803373ffffffffffffffffffffffffffffffffffffffff1673ffffffffffffffffffffffffffffffffffffffff16815260200190815260200160002060008282546100759190610191565b925050819055005b346000803373ffffffffffffffffffffffffffffffffffffffff1673ffffffffffffffffffffffffffffffffffffffff16815260200190815260200160002060008282546100cb9190610191565b925050819055005b3480156100df57600080fd5b506100fa60048036038101906100f59190610228565b610110565b6040516101079190610264565b60405180910390f35b60008060008373ffffffffffffffffffffffffffffffffffffffff1673ffffffffffffffffffffffffffffffffffffffff168152602001908152602001600020549050919050565b6000819050919050565b7f4e487b7100000000000000000000000000000000000000000000000000000000600052601160045260246000fd5b600061019c82610158565b91506101a783610158565b92508282019050808211156101bf576101be610162565b5b92915050565b600080fd5b600073ffffffffffffffffffffffffffffffffffffffff82169050919050565b60006101f5826101ca565b9050919050565b610205816101ea565b811461021057600080fd5b50565b600081359050610222816101fc565b92915050565b60006020828403121561023e5761023d6101c5565b5b600061024c84828501610213565b91505092915050565b61025e81610158565b82525050565b60006020820190506102796000830184610255565b9291505056fea26469706673582212202ab43dfd652ae0e89cc10985f4fa506b03f03900cb3c91086f0fcb46b78ff70e64736f6c63430008110033",
					"opcodes": "PUSH1 0x80 PUSH1 0x40 MSTORE CALLVALUE DUP1 ISZERO PUSH2 0x10 JUMPI PUSH1 0x0 DUP1 REVERT JUMPDEST POP PUSH2 0x2B5 DUP1 PUSH2 0x20 PUSH1 0x0 CODECOPY PUSH1 0x0 RETURN INVALID PUSH1 0x80 PUSH1 0x40 MSTORE PUSH1 0x4 CALLDATASIZE LT PUSH2 0x22 JUMPI PUSH1 0x0 CALLDATALOAD PUSH1 0xE0 SHR DUP1 PUSH4 0xA4CD5320 EQ PUSH2 0xD3 JUMPI PUSH2 0x7D JUMP JUMPDEST CALLDATASIZE PUSH2 0x7D JUMPI CALLVALUE PUSH1 0x0 DUP1 CALLER PUSH20 0xFFFFFFFFFFFFFFFFFFFFFFFFFFFFFFFFFFFFFFFF AND PUSH20 0xFFFFFFFFFFFFFFFFFFFFFFFFFFFFFFFFFFFFFFFF AND DUP2 MSTORE PUSH1 0x20 ADD SWAP1 DUP2 MSTORE PUSH1 0x20 ADD PUSH1 0x0 KECCAK256 PUSH1 0x0 DUP3 DUP3 SLOAD PUSH2 0x75 SWAP2 SWAP1 PUSH2 0x191 JUMP JUMPDEST SWAP3 POP POP DUP2 SWAP1 SSTORE STOP JUMPDEST CALLVALUE PUSH1 0x0 DUP1 CALLER PUSH20 0xFFFFFFFFFFFFFFFFFFFFFFFFFFFFFFFFFFFFFFFF AND PUSH20 0xFFFFFFFFFFFFFFFFFFFFFFFFFFFFFFFFFFFFFFFF AND DUP2 MSTORE PUSH1 0x20 ADD SWAP1 DUP2 MSTORE PUSH1 0x20 ADD PUSH1 0x0 KECCAK256 PUSH1 0x0 DUP3 DUP3 SLOAD PUSH2 0xCB SWAP2 SWAP1 PUSH2 0x191 JUMP JUMPDEST SWAP3 POP POP DUP2 SWAP1 SSTORE STOP JUMPDEST CALLVALUE DUP1 ISZERO PUSH2 0xDF JUMPI PUSH1 0x0 DUP1 REVERT JUMPDEST POP PUSH2 0xFA PUSH1 0x4 DUP1 CALLDATASIZE SUB DUP2 ADD SWAP1 PUSH2 0xF5 SWAP2 SWAP1 PUSH2 0x228 JUMP JUMPDEST PUSH2 0x110 JUMP JUMPDEST PUSH1 0x40 MLOAD PUSH2 0x107 SWAP2 SWAP1 PUSH2 0x264 JUMP JUMPDEST PUSH1 0x40 MLOAD DUP1 SWAP2 SUB SWAP1 RETURN JUMPDEST PUSH1 0x0 DUP1 PUSH1 0x0 DUP4 PUSH20 0xFFFFFFFFFFFFFFFFFFFFFFFFFFFFFFFFFFFFFFFF AND PUSH20 0xFFFFFFFFFFFFFFFFFFFFFFFFFFFFFFFFFFFFFFFF AND DUP2 MSTORE PUSH1 0x20 ADD SWAP1 DUP2 MSTORE PUSH1 0x20 ADD PUSH1 0x0 KECCAK256 SLOAD SWAP1 POP SWAP2 SWAP1 POP JUMP JUMPDEST PUSH1 0x0 DUP2 SWAP1 POP SWAP2 SWAP1 POP JUMP JUMPDEST PUSH32 0x4E487B7100000000000000000000000000000000000000000000000000000000 PUSH1 0x0 MSTORE PUSH1 0x11 PUSH1 0x4 MSTORE PUSH1 0x24 PUSH1 0x0 REVERT JUMPDEST PUSH1 0x0 PUSH2 0x19C DUP3 PUSH2 0x158 JUMP JUMPDEST SWAP2 POP PUSH2 0x1A7 DUP4 PUSH2 0x158 JUMP JUMPDEST SWAP3 POP DUP3 DUP3 ADD SWAP1 POP DUP1 DUP3 GT ISZERO PUSH2 0x1BF JUMPI PUSH2 0x1BE PUSH2 0x162 JUMP JUMPDEST JUMPDEST SWAP3 SWAP2 POP POP JUMP JUMPDEST PUSH1 0x0 DUP1 REVERT JUMPDEST PUSH1 0x0 PUSH20 0xFFFFFFFFFFFFFFFFFFFFFFFFFFFFFFFFFFFFFFFF DUP3 AND SWAP1 POP SWAP2 SWAP1 POP JUMP JUMPDEST PUSH1 0x0 PUSH2 0x1F5 DUP3 PUSH2 0x1CA JUMP JUMPDEST SWAP1 POP SWAP2 SWAP1 POP JUMP JUMPDEST PUSH2 0x205 DUP2 PUSH2 0x1EA JUMP JUMPDEST DUP2 EQ PUSH2 0x210 JUMPI PUSH1 0x0 DUP1 REVERT JUMPDEST POP JUMP JUMPDEST PUSH1 0x0 DUP2 CALLDATALOAD SWAP1 POP PUSH2 0x222 DUP2 PUSH2 0x1FC JUMP JUMPDEST SWAP3 SWAP2 POP POP JUMP JUMPDEST PUSH1 0x0 PUSH1 0x20 DUP3 DUP5 SUB SLT ISZERO PUSH2 0x23E JUMPI PUSH2 0x23D PUSH2 0x1C5 JUMP JUMPDEST JUMPDEST PUSH1 0x0 PUSH2 0x24C DUP5 DUP3 DUP6 ADD PUSH2 0x213 JUMP JUMPDEST SWAP2 POP POP SWAP3 SWAP2 POP POP JUMP JUMPDEST PUSH2 0x25E DUP2 PUSH2 0x158 JUMP JUMPDEST DUP3 MSTORE POP POP JUMP JUMPDEST PUSH1 0x0 PUSH1 0x20 DUP3 ADD SWAP1 POP PUSH2 0x279 PUSH1 0x0 DUP4 ADD DUP5 PUSH2 0x255 JUMP JUMPDEST SWAP3 SWAP2 POP POP JUMP INVALID LOG2 PUSH5 0x6970667358 0x22 SLT KECCAK256 0x2A 0xB4 RETURNDATASIZE REVERT PUSH6 0x2AE0E89CC109 DUP6 DELEGATECALL STATICCALL POP PUSH12 0x3F03900CB3C91086F0FCB46 0xB7 DUP16 0xF7 0xE PUSH5 0x736F6C6343 STOP ADDMOD GT STOP CALLER "
				},
				"gasEstimates": {
					"creation": {
						"codeDepositCost": "138600",
						"executionCost": "183",
						"totalCost": "138783"
					},
					"external": {
						"": "infinite",
						"getAmountSent(address)": "2819"
					}
				},
				"methodIdentifiers": {
					"getAmountSent(address)": "a4cd5320"
				}
			},
			"storageLayout": {
				"storage": [
					{
						"astId": 5,
						"contract": "contracts/Balances.sol:Balances",
						"label": "balances",
						"offset": 0,
						"slot": "0",
						"type": "t_mapping(t_address,t_uint256)"
					}
				],
				"types": {
					"t_address": {
						"encoding": "inplace",
						"label": "address",
						"numberOfBytes": "20"
					},
					"t_mapping(t_address,t_uint256)": {
						"encoding": "mapping",
						"key": "t_address",
						"label": "mapping(address => uint256)",
						"numberOfBytes": "32",
						"value": "t_uint256"
					},
					"t_uint256": {
						"encoding": "inplace",
						"label": "uint256",
						"numberOfBytes": "32"
					}
				}
			},
			"userdoc": {
				"kind": "user",
				"methods": {},
				"version": 1
			}
		}
	}
}